{
  "contractName": "FundCertificate",
  "abi": [
    {
      "inputs": [
        {
          "internalType": "address",
          "name": "_paymentToken",
          "type": "address"
        },
        {
          "internalType": "address",
          "name": "_provider",
          "type": "address"
        }
      ],
      "stateMutability": "nonpayable",
      "type": "constructor"
    },
    {
      "anonymous": false,
      "inputs": [
        {
          "indexed": true,
          "internalType": "address",
          "name": "account",
          "type": "address"
        },
        {
          "indexed": true,
          "internalType": "address",
          "name": "operator",
          "type": "address"
        },
        {
          "indexed": false,
          "internalType": "bool",
          "name": "approved",
          "type": "bool"
        }
      ],
      "name": "ApprovalForAll",
      "type": "event"
    },
    {
      "anonymous": false,
      "inputs": [
        {
          "indexed": true,
          "internalType": "address",
          "name": "previousOwner",
          "type": "address"
        },
        {
          "indexed": true,
          "internalType": "address",
          "name": "newOwner",
          "type": "address"
        }
      ],
      "name": "OwnershipTransferred",
      "type": "event"
    },
    {
      "anonymous": false,
      "inputs": [
        {
          "indexed": false,
          "internalType": "address",
          "name": "account",
          "type": "address"
        }
      ],
      "name": "Paused",
      "type": "event"
    },
    {
      "anonymous": false,
      "inputs": [
        {
          "indexed": true,
          "internalType": "address",
          "name": "operator",
          "type": "address"
        },
        {
          "indexed": true,
          "internalType": "address",
          "name": "from",
          "type": "address"
        },
        {
          "indexed": true,
          "internalType": "address",
          "name": "to",
          "type": "address"
        },
        {
          "indexed": false,
          "internalType": "uint256[]",
          "name": "ids",
          "type": "uint256[]"
        },
        {
          "indexed": false,
          "internalType": "uint256[]",
          "name": "values",
          "type": "uint256[]"
        }
      ],
      "name": "TransferBatch",
      "type": "event"
    },
    {
      "anonymous": false,
      "inputs": [
        {
          "indexed": true,
          "internalType": "address",
          "name": "operator",
          "type": "address"
        },
        {
          "indexed": true,
          "internalType": "address",
          "name": "from",
          "type": "address"
        },
        {
          "indexed": true,
          "internalType": "address",
          "name": "to",
          "type": "address"
        },
        {
          "indexed": false,
          "internalType": "uint256",
          "name": "id",
          "type": "uint256"
        },
        {
          "indexed": false,
          "internalType": "uint256",
          "name": "value",
          "type": "uint256"
        }
      ],
      "name": "TransferSingle",
      "type": "event"
    },
    {
      "anonymous": false,
      "inputs": [
        {
          "indexed": false,
          "internalType": "string",
          "name": "value",
          "type": "string"
        },
        {
          "indexed": true,
          "internalType": "uint256",
          "name": "id",
          "type": "uint256"
        }
      ],
      "name": "URI",
      "type": "event"
    },
    {
      "anonymous": false,
      "inputs": [
        {
          "indexed": false,
          "internalType": "address",
          "name": "account",
          "type": "address"
        }
      ],
      "name": "Unpaused",
      "type": "event"
    },
    {
      "inputs": [
        {
          "internalType": "address",
          "name": "account",
          "type": "address"
        },
        {
          "internalType": "uint256",
          "name": "id",
          "type": "uint256"
        }
      ],
      "name": "balanceOf",
      "outputs": [
        {
          "internalType": "uint256",
          "name": "",
          "type": "uint256"
        }
      ],
      "stateMutability": "view",
      "type": "function"
    },
    {
      "inputs": [
        {
          "internalType": "address[]",
          "name": "accounts",
          "type": "address[]"
        },
        {
          "internalType": "uint256[]",
          "name": "ids",
          "type": "uint256[]"
        }
      ],
      "name": "balanceOfBatch",
      "outputs": [
        {
          "internalType": "uint256[]",
          "name": "",
          "type": "uint256[]"
        }
      ],
      "stateMutability": "view",
      "type": "function"
    },
    {
      "inputs": [
        {
          "internalType": "address",
          "name": "account",
          "type": "address"
        },
        {
          "internalType": "uint256",
          "name": "id",
          "type": "uint256"
        },
        {
          "internalType": "uint256",
          "name": "value",
          "type": "uint256"
        }
      ],
      "name": "burn",
      "outputs": [],
      "stateMutability": "nonpayable",
      "type": "function"
    },
    {
      "inputs": [
        {
          "internalType": "address",
          "name": "account",
          "type": "address"
        },
        {
          "internalType": "uint256[]",
          "name": "ids",
          "type": "uint256[]"
        },
        {
          "internalType": "uint256[]",
          "name": "values",
          "type": "uint256[]"
        }
      ],
      "name": "burnBatch",
      "outputs": [],
      "stateMutability": "nonpayable",
      "type": "function"
    },
    {
      "inputs": [
        {
          "internalType": "uint256",
          "name": "id",
          "type": "uint256"
        }
      ],
      "name": "exists",
      "outputs": [
        {
          "internalType": "bool",
          "name": "",
          "type": "bool"
        }
      ],
      "stateMutability": "view",
      "type": "function"
    },
    {
      "inputs": [
        {
          "internalType": "address",
          "name": "account",
          "type": "address"
        },
        {
          "internalType": "address",
          "name": "operator",
          "type": "address"
        }
      ],
      "name": "isApprovedForAll",
      "outputs": [
        {
          "internalType": "bool",
          "name": "",
          "type": "bool"
        }
      ],
      "stateMutability": "view",
      "type": "function"
    },
    {
      "inputs": [],
      "name": "owner",
      "outputs": [
        {
          "internalType": "address",
          "name": "",
          "type": "address"
        }
      ],
      "stateMutability": "view",
      "type": "function"
    },
    {
      "inputs": [],
      "name": "paused",
      "outputs": [
        {
          "internalType": "bool",
          "name": "",
          "type": "bool"
        }
      ],
      "stateMutability": "view",
      "type": "function"
    },
    {
      "inputs": [],
      "name": "renounceOwnership",
      "outputs": [],
      "stateMutability": "nonpayable",
      "type": "function"
    },
    {
      "inputs": [
        {
          "internalType": "address",
          "name": "from",
          "type": "address"
        },
        {
          "internalType": "address",
          "name": "to",
          "type": "address"
        },
        {
          "internalType": "uint256[]",
          "name": "ids",
          "type": "uint256[]"
        },
        {
          "internalType": "uint256[]",
          "name": "amounts",
          "type": "uint256[]"
        },
        {
          "internalType": "bytes",
          "name": "data",
          "type": "bytes"
        }
      ],
      "name": "safeBatchTransferFrom",
      "outputs": [],
      "stateMutability": "nonpayable",
      "type": "function"
    },
    {
      "inputs": [
        {
          "internalType": "address",
          "name": "from",
          "type": "address"
        },
        {
          "internalType": "address",
          "name": "to",
          "type": "address"
        },
        {
          "internalType": "uint256",
          "name": "id",
          "type": "uint256"
        },
        {
          "internalType": "uint256",
          "name": "amount",
          "type": "uint256"
        },
        {
          "internalType": "bytes",
          "name": "data",
          "type": "bytes"
        }
      ],
      "name": "safeTransferFrom",
      "outputs": [],
      "stateMutability": "nonpayable",
      "type": "function"
    },
    {
      "inputs": [
        {
          "internalType": "address",
          "name": "operator",
          "type": "address"
        },
        {
          "internalType": "bool",
          "name": "approved",
          "type": "bool"
        }
      ],
      "name": "setApprovalForAll",
      "outputs": [],
      "stateMutability": "nonpayable",
      "type": "function"
    },
    {
      "inputs": [
        {
          "internalType": "bytes4",
          "name": "interfaceId",
          "type": "bytes4"
        }
      ],
      "name": "supportsInterface",
      "outputs": [
        {
          "internalType": "bool",
          "name": "",
          "type": "bool"
        }
      ],
      "stateMutability": "view",
      "type": "function"
    },
    {
      "inputs": [
        {
          "internalType": "uint256",
          "name": "",
          "type": "uint256"
        }
      ],
      "name": "tokenOwner",
      "outputs": [
        {
          "internalType": "uint256",
          "name": "id",
          "type": "uint256"
        },
        {
          "internalType": "address",
          "name": "publisher",
          "type": "address"
        }
      ],
      "stateMutability": "view",
      "type": "function"
    },
    {
      "inputs": [
        {
          "internalType": "uint256",
          "name": "id",
          "type": "uint256"
        }
      ],
      "name": "totalSupply",
      "outputs": [
        {
          "internalType": "uint256",
          "name": "",
          "type": "uint256"
        }
      ],
      "stateMutability": "view",
      "type": "function"
    },
    {
      "inputs": [
        {
          "internalType": "address",
          "name": "newOwner",
          "type": "address"
        }
      ],
      "name": "transferOwnership",
      "outputs": [],
      "stateMutability": "nonpayable",
      "type": "function"
    },
    {
      "inputs": [
        {
          "internalType": "uint256",
          "name": "",
          "type": "uint256"
        }
      ],
      "name": "uri",
      "outputs": [
        {
          "internalType": "string",
          "name": "",
          "type": "string"
        }
      ],
      "stateMutability": "view",
      "type": "function"
    },
    {
      "inputs": [
        {
          "internalType": "string",
          "name": "newuri",
          "type": "string"
        }
      ],
      "name": "setURI",
      "outputs": [],
      "stateMutability": "nonpayable",
      "type": "function"
    },
    {
      "inputs": [],
      "name": "pause",
      "outputs": [],
      "stateMutability": "nonpayable",
      "type": "function"
    },
    {
      "inputs": [],
      "name": "unpause",
      "outputs": [],
      "stateMutability": "nonpayable",
      "type": "function"
    },
    {
      "inputs": [
        {
          "internalType": "address",
          "name": "account",
          "type": "address"
        },
        {
          "internalType": "uint256",
          "name": "issueDate",
          "type": "uint256"
        },
        {
          "internalType": "uint256",
          "name": "totalSuply",
          "type": "uint256"
        },
        {
          "internalType": "uint256",
          "name": "intervestTerm",
          "type": "uint256"
        },
        {
          "internalType": "uint256",
          "name": "price",
          "type": "uint256"
        }
      ],
      "name": "issue",
      "outputs": [],
      "stateMutability": "nonpayable",
      "type": "function"
    },
    {
      "inputs": [
        {
          "internalType": "uint256",
          "name": "tokenId",
          "type": "uint256"
        },
        {
          "internalType": "uint256",
          "name": "invoiceNumber",
          "type": "uint256"
        }
      ],
      "name": "payIntervest",
      "outputs": [],
      "stateMutability": "nonpayable",
      "type": "function"
    },
    {
      "inputs": [
        {
          "internalType": "uint256",
          "name": "tokenId",
          "type": "uint256"
        },
        {
          "internalType": "uint256",
          "name": "invoiceNumber",
          "type": "uint256"
        }
      ],
      "name": "payIntervestTemp",
      "outputs": [],
      "stateMutability": "nonpayable",
      "type": "function"
    },
    {
      "inputs": [
        {
          "internalType": "uint256",
          "name": "tokenId",
          "type": "uint256"
        }
      ],
      "name": "getFundCertInfoById",
      "outputs": [
        {
          "components": [
            {
              "internalType": "uint256",
              "name": "id",
              "type": "uint256"
            },
            {
              "internalType": "uint256",
              "name": "price",
              "type": "uint256"
            },
            {
              "internalType": "uint256",
              "name": "issueDate",
              "type": "uint256"
            },
            {
              "internalType": "uint256",
              "name": "expireDate",
              "type": "uint256"
            },
            {
              "internalType": "uint256",
              "name": "intervestTerm",
              "type": "uint256"
            },
            {
              "internalType": "uint256",
              "name": "totalSupply",
              "type": "uint256"
            }
          ],
          "internalType": "struct FundCertificate.FundCert",
          "name": "",
          "type": "tuple"
        }
      ],
      "stateMutability": "view",
      "type": "function"
    },
    {
      "inputs": [],
      "name": "getIntervestTermRate",
      "outputs": [
        {
          "internalType": "uint256",
          "name": "",
          "type": "uint256"
        }
      ],
      "stateMutability": "view",
      "type": "function"
    },
    {
      "inputs": [],
      "name": "getBaseRate",
      "outputs": [
        {
          "internalType": "uint256",
          "name": "",
          "type": "uint256"
        }
      ],
      "stateMutability": "view",
      "type": "function"
    },
    {
      "inputs": [
        {
          "internalType": "uint256",
          "name": "_baseRate",
          "type": "uint256"
        }
      ],
      "name": "setBaseRate",
      "outputs": [],
      "stateMutability": "nonpayable",
      "type": "function"
    },
    {
      "inputs": [],
      "name": "getRedeemTime",
      "outputs": [
        {
          "internalType": "uint256",
          "name": "",
          "type": "uint256"
        }
      ],
      "stateMutability": "view",
      "type": "function"
    },
    {
      "inputs": [
        {
          "internalType": "uint256",
          "name": "_redeemTime",
          "type": "uint256"
        }
      ],
      "name": "setRedeemTime",
      "outputs": [],
      "stateMutability": "nonpayable",
      "type": "function"
    },
    {
      "inputs": [
        {
          "internalType": "uint256",
          "name": "holdingTime",
          "type": "uint256"
        }
      ],
      "name": "getIntervestRate",
      "outputs": [
        {
          "internalType": "uint256",
          "name": "",
          "type": "uint256"
        }
      ],
      "stateMutability": "view",
      "type": "function"
    },
    {
      "inputs": [],
      "name": "getInterestRates",
      "outputs": [
        {
          "components": [
            {
              "internalType": "uint256",
              "name": "from",
              "type": "uint256"
            },
            {
              "internalType": "uint256",
              "name": "to",
              "type": "uint256"
            },
            {
              "internalType": "uint256",
              "name": "rate",
              "type": "uint256"
            }
          ],
          "internalType": "struct FundCertificate.InterestRate[]",
          "name": "",
          "type": "tuple[]"
        }
      ],
      "stateMutability": "view",
      "type": "function"
    },
    {
      "inputs": [
        {
          "components": [
            {
              "internalType": "uint256",
              "name": "from",
              "type": "uint256"
            },
            {
              "internalType": "uint256",
              "name": "to",
              "type": "uint256"
            },
            {
              "internalType": "uint256",
              "name": "rate",
              "type": "uint256"
            }
          ],
          "internalType": "struct FundCertificate.InterestRate[]",
          "name": "_interestRates",
          "type": "tuple[]"
        }
      ],
      "name": "setInterestRates",
      "outputs": [],
      "stateMutability": "nonpayable",
      "type": "function"
    },
    {
      "inputs": [],
      "name": "getPaymentToken",
      "outputs": [
        {
          "internalType": "address",
          "name": "",
          "type": "address"
        }
      ],
      "stateMutability": "view",
      "type": "function"
    },
    {
      "inputs": [
        {
          "internalType": "address",
          "name": "_paymentToken",
          "type": "address"
        }
      ],
      "name": "setPaymentToken",
      "outputs": [],
      "stateMutability": "nonpayable",
      "type": "function"
    },
    {
      "inputs": [
        {
          "internalType": "address",
          "name": "walletAddress",
          "type": "address"
        }
      ],
      "name": "isWhitelist",
      "outputs": [
        {
          "internalType": "bool",
          "name": "",
          "type": "bool"
        }
      ],
      "stateMutability": "view",
      "type": "function"
    },
    {
      "inputs": [
        {
          "internalType": "address[]",
          "name": "_whitelists",
          "type": "address[]"
        }
      ],
      "name": "setWhitelist",
      "outputs": [],
      "stateMutability": "nonpayable",
      "type": "function"
    },
    {
      "inputs": [
        {
          "internalType": "address[]",
          "name": "_whitelists",
          "type": "address[]"
        }
      ],
      "name": "removeWhitelist",
      "outputs": [],
      "stateMutability": "nonpayable",
      "type": "function"
    },
    {
      "inputs": [],
      "name": "getListInvervestPayment",
      "outputs": [
        {
          "components": [
            {
              "internalType": "uint256",
              "name": "id",
              "type": "uint256"
            },
            {
              "internalType": "uint256",
              "name": "number",
              "type": "uint256"
            },
            {
              "internalType": "bool",
              "name": "paid",
              "type": "bool"
            },
            {
              "internalType": "address",
              "name": "contractWrap",
              "type": "address"
            },
            {
              "internalType": "uint256",
              "name": "expireDate",
              "type": "uint256"
            },
            {
              "internalType": "uint256",
              "name": "amount",
              "type": "uint256"
            }
          ],
          "internalType": "struct FundCertificate.IntervestPayment[]",
          "name": "",
          "type": "tuple[]"
        }
      ],
      "stateMutability": "view",
      "type": "function"
    },
    {
      "inputs": [
        {
          "internalType": "uint256",
          "name": "id",
          "type": "uint256"
        }
      ],
      "name": "getListInvervestPaymentTemp",
      "outputs": [
        {
          "components": [
            {
              "internalType": "uint256",
              "name": "id",
              "type": "uint256"
            },
            {
              "internalType": "uint256",
              "name": "number",
              "type": "uint256"
            },
            {
              "internalType": "bool",
              "name": "paid",
              "type": "bool"
            },
            {
              "internalType": "address",
              "name": "contractWrap",
              "type": "address"
            },
            {
              "internalType": "uint256",
              "name": "expireDate",
              "type": "uint256"
            },
            {
              "internalType": "uint256",
              "name": "amount",
              "type": "uint256"
            }
          ],
          "internalType": "struct FundCertificate.IntervestPayment",
          "name": "",
          "type": "tuple"
        }
      ],
      "stateMutability": "view",
      "type": "function"
    },
    {
      "inputs": [
        {
          "internalType": "uint256",
          "name": "id",
          "type": "uint256"
        }
      ],
      "name": "getInvervestPaymentsById",
      "outputs": [
        {
          "components": [
            {
              "internalType": "uint256",
              "name": "id",
              "type": "uint256"
            },
            {
              "internalType": "uint256",
              "name": "number",
              "type": "uint256"
            },
            {
              "internalType": "bool",
              "name": "paid",
              "type": "bool"
            },
            {
              "internalType": "address",
              "name": "contractWrap",
              "type": "address"
            },
            {
              "internalType": "uint256",
              "name": "expireDate",
              "type": "uint256"
            },
            {
              "internalType": "uint256",
              "name": "amount",
              "type": "uint256"
            }
          ],
          "internalType": "struct FundCertificate.IntervestPayment[]",
          "name": "",
          "type": "tuple[]"
        }
      ],
      "stateMutability": "view",
      "type": "function"
    },
    {
      "inputs": [
        {
          "internalType": "uint256",
          "name": "id",
          "type": "uint256"
        }
      ],
      "name": "getInvervestPaymentsTempById",
      "outputs": [
        {
          "components": [
            {
              "internalType": "uint256",
              "name": "id",
              "type": "uint256"
            },
            {
              "internalType": "uint256",
              "name": "number",
              "type": "uint256"
            },
            {
              "internalType": "bool",
              "name": "paid",
              "type": "bool"
            },
            {
              "internalType": "address",
              "name": "contractWrap",
              "type": "address"
            },
            {
              "internalType": "uint256",
              "name": "expireDate",
              "type": "uint256"
            },
            {
              "internalType": "uint256",
              "name": "amount",
              "type": "uint256"
            }
          ],
          "internalType": "struct FundCertificate.IntervestPayment[]",
          "name": "",
          "type": "tuple[]"
        }
      ],
      "stateMutability": "view",
      "type": "function"
    },
    {
      "inputs": [],
      "name": "getTotalSupplyOfId",
      "outputs": [
        {
          "internalType": "uint256",
          "name": "",
          "type": "uint256"
        }
      ],
      "stateMutability": "view",
      "type": "function"
    },
    {
      "inputs": [
        {
          "internalType": "address",
          "name": "_provider",
          "type": "address"
        }
      ],
      "name": "setProvider",
      "outputs": [],
      "stateMutability": "nonpayable",
      "type": "function"
    }
  ],
  "bytecode": "0x60806040526103e8600755600460085560506009553480156200002157600080fd5b50604051620044c5380380620044c58339810160408190526200004491620002a3565b60408051808201909152601a81527f68747470733a2f2f6578616d706c652e636f6d2f746f6b656e2f00000000000060208201526200008c816401000000006200021e810204565b50620000b3620000a464010000000062000230810204565b64010000000062000234810204565b6003805460a060020a60ff0219168155600a8054600160a060020a03948516600160a060020a03199182161790915560408051606080820183526001808352600e6020808501918252603c858701908152600b8054808601825560008281529751908b027f0175b7a638427703f0dbe7bb9bbf987a2551717b34e79f33b5b1008d1fa01db98181019290925594517f0175b7a638427703f0dbe7bb9bbf987a2551717b34e79f33b5b1008d1fa01dba8087019190915592517f0175b7a638427703f0dbe7bb9bbf987a2551717b34e79f33b5b1008d1fa01dbb9586015588518088018a52600f8152601d8186019081526046828c019081528454808a018655858c529251928e0280850193909355905182860155519086015588519687018952601e875260b493870193845260509887019889528154958601825596529351929097029384019190915594519082015590519201919091556005805492909316911617905562000485565b60026200022c8282620003b2565b5050565b3390565b60038054600160a060020a03838116600160a060020a0319831681179093556040519116919082907f8be0079c531659141344cd1fd0a4f28419497f9722a3daafe3b4186f6b6457e090600090a35050565b8051600160a060020a03811681146200029e57600080fd5b919050565b60008060408385031215620002b757600080fd5b620002c28362000286565b9150620002d26020840162000286565b90509250929050565b7f4e487b7100000000000000000000000000000000000000000000000000000000600052604160045260246000fd5b6002810460018216806200031f57607f821691505b60208210810362000359577f4e487b7100000000000000000000000000000000000000000000000000000000600052602260045260246000fd5b50919050565b601f821115620003ad576000818152602081206020601f86010481016020861015620003885750805b6020601f860104820191505b81811015620003a95782815560010162000394565b5050505b505050565b815167ffffffffffffffff811115620003cf57620003cf620002db565b620003e781620003e084546200030a565b846200035f565b602080601f831160018114620004235760008415620004065750858301515b60028086026008870290910a6000190419821617865550620003a9565b600085815260208120601f198616915b82811015620004545788860151825594840194600190910190840162000433565b50858210156200047557878501516008601f88160260020a60001904191681555b5050505050600202600101905550565b61403080620004956000396000f3fe608060405234801561001057600080fd5b506004361061026c5760003560e060020a900480638456cb5911610155578063ce5ed531116100c7578063e117d62a1161008b578063e117d62a146105f1578063e985e9c514610604578063f242432a14610640578063f2fde38b14610653578063f421764814610666578063f5298aca1461067957600080fd5b8063ce5ed5311461059d578063cfd8d6c0146105a5578063d021b59b146105b8578063d41c3a65146105c0578063d8016d94146105d157600080fd5b8063ab609b5811610119578063ab609b58146104c4578063b2c710cc14610523578063b655d0c414610536578063bd85b0391461053e578063c683630d1461055e578063cb14a2a61461058a57600080fd5b80638456cb59146104695780638c514859146104715780638da5cb5b146104795780639fc8c2251461049e578063a22cb465146104b157600080fd5b80632b6a4371116101ee5780634f558e79116101b25780634f558e79146103e15780635c975abb14610403578063674f7f1c146104265780636a326ab11461043b5780636b20c4541461044e578063715018a61461046157600080fd5b80632b6a43711461038b5780632eb2c2d61461039e5780633f4ba83a146103b1578063444ea825146103b95780634e1273f4146103c157600080fd5b80631241ee42116102355780631241ee421461030f5780631caaa487146103225780631d08837b146103525780632324521614610365578063275c5bb21461037857600080fd5b8062fdd58e1461027157806301ffc9a71461029757806302fe5305146102ba5780630a9348fe146102cf5780630e89341c146102ef575b600080fd5b61028461027f366004613174565b61068c565b6040519081526020015b60405180910390f35b6102aa6102a53660046131b6565b61073b565b604051901515815260200161028e565b6102cd6102c836600461327e565b6107d6565b005b6102e26102dd3660046132c7565b6107ea565b60405161028e9190613325565b6103026102fd3660046132c7565b6108a2565b60405161028e91906133c3565b6102cd61031d3660046133d6565b610936565b6103356103303660046132c7565b610cee565b60408051928352600160a060020a0390911660208301520161028e565b6102cd6103603660046132c7565b610d25565b6102cd61037336600461341a565b610d32565b6102e26103863660046132c7565b610da8565b6102cd61039936600461348e565b610e4b565b6102cd6103ac366004613562565b611057565b6102cd6110a6565b6102846110b8565b6103d46103cf366004613610565b6110c8565b60405161028e9190613715565b6102aa6103ef3660046132c7565b600090815260046020526040902054151590565b60035474010000000000000000000000000000000000000000900460ff166102aa565b61042e611209565b60405161028e9190613728565b6102cd610449366004613781565b611286565b6102cd61045c36600461379e565b6112bd565b6102cd611303565b6102cd611315565b600954610284565b600354600160a060020a03165b604051600160a060020a03909116815260200161028e565b6102cd6104ac366004613814565b611325565b6102cd6104bf366004613885565b6113b2565b6104d76104d23660046132c7565b6113c1565b60405161028e9190600060c082019050825182526020830151602083015260408301516040830152606083015160608301526080830151608083015260a083015160a083015292915050565b6102cd6105313660046132c7565b611453565b600754610284565b61028461054c3660046132c7565b60009081526004602052604090205490565b6102aa61056c366004613781565b600160a060020a03166000908152600d602052604090205460ff1690565b6102846105983660046132c7565b611460565b600854610284565b6102cd6105b3366004613781565b611538565b6102e261156f565b600a54600160a060020a0316610486565b6105e46105df3660046132c7565b61170b565b60405161028e91906138be565b6102cd6105ff36600461348e565b6118a3565b6102aa6106123660046138cc565b600160a060020a03918216600090815260016020908152604080832093909416825291909152205460ff1690565b6102cd61064e3660046138fa565b611a89565b6102cd610661366004613781565b611ad1565b6102cd61067436600461341a565b611b61565b6102cd610687366004613963565b611bdb565b6000600160a060020a0383166107125760405160e560020a62461bcd02815260206004820152602a60248201527f455243313135353a2061646472657373207a65726f206973206e6f742061207660448201527f616c6964206f776e65720000000000000000000000000000000000000000000060648201526084015b60405180910390fd5b50600081815260208181526040808320600160a060020a03861684529091529020545b92915050565b6000600160e060020a031982167fd9b67a2600000000000000000000000000000000000000000000000000000000148061079e5750600160e060020a031982167f0e89341c00000000000000000000000000000000000000000000000000000000145b8061073557507f01ffc9a700000000000000000000000000000000000000000000000000000000600160e060020a0319831614610735565b6107de611c21565b6107e781611c7e565b50565b606060106000838152602001908152602001600020805480602002602001604051908101604052809291908181526020016000905b828210156108975760008481526020908190206040805160c081018252600586029092018054835260018082015484860152600282015460ff8116151593850193909352610100909204600160a060020a03166060840152600381015460808401526004015460a0830152908352909201910161081f565b505050509050919050565b6060600280546108b190613998565b80601f01602080910402602001604051908101604052809291908181526020018280546108dd90613998565b801561092a5780601f106108ff5761010080835404028352916020019161092a565b820191906000526020600020905b81548152906001019060200180831161090d57829003601f168201915b50505050509050919050565b336000818152600d602052604090205460ff16806109615750600354600160a060020a038281169116145b6109b05760405160e560020a62461bcd02815260206004820152601960248201527f75736572206d75737420626520696e2077686974656c697374000000000000006044820152606401610709565b8480421115610a2a5760405160e560020a62461bcd02815260206004820152602f60248201527f69737375652064617465206d7573742062652067726561746572207468616e2060448201527f6f7220657175616c20746f206e6f7700000000000000000000000000000000006064820152608401610709565b6000610a3560065490565b9050610a5233828860405180602001604052806000815250611c8a565b610a8b6040518060c001604052806000815260200160008152602001600081526020016000815260200160008152602001600081525090565b81815260408101889052600854610aa4906107086139ee565b610aae9089613a05565b6060820190815260808201878152602080840188815260a085018b81526000878152600e9093526040928390208651815591516001830155918501516002820155925160038401559051600483015551600591820155548990600160a060020a031663d5fc2ae733853085610b24600a8f613a18565b60405163ffffffff871660e060020a028152600160a060020a039586166004820152602481019490945291841660448401529092166064820152608481019190915260a401600060405180830381600087803b158015610b8357600080fd5b505af1158015610b97573d6000803e3d6000fd5b50506005546040517faefa7d980000000000000000000000000000000000000000000000000000000081526004810187905260009350600160a060020a03909116915063aefa7d9890602401602060405180830381865afa158015610c00573d6000803e3d6000fd5b505050506040513d601f19601f82011682018060405250810190610c249190613a3d565b9050610c3384898c8a85611dcc565b60408051808201909152848152600160a060020a038c811660208301908152600c80546001808201835560009290925293517fdf6966c971051c3d54ec59162606531493a51404a002842f56009d7e5cf4a8c760029095029485015590517fdf6966c971051c3d54ec59162606531493a51404a002842f56009d7e5cf4a8c8909301805473ffffffffffffffffffffffffffffffffffffffff1916939092169290921790556006805490910190555050505050505050505050565b600c8181548110610cfe57600080fd5b600091825260209091206002909102018054600190910154909150600160a060020a031682565b610d2d611c21565b600755565b610d3a611c21565b60005b81811015610da357600d6000848484818110610d5b57610d5b613a5a565b9050602002016020810190610d709190613781565b600160a060020a031681526020810191909152604001600020805460ff1916905580610d9b81613a73565b915050610d3d565b505050565b6000818152600f602090815260408083208054825181850281018501909352808352606094929391929091840182156108975760008481526020908190206040805160c081018252600586029092018054835260018082015484860152600282015460ff8116151593850193909352610100909204600160a060020a03166060840152600381015460808401526004015460a0830152908352909201910161081f565b6005546040517faefa7d9800000000000000000000000000000000000000000000000000000000815260048101849052600091600160a060020a03169063aefa7d9890602401602060405180830381865afa158015610eae573d6000803e3d6000fd5b505050506040513d601f19601f82011682018060405250810190610ed29190613a3d565b905060005b600084815260106020526040902054811015611051576000848152601060205260408120805483908110610f0d57610f0d613a5a565b60009182526020918290206040805160c081018252600593909302909101805483526001810154938301849052600281015460ff8116151592840192909252610100909104600160a060020a03166060830152600381015460808301526004015460a0820152915084900361103e57806040015115610fd15760405160e560020a62461bcd02815260206004820152601060248201527f696e766f696365207761732070616964000000000000000000000000000000006044820152606401610709565b60a0810151600a54610ff291600160a060020a039091169033908690611f8a565b60008581526010602052604090208054600191908490811061101657611016613a5a565b60009182526020909120600590910201600201805460ff191691151591909117905550611051565b508061104981613a73565b915050610ed7565b50505050565b600160a060020a03851633148061107357506110738533610612565b6110925760405160e560020a62461bcd02815260040161070990613a8c565b61109f8585858585612012565b5050505050565b6110ae611c21565b6110b66121c5565b565b60006110c360065490565b905090565b606081518351146111445760405160e560020a62461bcd02815260206004820152602960248201527f455243313135353a206163636f756e747320616e6420696473206c656e67746860448201527f206d69736d6174636800000000000000000000000000000000000000000000006064820152608401610709565b6000835167ffffffffffffffff811115611160576111606131da565b604051908082528060200260200182016040528015611189578160200160208202803683370190505b50905060005b8451811015611201576111d48582815181106111ad576111ad613a5a565b60200260200101518583815181106111c7576111c7613a5a565b602002602001015161068c565b8282815181106111e6576111e6613a5a565b60209081029190910101526111fa81613a73565b905061118f565b509392505050565b6060600b805480602002602001604051908101604052809291908181526020016000905b8282101561127d578382906000526020600020906003020160405180606001604052908160008201548152602001600182015481526020016002820154815250508152602001906001019061122d565b50505050905090565b61128e611c21565b600a805473ffffffffffffffffffffffffffffffffffffffff1916600160a060020a0392909216919091179055565b600160a060020a0383163314806112d957506112d98333610612565b6112f85760405160e560020a62461bcd02815260040161070990613a8c565b610da383838361222b565b61130b611c21565b6110b660006123d0565b61131d611c21565b6110b661242f565b61132d611c21565b611339600b6000612fb4565b60005b81811015610da357600b83838381811061135857611358613a5a565b83546001810185556000948552602090942060609091029290920192600302909101905061139d82828135815560208201356001820155604082013560028201555050565b505080806113aa90613a73565b91505061133c565b6113bd338383612494565b5050565b6113fa6040518060c001604052806000815260200160008152602001600081526020016000815260200160008152602001600081525090565b506000908152600e6020908152604091829020825160c08101845281548152600182015492810192909252600281015492820192909252600382015460608201526004820154608082015260059091015460a082015290565b61145b611c21565b600855565b6000805b600b5481101561150a57600b818154811061148157611481613a5a565b90600052602060002090600302016000015483101580156114c65750600b81815481106114b0576114b0613a5a565b9060005260206000209060030201600101548311155b156114f857600b81815481106114de576114de613a5a565b906000526020600020906003020160020154915050919050565b8061150281613a73565b915050611464565b50600b60008154811061151f5761151f613a5a565b9060005260206000209060030201600201549050919050565b611540611c21565b6005805473ffffffffffffffffffffffffffffffffffffffff1916600160a060020a0392909216919091179055565b6060600061157b6110b8565b905060008167ffffffffffffffff811115611598576115986131da565b6040519080825280602002602001820160405280156115d157816020015b6115be612fd5565b8152602001906001900390816115b65790505b50905060005b828110156117045760005b6000828152600f60205260409020548110156116f1576000828152600f6020526040902080548290811061161857611618613a5a565b600091825260209091206002600590920201015460ff166116df576000828152600f6020526040902080548290811061165357611653613a5a565b60009182526020918290206040805160c081018252600590930290910180548352600181015493830193909352600283015460ff8116151591830191909152600160a060020a036101009091041660608201526003820154608082015260049091015460a082015283518490849081106116cf576116cf613a5a565b60200260200101819052506116f1565b806116e981613a73565b9150506115e2565b50806116fc81613a73565b9150506115d7565b5092915050565b611713612fd5565b60005b60008381526010602052604090205481101561180857600083815260106020526040902080548290811061174c5761174c613a5a565b600091825260209091206002600590920201015460ff166117f657600083815260106020526040902080548290811061178757611787613a5a565b60009182526020918290206040805160c081018252600590930290910180548352600181015493830193909352600283015460ff8116151591830191909152600160a060020a036101009091041660608201526003820154608082015260049091015460a08201529392505050565b8061180081613a73565b915050611716565b506000828152601060205260409020805461182590600190613ae9565b8154811061183557611835613a5a565b60009182526020918290206040805160c081018252600590930290910180548352600181015493830193909352600283015460ff8116151591830191909152600160a060020a036101009091041660608201526003820154608082015260049091015460a082015292915050565b6118ab611c21565b6005546040517faefa7d9800000000000000000000000000000000000000000000000000000000815260048101849052600091600160a060020a03169063aefa7d9890602401602060405180830381865afa15801561190e573d6000803e3d6000fd5b505050506040513d601f19601f820116820180604052508101906119329190613a3d565b905060005b6000848152600f6020526040902054811015611051576000848152600f6020526040812080548390811061196d5761196d613a5a565b60009182526020918290206040805160c081018252600593909302909101805483526001810154938301849052600281015460ff8116151592840192909252610100909104600160a060020a03166060830152600381015460808301526004015460a08201529150849003611a7657806040015115611a315760405160e560020a62461bcd02815260206004820152601060248201527f696e766f696365207761732070616964000000000000000000000000000000006044820152606401610709565b60a0810151600a54611a5291600160a060020a039091169033908690611f8a565b6000858152600f602052604090208054600191908490811061101657611016613a5a565b5080611a8181613a73565b915050611937565b600160a060020a038516331480611aa55750611aa58533610612565b611ac45760405160e560020a62461bcd02815260040161070990613a8c565b61109f858585858561258b565b611ad9611c21565b600160a060020a038116611b585760405160e560020a62461bcd02815260206004820152602660248201527f4f776e61626c653a206e6577206f776e657220697320746865207a65726f206160448201527f64647265737300000000000000000000000000000000000000000000000000006064820152608401610709565b6107e7816123d0565b611b69611c21565b60005b81811015610da3576001600d6000858585818110611b8c57611b8c613a5a565b9050602002016020810190611ba19190613781565b600160a060020a031681526020810191909152604001600020805460ff191691151591909117905580611bd381613a73565b915050611b6c565b600160a060020a038316331480611bf75750611bf78333610612565b611c165760405160e560020a62461bcd02815260040161070990613a8c565b610da38383836126be565b600354600160a060020a031633146110b65760405160e560020a62461bcd02815260206004820181905260248201527f4f776e61626c653a2063616c6c6572206973206e6f7420746865206f776e65726044820152606401610709565b60026113bd8282613b42565b600160a060020a038416611d095760405160e560020a62461bcd02815260206004820152602160248201527f455243313135353a206d696e7420746f20746865207a65726f2061646472657360448201527f73000000000000000000000000000000000000000000000000000000000000006064820152608401610709565b336000611d15856127dc565b90506000611d22856127dc565b9050611d3383600089858589612827565b600086815260208181526040808320600160a060020a038b16845290915281208054879290611d63908490613a05565b90915550506040805187815260208101879052600160a060020a03808a1692600092918716917fc3d58168c5ae7397731d063d5bbf3d657854427343f4c083240f7aacaa2d0f62910160405180910390a4611dc38360008989898961283d565b50505050505050565b600061016d8560075460095486600a611de591906139ee565b611def91906139ee565b611df99190613a18565b611e0391906139ee565b611e0d9190613a18565b90506000849050600086600854601e611e2691906139ee565b611e309190613a18565b905060005b81811015611f5957611e4888603c6139ee565b611e529084613a05565b925060006040518060c001604052808b815260200183815260200160001515815260200187600160a060020a03168152602001858152602001868152509050600f60008b8152602001908152602001600020819080600181540180825580915050600190039060005260206000209060050201600090919091909150600082015181600001556020820151816001015560408201518160020160006101000a81548160ff02191690831515021790555060608201518160020160016101000a815481600160a060020a030219169083600160a060020a031602179055506080820151816003015560a082015181600401555050508080611f5190613a73565b915050611e35565b506000888152600f6020908152604080832060109092529091208154611f7f9290613016565b505050505050505050565b60408051600160a060020a0385811660248301528416604482015260648082018490528251808303909101815260849091019091526020810180517bffffffffffffffffffffffffffffffffffffffffffffffffffffffff167f23b872dd000000000000000000000000000000000000000000000000000000001790526110519085906129dc565b81518351146120365760405160e560020a62461bcd02815260040161070990613c08565b600160a060020a03841661205f5760405160e560020a62461bcd02815260040161070990613c65565b3361206e818787878787612827565b60005b845181101561215757600085828151811061208e5761208e613a5a565b6020026020010151905060008583815181106120ac576120ac613a5a565b60209081029190910181015160008481528083526040808220600160a060020a038e1683529093529190912054909150818110156120ff5760405160e560020a62461bcd02815260040161070990613cc2565b600083815260208181526040808320600160a060020a038e8116855292528083208585039055908b1682528120805484929061213c908490613a05565b925050819055505050508061215090613a73565b9050612071565b5084600160a060020a031686600160a060020a031682600160a060020a03167f4a39dc06d4c0dbc64b70af90fd698a233a518aa5d07e595d983b8c0526c8f7fb87876040516121a7929190613d1f565b60405180910390a46121bd818787878787612ac4565b505050505050565b6121cd612bb4565b6003805474ff0000000000000000000000000000000000000000191690557f5db9ee0a495bf2e6ff9c91a7834c1ba4fdd244a5e8aa4e537bd38aeae4b073aa335b604051600160a060020a03909116815260200160405180910390a1565b600160a060020a0383166122545760405160e560020a62461bcd02815260040161070990613d4d565b80518251146122785760405160e560020a62461bcd02815260040161070990613c08565b600033905061229b81856000868660405180602001604052806000815250612827565b60005b83518110156123635760008482815181106122bb576122bb613a5a565b6020026020010151905060008483815181106122d9576122d9613a5a565b60209081029190910181015160008481528083526040808220600160a060020a038c16835290935291909120549091508181101561232c5760405160e560020a62461bcd02815260040161070990613daa565b600092835260208381526040808520600160a060020a038b168652909152909220910390558061235b81613a73565b91505061229e565b506000600160a060020a031684600160a060020a031682600160a060020a03167f4a39dc06d4c0dbc64b70af90fd698a233a518aa5d07e595d983b8c0526c8f7fb86866040516123b4929190613d1f565b60405180910390a4604080516020810190915260009052611051565b60038054600160a060020a0383811673ffffffffffffffffffffffffffffffffffffffff19831681179093556040519116919082907f8be0079c531659141344cd1fd0a4f28419497f9722a3daafe3b4186f6b6457e090600090a35050565b612437612c21565b6003805474ff00000000000000000000000000000000000000001916740100000000000000000000000000000000000000001790557f62e78cea01bee320cd4e420270b5ea74000d11b0c9f74754ebdbfc544b05a25861220e3390565b81600160a060020a031683600160a060020a03160361251e5760405160e560020a62461bcd02815260206004820152602960248201527f455243313135353a2073657474696e6720617070726f76616c2073746174757360448201527f20666f722073656c6600000000000000000000000000000000000000000000006064820152608401610709565b600160a060020a03838116600081815260016020908152604080832094871680845294825291829020805460ff191686151590811790915591519182527f17307eab39ab6107e8899845ad3d59bd9653f200f220920489ca2b5937696c31910160405180910390a3505050565b600160a060020a0384166125b45760405160e560020a62461bcd02815260040161070990613c65565b3360006125c0856127dc565b905060006125cd856127dc565b90506125dd838989858589612827565b600086815260208181526040808320600160a060020a038c168452909152902054858110156126215760405160e560020a62461bcd02815260040161070990613cc2565b600087815260208181526040808320600160a060020a038d8116855292528083208985039055908a1682528120805488929061265e908490613a05565b90915550506040805188815260208101889052600160a060020a03808b16928c821692918816917fc3d58168c5ae7397731d063d5bbf3d657854427343f4c083240f7aacaa2d0f62910160405180910390a4611f7f848a8a8a8a8a61283d565b600160a060020a0383166126e75760405160e560020a62461bcd02815260040161070990613d4d565b3360006126f3846127dc565b90506000612700846127dc565b905061272083876000858560405180602001604052806000815250612827565b600085815260208181526040808320600160a060020a038a168452909152902054848110156127645760405160e560020a62461bcd02815260040161070990613daa565b600086815260208181526040808320600160a060020a038b81168086529184528285208a8703905582518b81529384018a90529092908816917fc3d58168c5ae7397731d063d5bbf3d657854427343f4c083240f7aacaa2d0f62910160405180910390a4604080516020810190915260009052611dc3565b6040805160018082528183019092526060916000919060208083019080368337019050509050828160008151811061281657612816613a5a565b602090810291909101015292915050565b61282f612c21565b6121bd868686868686612c8f565b600160a060020a0384163b156121bd576040517ff23a6e61000000000000000000000000000000000000000000000000000000008152600160a060020a0385169063f23a6e619061289a9089908990889088908890600401613e07565b6020604051808303816000875af19250505080156128d5575060408051601f3d908101601f191682019092526128d291810190613e3f565b60015b612990576128e1613e5c565b806308c379a00361291d57506128f5613e7c565b80612900575061291f565b8060405160e560020a62461bcd02815260040161070991906133c3565b505b60405160e560020a62461bcd02815260206004820152603460248201527f455243313135353a207472616e7366657220746f206e6f6e2d4552433131353560448201527f526563656976657220696d706c656d656e7465720000000000000000000000006064820152608401610709565b600160e060020a031981167ff23a6e610000000000000000000000000000000000000000000000000000000014611dc35760405160e560020a62461bcd02815260040161070990613f06565b6000612a31826040518060400160405280602081526020017f5361666545524332303a206c6f772d6c6576656c2063616c6c206661696c656481525085600160a060020a0316612e209092919063ffffffff16565b805190915015610da35780806020019051810190612a4f9190613f63565b610da35760405160e560020a62461bcd02815260206004820152602a60248201527f5361666545524332303a204552433230206f7065726174696f6e20646964206e60448201527f6f742073756363656564000000000000000000000000000000000000000000006064820152608401610709565b600160a060020a0384163b156121bd576040517fbc197c81000000000000000000000000000000000000000000000000000000008152600160a060020a0385169063bc197c8190612b219089908990889088908890600401613f80565b6020604051808303816000875af1925050508015612b5c575060408051601f3d908101601f19168201909252612b5991810190613e3f565b60015b612b68576128e1613e5c565b600160e060020a031981167fbc197c810000000000000000000000000000000000000000000000000000000014611dc35760405160e560020a62461bcd02815260040161070990613f06565b60035474010000000000000000000000000000000000000000900460ff166110b65760405160e560020a62461bcd02815260206004820152601460248201527f5061757361626c653a206e6f74207061757365640000000000000000000000006044820152606401610709565b60035474010000000000000000000000000000000000000000900460ff16156110b65760405160e560020a62461bcd02815260206004820152601060248201527f5061757361626c653a20706175736564000000000000000000000000000000006044820152606401610709565b600160a060020a038516612d165760005b8351811015612d1457828181518110612cbb57612cbb613a5a565b602002602001015160046000868481518110612cd957612cd9613a5a565b602002602001015181526020019081526020016000206000828254612cfe9190613a05565b90915550612d0d905081613a73565b9050612ca0565b505b600160a060020a0384166121bd5760005b8351811015611dc3576000848281518110612d4457612d44613a5a565b602002602001015190506000848381518110612d6257612d62613a5a565b6020026020010151905060006004600084815260200190815260200160002054905081811015612dfd5760405160e560020a62461bcd02815260206004820152602860248201527f455243313135353a206275726e20616d6f756e74206578636565647320746f7460448201527f616c537570706c790000000000000000000000000000000000000000000000006064820152608401610709565b60009283526004602052604090922091039055612e1981613a73565b9050612d27565b6060612e2f8484600085612e37565b949350505050565b60603031831115612eb35760405160e560020a62461bcd02815260206004820152602660248201527f416464726573733a20696e73756666696369656e742062616c616e636520666f60448201527f722063616c6c00000000000000000000000000000000000000000000000000006064820152608401610709565b60008086600160a060020a03168587604051612ecf9190613fde565b60006040518083038185875af1925050503d8060008114612f0c576040519150601f19603f3d011682016040523d82523d6000602084013e612f11565b606091505b5091509150612f2287838387612f2d565b979650505050505050565b60608315612f9f578251600003612f9857600160a060020a0385163b612f985760405160e560020a62461bcd02815260206004820152601d60248201527f416464726573733a2063616c6c20746f206e6f6e2d636f6e74726163740000006044820152606401610709565b5081612e2f565b612e2f83838151156129005781518083602001fd5b50805460008255600302906000526020600020908101906107e791906130f4565b6040518060c0016040528060008152602001600081526020016000151581526020016000600160a060020a0316815260200160008152602001600081525090565b8280548282559060005260206000209060050281019282156130e45760005260206000209160050282015b828111156130e457825482556001808401549083015560028084018054918401805460ff909316151560ff198416811782559154600160a060020a0361010091829004160274ffffffffffffffffffffffffffffffffffffffff001990921674ffffffffffffffffffffffffffffffffffffffffff1990931692909217179055600380840154908301556004808401549083015560059283019290910190613041565b506130f0929150613116565b5090565b5b808211156130f05760008082556001820181905560028201556003016130f5565b5b808211156130f05760008082556001820181905560028201805474ffffffffffffffffffffffffffffffffffffffffff19169055600382018190556004820155600501613117565b600160a060020a03811681146107e757600080fd5b6000806040838503121561318757600080fd5b82356131928161315f565b946020939093013593505050565b600160e060020a0319811681146107e757600080fd5b6000602082840312156131c857600080fd5b81356131d3816131a0565b9392505050565b60e060020a634e487b7102600052604160045260246000fd5b601f8201601f1916810167ffffffffffffffff81118282101715613219576132196131da565b6040525050565b600067ffffffffffffffff83111561323a5761323a6131da565b604051613251601f8501601f1916602001826131f3565b80915083815284848401111561326657600080fd5b83836020830137600060208583010152509392505050565b60006020828403121561329057600080fd5b813567ffffffffffffffff8111156132a757600080fd5b8201601f810184136132b857600080fd5b612e2f84823560208401613220565b6000602082840312156132d957600080fd5b5035919050565b8051825260208101516020830152604081015115156040830152600160a060020a0360608201511660608301526080810151608083015260a081015160a08301525050565b6020808252825182820181905260009190848201906040850190845b81811015613367576133548385516132e0565b9284019260c09290920191600101613341565b50909695505050505050565b60005b8381101561338e578181015183820152602001613376565b50506000910152565b600081518084526133af816020860160208601613373565b601f01601f19169290920160200192915050565b6020815260006131d36020830184613397565b600080600080600060a086880312156133ee57600080fd5b85356133f98161315f565b97602087013597506040870135966060810135965060800135945092505050565b6000806020838503121561342d57600080fd5b823567ffffffffffffffff8082111561344557600080fd5b818501915085601f83011261345957600080fd5b81358181111561346857600080fd5b866020808302850101111561347c57600080fd5b60209290920196919550909350505050565b600080604083850312156134a157600080fd5b50508035926020909101359150565b600067ffffffffffffffff8211156134ca576134ca6131da565b5060209081020190565b600082601f8301126134e557600080fd5b813560206134f2826134b0565b6040516134ff82826131f3565b838152928202850182019282810191508684111561351c57600080fd5b8286015b848110156135375780358352918301918301613520565b509695505050505050565b600082601f83011261355357600080fd5b6131d383833560208501613220565b600080600080600060a0868803121561357a57600080fd5b85356135858161315f565b945060208601356135958161315f565b9350604086013567ffffffffffffffff808211156135b257600080fd5b6135be89838a016134d4565b945060608801359150808211156135d457600080fd5b6135e089838a016134d4565b935060808801359150808211156135f657600080fd5b5061360388828901613542565b9150509295509295909350565b6000806040838503121561362357600080fd5b823567ffffffffffffffff8082111561363b57600080fd5b818501915085601f83011261364f57600080fd5b8135602061365c826134b0565b60405161366982826131f3565b838152928202850182019282810191508984111561368657600080fd5b948201945b838610156136ad57853561369e8161315f565b8252948201949082019061368b565b965050860135925050808211156136c357600080fd5b506136d0858286016134d4565b9150509250929050565b600081518084526020808501945080840160005b8381101561370a578151875295820195908201906001016136ee565b509495945050505050565b6020815260006131d360208301846136da565b602080825282518282018190526000919060409081850190868401855b828110156137745781518051855286810151878601528501518585015260609093019290850190600101613745565b5091979650505050505050565b60006020828403121561379357600080fd5b81356131d38161315f565b6000806000606084860312156137b357600080fd5b83356137be8161315f565b9250602084013567ffffffffffffffff808211156137db57600080fd5b6137e7878388016134d4565b935060408601359150808211156137fd57600080fd5b5061380a868287016134d4565b9150509250925092565b6000806020838503121561382757600080fd5b823567ffffffffffffffff8082111561383f57600080fd5b818501915085601f83011261385357600080fd5b81358181111561386257600080fd5b86602060608302850101111561347c57600080fd5b80151581146107e757600080fd5b6000806040838503121561389857600080fd5b82356138a38161315f565b915060208301356138b381613877565b809150509250929050565b60c0810161073582846132e0565b600080604083850312156138df57600080fd5b82356138ea8161315f565b915060208301356138b38161315f565b600080600080600060a0868803121561391257600080fd5b853561391d8161315f565b9450602086013561392d8161315f565b93506040860135925060608601359150608086013567ffffffffffffffff81111561395757600080fd5b61360388828901613542565b60008060006060848603121561397857600080fd5b83356139838161315f565b95602085013595506040909401359392505050565b6002810460018216806139ac57607f821691505b6020821081036139cf5760e060020a634e487b7102600052602260045260246000fd5b50919050565b60e060020a634e487b7102600052601160045260246000fd5b8082028115828204841417610735576107356139d5565b80820180821115610735576107356139d5565b600082613a385760e060020a634e487b7102600052601260045260246000fd5b500490565b600060208284031215613a4f57600080fd5b81516131d38161315f565b60e060020a634e487b7102600052603260045260246000fd5b600060018201613a8557613a856139d5565b5060010190565b6020808252602e908201527f455243313135353a2063616c6c6572206973206e6f7420746f6b656e206f776e60408201527f6572206f7220617070726f766564000000000000000000000000000000000000606082015260800190565b81810381811115610735576107356139d5565b601f821115610da3576000818152602081206020601f86010481016020861015613b235750805b6020601f860104820191505b818110156121bd57828155600101613b2f565b815167ffffffffffffffff811115613b5c57613b5c6131da565b613b7081613b6a8454613998565b84613afc565b602080601f831160018114613ba95760008415613b8d5750858301515b60028086026008870290910a60001904198216178655506121bd565b600085815260208120601f198616915b82811015613bd857888601518255948401946001909101908401613bb9565b5085821015613bf857878501516008601f88160260020a60001904191681555b5050505050600202600101905550565b60208082526028908201527f455243313135353a2069647320616e6420616d6f756e7473206c656e6774682060408201527f6d69736d61746368000000000000000000000000000000000000000000000000606082015260800190565b60208082526025908201527f455243313135353a207472616e7366657220746f20746865207a65726f20616460408201527f6472657373000000000000000000000000000000000000000000000000000000606082015260800190565b6020808252602a908201527f455243313135353a20696e73756666696369656e742062616c616e636520666f60408201527f72207472616e7366657200000000000000000000000000000000000000000000606082015260800190565b604081526000613d3260408301856136da565b8281036020840152613d4481856136da565b95945050505050565b60208082526023908201527f455243313135353a206275726e2066726f6d20746865207a65726f206164647260408201527f6573730000000000000000000000000000000000000000000000000000000000606082015260800190565b60208082526024908201527f455243313135353a206275726e20616d6f756e7420657863656564732062616c60408201527f616e636500000000000000000000000000000000000000000000000000000000606082015260800190565b6000600160a060020a03808816835280871660208401525084604083015283606083015260a06080830152612f2260a0830184613397565b600060208284031215613e5157600080fd5b81516131d3816131a0565b600060033d1115613e795760046000803e60e060020a6000510490505b90565b600060443d1015613e8a5790565b6040516003193d81016004833e81513d67ffffffffffffffff8160248401118184111715613eba57505050505090565b8285019150815181811115613ed25750505050505090565b843d8701016020828501011115613eec5750505050505090565b613efb602082860101876131f3565b509095945050505050565b60208082526028908201527f455243313135353a204552433131353552656365697665722072656a6563746560408201527f6420746f6b656e73000000000000000000000000000000000000000000000000606082015260800190565b600060208284031215613f7557600080fd5b81516131d381613877565b6000600160a060020a03808816835280871660208401525060a06040830152613fac60a08301866136da565b8281036060840152613fbe81866136da565b90508281036080840152613fd28185613397565b98975050505050505050565b60008251613ff0818460208701613373565b919091019291505056fea2646970667358221220ee465b5b585581c02a7adcd37321dbd9908038abf66c0a9d0108227ed3bf212264736f6c63430008130033",
  "immutableReferences": {},
  "source": "// SPDX-License-Identifier: MIT\npragma solidity ^0.8.9;\n\nimport \"@openzeppelin/contracts/token/ERC1155/ERC1155.sol\";\nimport \"@openzeppelin/contracts/access/Ownable.sol\";\nimport \"@openzeppelin/contracts/security/Pausable.sol\";\nimport \"@openzeppelin/contracts/token/ERC1155/extensions/ERC1155Burnable.sol\";\nimport \"@openzeppelin/contracts/token/ERC1155/extensions/ERC1155Supply.sol\";\nimport \"@openzeppelin/contracts/utils/Counters.sol\";\nimport \"@openzeppelin/contracts/token/ERC20/IERC20.sol\";\nimport \"@openzeppelin/contracts/token/ERC20/utils/SafeERC20.sol\";\nimport \"@openzeppelin/contracts/utils/structs/EnumerableMap.sol\";\n\ninterface FundCertProvider {\n    function createContract(address owner, uint256 tokenId, address contractFC, address publisher, uint256 amount) external;\n    function getContractAddress(uint256 tokenId) external view returns(address);\n}\ninterface FundCertWrap {\n    function wrap() external;\n}\ncontract FundCertificate is ERC1155, Ownable, Pausable, ERC1155Burnable, ERC1155Supply{\n    using SafeERC20 for IERC20;\n    using Counters for Counters.Counter;\n    using EnumerableMap for EnumerableMap.UintToAddressMap;\n    using EnumerableMap for EnumerableMap.UintToUintMap;\n    FundCertProvider fundCertProvider;\n    Counters.Counter private _issueIdCounter;\n\n    uint256 baseRate = 1000;\n    uint256 redeemTime = 4;\n    uint256 intervestTermRate = 80; \n    address paymentToken;\n\n    struct InterestRate {\n        uint256 from;\n        uint256 to;\n        uint256 rate;\n    }\n\n    struct FundCert {\n        uint256 id;\n        uint256 price;\n        uint256 issueDate;\n        uint256 expireDate;\n        uint256 intervestTerm;\n        uint256 totalSupply;\n    }\n\n    struct TokenOwner {\n        uint256 id;\n        address publisher;\n    }\n\n    struct IntervestPayment {\n        uint256 id;\n        uint256 number;\n        bool paid;\n        address contractWrap;\n        uint256 expireDate;\n        uint256 amount;\n    }\n\n    InterestRate[] interestRates;\n    TokenOwner[] public tokenOwner;\n\n    mapping(address => bool) whitelists;\n    mapping(uint256 => FundCert) issueCert;\n    mapping(uint256 => IntervestPayment[]) intervestPaymentMap;\n    mapping(uint256 => IntervestPayment[]) intervestPaymentMapTemp;\n\n    modifier onlyInWhitelist(address _issuer){\n        require(whitelists[_issuer] || _issuer == owner(), \"user must be in whitelist\");\n        _;\n    }\n     \n    modifier validIssueDate(uint256 _issueDate){\n        require(block.timestamp  <= _issueDate, \"issue date must be greater than or equal to now\");\n        _;\n    }\n    \n    constructor(address _paymentToken, address _provider) ERC1155(\"https://example.com/token/\") {\n        paymentToken = _paymentToken;\n        interestRates.push(InterestRate(1, 14, 60));\n        interestRates.push(InterestRate(15, 29, 70));\n        interestRates.push(InterestRate(30, 180, 80));\n        fundCertProvider = FundCertProvider(_provider);\n    }\n\n    function setURI(string memory newuri) public onlyOwner {\n        _setURI(newuri);\n    }\n\n    function pause() public onlyOwner {\n        _pause();\n    }\n\n    function unpause() public onlyOwner {\n        _unpause();\n    }\n\n    function issue(\n        address account, \n        uint256 issueDate, \n        uint256 totalSuply, \n        uint256 intervestTerm, \n        uint256 price)\n        public\n        onlyInWhitelist(msg.sender)\n        validIssueDate(issueDate)\n    {   \n\n        uint256 id = _issueIdCounter.current();\n        _mint(msg.sender, id, totalSuply, \"\");\n\n        // set nft infor\n        FundCert memory fundCertInfo;\n        fundCertInfo.id = id;\n        fundCertInfo.issueDate = issueDate;\n        fundCertInfo.expireDate = issueDate + redeemTime * 30 minutes;\n        fundCertInfo.intervestTerm = intervestTerm;\n        fundCertInfo.price = price;\n        fundCertInfo.totalSupply = totalSuply;\n        issueCert[id] = fundCertInfo;\n\n        // wrap NFT\n        address _publisherAddress = account;\n        fundCertProvider.createContract(msg.sender, id, address(this), _publisherAddress, totalSuply/10);\n        address fcWrap = fundCertProvider.getContractAddress(id);\n\n        // set invervest term\n        calculateIntervestByTerm(id, intervestTerm, issueDate, price, fcWrap);\n\n        tokenOwner.push(TokenOwner(id, account));\n        _issueIdCounter.increment();\n\n    }\n\n    function calculateIntervestByTerm(uint256 id, uint256 intervestTerm, uint256 issueDate, uint256 price, address fcWrap) internal {\n        uint256 vestingAmount = (((price * 10 * intervestTermRate)/baseRate)*intervestTerm)/365;\n        uint256 vestingTime = issueDate;\n\n        uint256 totalTerm = (redeemTime * 30)/intervestTerm;\n        for (uint256 index = 0; index < totalTerm; index++) {\n            vestingTime += (intervestTerm * 1 minutes);\n            IntervestPayment memory _intervestPayment = IntervestPayment(id, index, false, fcWrap, vestingTime, vestingAmount);\n            intervestPaymentMap[id].push(_intervestPayment);\n        }\n\n        intervestPaymentMapTemp[id] = intervestPaymentMap[id];\n    }\n\n    function payIntervest(uint256 tokenId, uint256 invoiceNumber) public onlyOwner {\n        address fcWrap = fundCertProvider.getContractAddress(tokenId);\n        for (uint256 index = 0; index < intervestPaymentMap[tokenId].length; index++) {\n            IntervestPayment memory _intervestPayment = intervestPaymentMap[tokenId][index];\n            if(_intervestPayment.number == invoiceNumber){\n                require(!_intervestPayment.paid, \"invoice was paid\");\n                IERC20(paymentToken).safeTransferFrom(msg.sender, fcWrap, _intervestPayment.amount);\n                intervestPaymentMap[tokenId][index].paid = true;\n                break;\n            }\n        }\n    }\n\n    function payIntervestTemp(uint256 tokenId, uint256 invoiceNumber) public {\n        address fcWrap = fundCertProvider.getContractAddress(tokenId);\n        for (uint256 index = 0; index < intervestPaymentMapTemp[tokenId].length; index++) {\n            IntervestPayment memory _intervestPayment = intervestPaymentMapTemp[tokenId][index];\n            if(_intervestPayment.number == invoiceNumber){\n                require(!_intervestPayment.paid, \"invoice was paid\");\n                IERC20(paymentToken).safeTransferFrom(msg.sender, fcWrap, _intervestPayment.amount);\n                intervestPaymentMapTemp[tokenId][index].paid = true;\n                break;\n            }\n        }\n    } \n\n    function getFundCertInfoById(uint256 tokenId) public view virtual returns(FundCert memory){\n        return issueCert[tokenId];\n    }\n\n    function getIntervestTermRate() public view returns(uint256){\n        return intervestTermRate;\n    }\n\n    function getBaseRate() public view returns(uint256){\n        return baseRate;\n    }\n\n    function setBaseRate(uint256 _baseRate) public onlyOwner {\n        baseRate = _baseRate;\n    }\n\n    function getRedeemTime() public view returns(uint256){\n        return redeemTime;\n    }\n\n    function setRedeemTime(uint256 _redeemTime) public onlyOwner{\n        redeemTime = _redeemTime;\n    }\n\n    function getIntervestRate(uint256 holdingTime) public view returns(uint256){\n        for (uint256 index = 0; index < interestRates.length; index++) {\n            if(holdingTime >= interestRates[index].from && holdingTime <= interestRates[index].to){\n                return interestRates[index].rate;\n            }\n        }\n        return interestRates[0].rate;\n    }\n\n    function getInterestRates() public view returns(InterestRate[] memory){\n        return interestRates;\n    }\n\n    function setInterestRates(InterestRate[] calldata _interestRates) public onlyOwner{\n        delete interestRates;\n        for (uint256 index = 0; index < _interestRates.length; index++) {\n            interestRates.push(_interestRates[index]);\n        }\n    }\n       \n    function getPaymentToken() public view returns(address){\n        return paymentToken;\n    }\n\n    function setPaymentToken(address _paymentToken) public onlyOwner {\n        paymentToken = _paymentToken;\n    }\n\n    function isWhitelist(address walletAddress) public view returns(bool){\n        return whitelists[walletAddress];\n    }\n\n    function setWhitelist(address[] calldata _whitelists) public onlyOwner {\n        for (uint256 index = 0; index < _whitelists.length; index++) {\n            whitelists[_whitelists[index]] = true;\n        }\n    }\n\n    function removeWhitelist(address[] calldata _whitelists) public onlyOwner {\n        for (uint256 index = 0; index < _whitelists.length; index++) {\n            delete whitelists[_whitelists[index]];\n        }\n    }\n\n    function getListInvervestPayment() public view returns(IntervestPayment[] memory){\n        uint256 supplys = getTotalSupplyOfId();\n        IntervestPayment[] memory _intervestPayment = new IntervestPayment[](supplys);\n        for (uint256 index = 0; index < supplys; index++) {\n            for (uint256 j = 0; j < intervestPaymentMap[index].length; j++) {\n                if(!intervestPaymentMap[index][j].paid){\n                    _intervestPayment[index] = intervestPaymentMap[index][j];\n                    break;\n                }\n            }\n        }\n        return _intervestPayment;\n    }\n\n    function getListInvervestPaymentTemp(uint256 id) public view returns(IntervestPayment memory){\n        for (uint256 index = 0; index < intervestPaymentMapTemp[id].length; index++) {\n            if(!intervestPaymentMapTemp[id][index].paid){\n                return intervestPaymentMapTemp[id][index];\n            }\n        }\n        return intervestPaymentMapTemp[id][intervestPaymentMapTemp[id].length - 1];\n    }\n\n    function getInvervestPaymentsById(uint256 id) public view returns(IntervestPayment[] memory){\n        return intervestPaymentMap[id];\n    }\n\n    function getInvervestPaymentsTempById(uint256 id) public view returns(IntervestPayment[] memory){\n        return intervestPaymentMapTemp[id];\n    }\n\n    function getTotalSupplyOfId() public view returns(uint256){\n        return _issueIdCounter.current();\n    }\n\n    function setProvider(address _provider) public onlyOwner{\n        fundCertProvider = FundCertProvider(_provider);\n    }\n\n    function _beforeTokenTransfer(address operator, address from, address to, uint256[] memory ids, uint256[] memory amounts, bytes memory data)\n        internal\n        whenNotPaused\n        override(ERC1155, ERC1155Supply)\n    {\n        super._beforeTokenTransfer(operator, from, to, ids, amounts, data);\n    }\n}",
  "sourcePath": "/Users/tannguyen/Documents/GitHub/ccq-nft/contracts/fund-cert-nft.sol",
  "compiler": {
    "name": "solc",
    "version": "0.8.19+commit.7dd6d404.Emscripten.clang"
  },
  "schemaVersion": "3.4.13",
  "updatedAt": "2023-04-04T01:53:33.424Z",
  "devdoc": {
    "events": {
      "ApprovalForAll(address,address,bool)": {
        "details": "Emitted when `account` grants or revokes permission to `operator` to transfer their tokens, according to `approved`."
      },
      "Paused(address)": {
        "details": "Emitted when the pause is triggered by `account`."
      },
      "TransferBatch(address,address,address,uint256[],uint256[])": {
        "details": "Equivalent to multiple {TransferSingle} events, where `operator`, `from` and `to` are the same for all transfers."
      },
      "TransferSingle(address,address,address,uint256,uint256)": {
        "details": "Emitted when `value` tokens of token type `id` are transferred from `from` to `to` by `operator`."
      },
      "URI(string,uint256)": {
        "details": "Emitted when the URI for token type `id` changes to `value`, if it is a non-programmatic URI. If an {URI} event was emitted for `id`, the standard https://eips.ethereum.org/EIPS/eip-1155#metadata-extensions[guarantees] that `value` will equal the value returned by {IERC1155MetadataURI-uri}."
      },
      "Unpaused(address)": {
        "details": "Emitted when the pause is lifted by `account`."
      }
    },
    "kind": "dev",
    "methods": {
      "balanceOf(address,uint256)": {
        "details": "See {IERC1155-balanceOf}. Requirements: - `account` cannot be the zero address."
      },
      "balanceOfBatch(address[],uint256[])": {
        "details": "See {IERC1155-balanceOfBatch}. Requirements: - `accounts` and `ids` must have the same length."
      },
      "exists(uint256)": {
        "details": "Indicates whether any token exist with a given id, or not."
      },
      "isApprovedForAll(address,address)": {
        "details": "See {IERC1155-isApprovedForAll}."
      },
      "owner()": {
        "details": "Returns the address of the current owner."
      },
      "paused()": {
        "details": "Returns true if the contract is paused, and false otherwise."
      },
      "renounceOwnership()": {
        "details": "Leaves the contract without owner. It will not be possible to call `onlyOwner` functions anymore. Can only be called by the current owner. NOTE: Renouncing ownership will leave the contract without an owner, thereby removing any functionality that is only available to the owner."
      },
      "safeBatchTransferFrom(address,address,uint256[],uint256[],bytes)": {
        "details": "See {IERC1155-safeBatchTransferFrom}."
      },
      "safeTransferFrom(address,address,uint256,uint256,bytes)": {
        "details": "See {IERC1155-safeTransferFrom}."
      },
      "setApprovalForAll(address,bool)": {
        "details": "See {IERC1155-setApprovalForAll}."
      },
      "supportsInterface(bytes4)": {
        "details": "See {IERC165-supportsInterface}."
      },
      "totalSupply(uint256)": {
        "details": "Total amount of tokens in with a given id."
      },
      "transferOwnership(address)": {
        "details": "Transfers ownership of the contract to a new account (`newOwner`). Can only be called by the current owner."
      },
      "uri(uint256)": {
        "details": "See {IERC1155MetadataURI-uri}. This implementation returns the same URI for *all* token types. It relies on the token type ID substitution mechanism https://eips.ethereum.org/EIPS/eip-1155#metadata[defined in the EIP]. Clients calling this function must replace the `\\{id\\}` substring with the actual token type ID."
      }
    },
    "version": 1
  },
  "userdoc": {
    "kind": "user",
    "methods": {},
    "version": 1
  }
}