{
  "contractName": "FundCertificate",
  "abi": [
    {
      "inputs": [
        {
          "internalType": "address",
          "name": "_paymentToken",
          "type": "address"
        },
        {
          "internalType": "address",
          "name": "_provider",
          "type": "address"
        }
      ],
      "stateMutability": "nonpayable",
      "type": "constructor"
    },
    {
      "anonymous": false,
      "inputs": [
        {
          "indexed": true,
          "internalType": "address",
          "name": "account",
          "type": "address"
        },
        {
          "indexed": true,
          "internalType": "address",
          "name": "operator",
          "type": "address"
        },
        {
          "indexed": false,
          "internalType": "bool",
          "name": "approved",
          "type": "bool"
        }
      ],
      "name": "ApprovalForAll",
      "type": "event"
    },
    {
      "anonymous": false,
      "inputs": [
        {
          "indexed": true,
          "internalType": "address",
          "name": "previousOwner",
          "type": "address"
        },
        {
          "indexed": true,
          "internalType": "address",
          "name": "newOwner",
          "type": "address"
        }
      ],
      "name": "OwnershipTransferred",
      "type": "event"
    },
    {
      "anonymous": false,
      "inputs": [
        {
          "indexed": false,
          "internalType": "address",
          "name": "account",
          "type": "address"
        }
      ],
      "name": "Paused",
      "type": "event"
    },
    {
      "anonymous": false,
      "inputs": [
        {
          "indexed": true,
          "internalType": "address",
          "name": "operator",
          "type": "address"
        },
        {
          "indexed": true,
          "internalType": "address",
          "name": "from",
          "type": "address"
        },
        {
          "indexed": true,
          "internalType": "address",
          "name": "to",
          "type": "address"
        },
        {
          "indexed": false,
          "internalType": "uint256[]",
          "name": "ids",
          "type": "uint256[]"
        },
        {
          "indexed": false,
          "internalType": "uint256[]",
          "name": "values",
          "type": "uint256[]"
        }
      ],
      "name": "TransferBatch",
      "type": "event"
    },
    {
      "anonymous": false,
      "inputs": [
        {
          "indexed": true,
          "internalType": "address",
          "name": "operator",
          "type": "address"
        },
        {
          "indexed": true,
          "internalType": "address",
          "name": "from",
          "type": "address"
        },
        {
          "indexed": true,
          "internalType": "address",
          "name": "to",
          "type": "address"
        },
        {
          "indexed": false,
          "internalType": "uint256",
          "name": "id",
          "type": "uint256"
        },
        {
          "indexed": false,
          "internalType": "uint256",
          "name": "value",
          "type": "uint256"
        }
      ],
      "name": "TransferSingle",
      "type": "event"
    },
    {
      "anonymous": false,
      "inputs": [
        {
          "indexed": false,
          "internalType": "string",
          "name": "value",
          "type": "string"
        },
        {
          "indexed": true,
          "internalType": "uint256",
          "name": "id",
          "type": "uint256"
        }
      ],
      "name": "URI",
      "type": "event"
    },
    {
      "anonymous": false,
      "inputs": [
        {
          "indexed": false,
          "internalType": "address",
          "name": "account",
          "type": "address"
        }
      ],
      "name": "Unpaused",
      "type": "event"
    },
    {
      "inputs": [
        {
          "internalType": "address",
          "name": "account",
          "type": "address"
        },
        {
          "internalType": "uint256",
          "name": "id",
          "type": "uint256"
        }
      ],
      "name": "balanceOf",
      "outputs": [
        {
          "internalType": "uint256",
          "name": "",
          "type": "uint256"
        }
      ],
      "stateMutability": "view",
      "type": "function"
    },
    {
      "inputs": [
        {
          "internalType": "address[]",
          "name": "accounts",
          "type": "address[]"
        },
        {
          "internalType": "uint256[]",
          "name": "ids",
          "type": "uint256[]"
        }
      ],
      "name": "balanceOfBatch",
      "outputs": [
        {
          "internalType": "uint256[]",
          "name": "",
          "type": "uint256[]"
        }
      ],
      "stateMutability": "view",
      "type": "function"
    },
    {
      "inputs": [
        {
          "internalType": "address",
          "name": "account",
          "type": "address"
        },
        {
          "internalType": "uint256",
          "name": "id",
          "type": "uint256"
        },
        {
          "internalType": "uint256",
          "name": "value",
          "type": "uint256"
        }
      ],
      "name": "burn",
      "outputs": [],
      "stateMutability": "nonpayable",
      "type": "function"
    },
    {
      "inputs": [
        {
          "internalType": "address",
          "name": "account",
          "type": "address"
        },
        {
          "internalType": "uint256[]",
          "name": "ids",
          "type": "uint256[]"
        },
        {
          "internalType": "uint256[]",
          "name": "values",
          "type": "uint256[]"
        }
      ],
      "name": "burnBatch",
      "outputs": [],
      "stateMutability": "nonpayable",
      "type": "function"
    },
    {
      "inputs": [
        {
          "internalType": "uint256",
          "name": "id",
          "type": "uint256"
        }
      ],
      "name": "exists",
      "outputs": [
        {
          "internalType": "bool",
          "name": "",
          "type": "bool"
        }
      ],
      "stateMutability": "view",
      "type": "function"
    },
    {
      "inputs": [
        {
          "internalType": "address",
          "name": "account",
          "type": "address"
        },
        {
          "internalType": "address",
          "name": "operator",
          "type": "address"
        }
      ],
      "name": "isApprovedForAll",
      "outputs": [
        {
          "internalType": "bool",
          "name": "",
          "type": "bool"
        }
      ],
      "stateMutability": "view",
      "type": "function"
    },
    {
      "inputs": [],
      "name": "owner",
      "outputs": [
        {
          "internalType": "address",
          "name": "",
          "type": "address"
        }
      ],
      "stateMutability": "view",
      "type": "function"
    },
    {
      "inputs": [],
      "name": "paused",
      "outputs": [
        {
          "internalType": "bool",
          "name": "",
          "type": "bool"
        }
      ],
      "stateMutability": "view",
      "type": "function"
    },
    {
      "inputs": [],
      "name": "renounceOwnership",
      "outputs": [],
      "stateMutability": "nonpayable",
      "type": "function"
    },
    {
      "inputs": [
        {
          "internalType": "address",
          "name": "from",
          "type": "address"
        },
        {
          "internalType": "address",
          "name": "to",
          "type": "address"
        },
        {
          "internalType": "uint256[]",
          "name": "ids",
          "type": "uint256[]"
        },
        {
          "internalType": "uint256[]",
          "name": "amounts",
          "type": "uint256[]"
        },
        {
          "internalType": "bytes",
          "name": "data",
          "type": "bytes"
        }
      ],
      "name": "safeBatchTransferFrom",
      "outputs": [],
      "stateMutability": "nonpayable",
      "type": "function"
    },
    {
      "inputs": [
        {
          "internalType": "address",
          "name": "from",
          "type": "address"
        },
        {
          "internalType": "address",
          "name": "to",
          "type": "address"
        },
        {
          "internalType": "uint256",
          "name": "id",
          "type": "uint256"
        },
        {
          "internalType": "uint256",
          "name": "amount",
          "type": "uint256"
        },
        {
          "internalType": "bytes",
          "name": "data",
          "type": "bytes"
        }
      ],
      "name": "safeTransferFrom",
      "outputs": [],
      "stateMutability": "nonpayable",
      "type": "function"
    },
    {
      "inputs": [
        {
          "internalType": "address",
          "name": "operator",
          "type": "address"
        },
        {
          "internalType": "bool",
          "name": "approved",
          "type": "bool"
        }
      ],
      "name": "setApprovalForAll",
      "outputs": [],
      "stateMutability": "nonpayable",
      "type": "function"
    },
    {
      "inputs": [
        {
          "internalType": "bytes4",
          "name": "interfaceId",
          "type": "bytes4"
        }
      ],
      "name": "supportsInterface",
      "outputs": [
        {
          "internalType": "bool",
          "name": "",
          "type": "bool"
        }
      ],
      "stateMutability": "view",
      "type": "function"
    },
    {
      "inputs": [
        {
          "internalType": "uint256",
          "name": "",
          "type": "uint256"
        }
      ],
      "name": "tokenOwner",
      "outputs": [
        {
          "internalType": "uint256",
          "name": "id",
          "type": "uint256"
        },
        {
          "internalType": "address",
          "name": "publisher",
          "type": "address"
        }
      ],
      "stateMutability": "view",
      "type": "function"
    },
    {
      "inputs": [
        {
          "internalType": "uint256",
          "name": "id",
          "type": "uint256"
        }
      ],
      "name": "totalSupply",
      "outputs": [
        {
          "internalType": "uint256",
          "name": "",
          "type": "uint256"
        }
      ],
      "stateMutability": "view",
      "type": "function"
    },
    {
      "inputs": [
        {
          "internalType": "address",
          "name": "newOwner",
          "type": "address"
        }
      ],
      "name": "transferOwnership",
      "outputs": [],
      "stateMutability": "nonpayable",
      "type": "function"
    },
    {
      "inputs": [
        {
          "internalType": "uint256",
          "name": "",
          "type": "uint256"
        }
      ],
      "name": "uri",
      "outputs": [
        {
          "internalType": "string",
          "name": "",
          "type": "string"
        }
      ],
      "stateMutability": "view",
      "type": "function"
    },
    {
      "inputs": [
        {
          "internalType": "string",
          "name": "newuri",
          "type": "string"
        }
      ],
      "name": "setURI",
      "outputs": [],
      "stateMutability": "nonpayable",
      "type": "function"
    },
    {
      "inputs": [],
      "name": "pause",
      "outputs": [],
      "stateMutability": "nonpayable",
      "type": "function"
    },
    {
      "inputs": [],
      "name": "unpause",
      "outputs": [],
      "stateMutability": "nonpayable",
      "type": "function"
    },
    {
      "inputs": [
        {
          "internalType": "address",
          "name": "account",
          "type": "address"
        },
        {
          "internalType": "string",
          "name": "name",
          "type": "string"
        },
        {
          "internalType": "uint256",
          "name": "issueDate",
          "type": "uint256"
        },
        {
          "internalType": "uint256",
          "name": "totalSuply",
          "type": "uint256"
        },
        {
          "internalType": "uint256",
          "name": "intervestTerm",
          "type": "uint256"
        },
        {
          "internalType": "uint256",
          "name": "price",
          "type": "uint256"
        }
      ],
      "name": "issue",
      "outputs": [],
      "stateMutability": "nonpayable",
      "type": "function"
    },
    {
      "inputs": [
        {
          "internalType": "uint256",
          "name": "tokenId",
          "type": "uint256"
        },
        {
          "internalType": "uint256",
          "name": "invoiceNumber",
          "type": "uint256"
        }
      ],
      "name": "payIntervest",
      "outputs": [],
      "stateMutability": "nonpayable",
      "type": "function"
    },
    {
      "inputs": [
        {
          "internalType": "uint256",
          "name": "tokenId",
          "type": "uint256"
        },
        {
          "internalType": "uint256",
          "name": "invoiceNumber",
          "type": "uint256"
        }
      ],
      "name": "payIntervestTemp",
      "outputs": [],
      "stateMutability": "nonpayable",
      "type": "function"
    },
    {
      "inputs": [
        {
          "internalType": "uint256",
          "name": "tokenId",
          "type": "uint256"
        }
      ],
      "name": "getFundCertInfoById",
      "outputs": [
        {
          "components": [
            {
              "internalType": "uint256",
              "name": "id",
              "type": "uint256"
            },
            {
              "internalType": "string",
              "name": "name",
              "type": "string"
            },
            {
              "internalType": "uint256",
              "name": "price",
              "type": "uint256"
            },
            {
              "internalType": "uint256",
              "name": "issueDate",
              "type": "uint256"
            },
            {
              "internalType": "uint256",
              "name": "expireDate",
              "type": "uint256"
            },
            {
              "internalType": "uint256",
              "name": "intervestTerm",
              "type": "uint256"
            },
            {
              "internalType": "uint256",
              "name": "totalSupply",
              "type": "uint256"
            }
          ],
          "internalType": "struct FundCertificate.FundCert",
          "name": "",
          "type": "tuple"
        }
      ],
      "stateMutability": "view",
      "type": "function"
    },
    {
      "inputs": [],
      "name": "getIntervestTermRate",
      "outputs": [
        {
          "internalType": "uint256",
          "name": "",
          "type": "uint256"
        }
      ],
      "stateMutability": "view",
      "type": "function"
    },
    {
      "inputs": [],
      "name": "getBaseRate",
      "outputs": [
        {
          "internalType": "uint256",
          "name": "",
          "type": "uint256"
        }
      ],
      "stateMutability": "view",
      "type": "function"
    },
    {
      "inputs": [
        {
          "internalType": "uint256",
          "name": "_baseRate",
          "type": "uint256"
        }
      ],
      "name": "setBaseRate",
      "outputs": [],
      "stateMutability": "nonpayable",
      "type": "function"
    },
    {
      "inputs": [],
      "name": "getRedeemTime",
      "outputs": [
        {
          "internalType": "uint256",
          "name": "",
          "type": "uint256"
        }
      ],
      "stateMutability": "view",
      "type": "function"
    },
    {
      "inputs": [
        {
          "internalType": "uint256",
          "name": "_redeemTime",
          "type": "uint256"
        }
      ],
      "name": "setRedeemTime",
      "outputs": [],
      "stateMutability": "nonpayable",
      "type": "function"
    },
    {
      "inputs": [
        {
          "internalType": "uint256",
          "name": "holdingTime",
          "type": "uint256"
        }
      ],
      "name": "getIntervestRate",
      "outputs": [
        {
          "internalType": "uint256",
          "name": "",
          "type": "uint256"
        }
      ],
      "stateMutability": "view",
      "type": "function"
    },
    {
      "inputs": [],
      "name": "getInterestRates",
      "outputs": [
        {
          "components": [
            {
              "internalType": "uint256",
              "name": "from",
              "type": "uint256"
            },
            {
              "internalType": "uint256",
              "name": "to",
              "type": "uint256"
            },
            {
              "internalType": "uint256",
              "name": "rate",
              "type": "uint256"
            }
          ],
          "internalType": "struct FundCertificate.InterestRate[]",
          "name": "",
          "type": "tuple[]"
        }
      ],
      "stateMutability": "view",
      "type": "function"
    },
    {
      "inputs": [
        {
          "components": [
            {
              "internalType": "uint256",
              "name": "from",
              "type": "uint256"
            },
            {
              "internalType": "uint256",
              "name": "to",
              "type": "uint256"
            },
            {
              "internalType": "uint256",
              "name": "rate",
              "type": "uint256"
            }
          ],
          "internalType": "struct FundCertificate.InterestRate[]",
          "name": "_interestRates",
          "type": "tuple[]"
        }
      ],
      "name": "setInterestRates",
      "outputs": [],
      "stateMutability": "nonpayable",
      "type": "function"
    },
    {
      "inputs": [],
      "name": "getPaymentToken",
      "outputs": [
        {
          "internalType": "address",
          "name": "",
          "type": "address"
        }
      ],
      "stateMutability": "view",
      "type": "function"
    },
    {
      "inputs": [
        {
          "internalType": "address",
          "name": "_paymentToken",
          "type": "address"
        }
      ],
      "name": "setPaymentToken",
      "outputs": [],
      "stateMutability": "nonpayable",
      "type": "function"
    },
    {
      "inputs": [
        {
          "internalType": "address",
          "name": "walletAddress",
          "type": "address"
        }
      ],
      "name": "isWhitelist",
      "outputs": [
        {
          "internalType": "bool",
          "name": "",
          "type": "bool"
        }
      ],
      "stateMutability": "view",
      "type": "function"
    },
    {
      "inputs": [
        {
          "internalType": "address[]",
          "name": "_whitelists",
          "type": "address[]"
        }
      ],
      "name": "setWhitelist",
      "outputs": [],
      "stateMutability": "nonpayable",
      "type": "function"
    },
    {
      "inputs": [
        {
          "internalType": "address[]",
          "name": "_whitelists",
          "type": "address[]"
        }
      ],
      "name": "removeWhitelist",
      "outputs": [],
      "stateMutability": "nonpayable",
      "type": "function"
    },
    {
      "inputs": [
        {
          "internalType": "address",
          "name": "walletAddress",
          "type": "address"
        }
      ],
      "name": "isPublisher",
      "outputs": [
        {
          "internalType": "bool",
          "name": "",
          "type": "bool"
        }
      ],
      "stateMutability": "view",
      "type": "function"
    },
    {
      "inputs": [
        {
          "internalType": "address[]",
          "name": "_publisher",
          "type": "address[]"
        }
      ],
      "name": "setPublisher",
      "outputs": [],
      "stateMutability": "nonpayable",
      "type": "function"
    },
    {
      "inputs": [
        {
          "internalType": "address[]",
          "name": "_publisher",
          "type": "address[]"
        }
      ],
      "name": "removePublisher",
      "outputs": [],
      "stateMutability": "nonpayable",
      "type": "function"
    },
    {
      "inputs": [],
      "name": "getListInvervestPayment",
      "outputs": [
        {
          "components": [
            {
              "internalType": "uint256",
              "name": "id",
              "type": "uint256"
            },
            {
              "internalType": "uint256",
              "name": "number",
              "type": "uint256"
            },
            {
              "internalType": "bool",
              "name": "paid",
              "type": "bool"
            },
            {
              "internalType": "address",
              "name": "contractWrap",
              "type": "address"
            },
            {
              "internalType": "uint256",
              "name": "expireDate",
              "type": "uint256"
            },
            {
              "internalType": "uint256",
              "name": "amount",
              "type": "uint256"
            }
          ],
          "internalType": "struct FundCertificate.IntervestPayment[]",
          "name": "",
          "type": "tuple[]"
        }
      ],
      "stateMutability": "view",
      "type": "function"
    },
    {
      "inputs": [
        {
          "internalType": "uint256",
          "name": "id",
          "type": "uint256"
        }
      ],
      "name": "getListInvervestPaymentTemp",
      "outputs": [
        {
          "components": [
            {
              "internalType": "uint256",
              "name": "id",
              "type": "uint256"
            },
            {
              "internalType": "uint256",
              "name": "number",
              "type": "uint256"
            },
            {
              "internalType": "bool",
              "name": "paid",
              "type": "bool"
            },
            {
              "internalType": "address",
              "name": "contractWrap",
              "type": "address"
            },
            {
              "internalType": "uint256",
              "name": "expireDate",
              "type": "uint256"
            },
            {
              "internalType": "uint256",
              "name": "amount",
              "type": "uint256"
            }
          ],
          "internalType": "struct FundCertificate.IntervestPayment",
          "name": "",
          "type": "tuple"
        }
      ],
      "stateMutability": "view",
      "type": "function"
    },
    {
      "inputs": [
        {
          "internalType": "uint256",
          "name": "id",
          "type": "uint256"
        }
      ],
      "name": "getInvervestPaymentsById",
      "outputs": [
        {
          "components": [
            {
              "internalType": "uint256",
              "name": "id",
              "type": "uint256"
            },
            {
              "internalType": "uint256",
              "name": "number",
              "type": "uint256"
            },
            {
              "internalType": "bool",
              "name": "paid",
              "type": "bool"
            },
            {
              "internalType": "address",
              "name": "contractWrap",
              "type": "address"
            },
            {
              "internalType": "uint256",
              "name": "expireDate",
              "type": "uint256"
            },
            {
              "internalType": "uint256",
              "name": "amount",
              "type": "uint256"
            }
          ],
          "internalType": "struct FundCertificate.IntervestPayment[]",
          "name": "",
          "type": "tuple[]"
        }
      ],
      "stateMutability": "view",
      "type": "function"
    },
    {
      "inputs": [
        {
          "internalType": "uint256",
          "name": "id",
          "type": "uint256"
        }
      ],
      "name": "getInvervestPaymentsTempById",
      "outputs": [
        {
          "components": [
            {
              "internalType": "uint256",
              "name": "id",
              "type": "uint256"
            },
            {
              "internalType": "uint256",
              "name": "number",
              "type": "uint256"
            },
            {
              "internalType": "bool",
              "name": "paid",
              "type": "bool"
            },
            {
              "internalType": "address",
              "name": "contractWrap",
              "type": "address"
            },
            {
              "internalType": "uint256",
              "name": "expireDate",
              "type": "uint256"
            },
            {
              "internalType": "uint256",
              "name": "amount",
              "type": "uint256"
            }
          ],
          "internalType": "struct FundCertificate.IntervestPayment[]",
          "name": "",
          "type": "tuple[]"
        }
      ],
      "stateMutability": "view",
      "type": "function"
    },
    {
      "inputs": [],
      "name": "getTotalSupplyOfId",
      "outputs": [
        {
          "internalType": "uint256",
          "name": "",
          "type": "uint256"
        }
      ],
      "stateMutability": "view",
      "type": "function"
    },
    {
      "inputs": [
        {
          "internalType": "address",
          "name": "_provider",
          "type": "address"
        }
      ],
      "name": "setProvider",
      "outputs": [],
      "stateMutability": "nonpayable",
      "type": "function"
    }
  ],
  "bytecode": "0x60806040526103e8600755600460085560506009553480156200002157600080fd5b50604051620046cc380380620046cc8339810160408190526200004491620002a3565b60408051808201909152601a81527f68747470733a2f2f6578616d706c652e636f6d2f746f6b656e2f00000000000060208201526200008c816401000000006200021e810204565b50620000b3620000a464010000000062000230810204565b64010000000062000234810204565b6003805460a060020a60ff0219168155600a8054600160a060020a03948516600160a060020a03199182161790915560408051606080820183526001808352600e6020808501918252603c858701908152600b8054808601825560008281529751908b027f0175b7a638427703f0dbe7bb9bbf987a2551717b34e79f33b5b1008d1fa01db98181019290925594517f0175b7a638427703f0dbe7bb9bbf987a2551717b34e79f33b5b1008d1fa01dba8087019190915592517f0175b7a638427703f0dbe7bb9bbf987a2551717b34e79f33b5b1008d1fa01dbb9586015588518088018a52600f8152601d8186019081526046828c019081528454808a018655858c529251928e0280850193909355905182860155519086015588519687018952601e875260b493870193845260509887019889528154958601825596529351929097029384019190915594519082015590519201919091556005805492909316911617905562000485565b60026200022c8282620003b2565b5050565b3390565b60038054600160a060020a03838116600160a060020a0319831681179093556040519116919082907f8be0079c531659141344cd1fd0a4f28419497f9722a3daafe3b4186f6b6457e090600090a35050565b8051600160a060020a03811681146200029e57600080fd5b919050565b60008060408385031215620002b757600080fd5b620002c28362000286565b9150620002d26020840162000286565b90509250929050565b7f4e487b7100000000000000000000000000000000000000000000000000000000600052604160045260246000fd5b6002810460018216806200031f57607f821691505b60208210810362000359577f4e487b7100000000000000000000000000000000000000000000000000000000600052602260045260246000fd5b50919050565b601f821115620003ad576000818152602081206020601f86010481016020861015620003885750805b6020601f860104820191505b81811015620003a95782815560010162000394565b5050505b505050565b815167ffffffffffffffff811115620003cf57620003cf620002db565b620003e781620003e084546200030a565b846200035f565b602080601f831160018114620004235760008415620004065750858301515b60028086026008870290910a6000190419821617865550620003a9565b600085815260208120601f198616915b82811015620004545788860151825594840194600190910190840162000433565b50858210156200047557878501516008601f88160260020a60001904191681555b5050505050600202600101905550565b61423780620004956000396000f3fe608060405234801561001057600080fd5b506004361061028d5760003560e060020a900480638c51485911610160578063ce5ed531116100d2578063e985e9c51161008b578063e985e9c51461060a578063f242432a14610646578063f2fde38b14610659578063f42176481461066c578063f5298aca1461067f578063ffe7c6051461069257600080fd5b8063ce5ed531146105a3578063cfd8d6c0146105ab578063d021b59b146105be578063d41c3a65146105c6578063d8016d94146105d7578063e117d62a146105f757600080fd5b8063ab609b5811610124578063ab609b5814610509578063b2c710cc14610529578063b655d0c41461053c578063bd85b03914610544578063c683630d14610564578063cb14a2a61461059057600080fd5b80638c514859146104a35780638da5cb5b146104ab5780639fc8c225146104d0578063a22cb465146104e3578063a66626f2146104f657600080fd5b80632eb2c2d6116102045780635c975abb116101bd5780635c975abb14610450578063674f7f1c146104585780636a326ab11461046d5780636b20c45414610480578063715018a6146104935780638456cb591461049b57600080fd5b80632eb2c2d6146103bf5780633f4ba83a146103d257806341859ac8146103da578063444ea825146104065780634e1273f41461040e5780634f558e791461042e57600080fd5b80631caaa487116102565780631caaa487146103305780631d08837b146103605780631f2ca976146103735780632324521614610386578063275c5bb2146103995780632b6a4371146103ac57600080fd5b8062fdd58e1461029257806301ffc9a7146102b857806302fe5305146102db5780630a9348fe146102f05780630e89341c14610310575b600080fd5b6102a56102a03660046132ae565b6106a5565b6040519081526020015b60405180910390f35b6102cb6102c63660046132f0565b610754565b60405190151581526020016102af565b6102ee6102e93660046133ce565b6107ef565b005b6103036102fe366004613403565b610803565b6040516102af9190613461565b61032361031e366004613403565b6108bb565b6040516102af91906134ff565b61034361033e366004613403565b61094f565b60408051928352600160a060020a039091166020830152016102af565b6102ee61036e366004613403565b610986565b6102ee610381366004613512565b610993565b6102ee610394366004613585565b610e27565b6103036103a7366004613403565b610e9d565b6102ee6103ba3660046135f9565b610f40565b6102ee6103cd3660046136ad565b611106565b6102ee611155565b6102cb6103e836600461375b565b600160a060020a03166000908152600e602052604090205460ff1690565b6102a5611167565b61042161041c366004613778565b611177565b6040516102af919061387d565b6102cb61043c366004613403565b600090815260046020526040902054151590565b6102cb6112b8565b6104606112d9565b6040516102af9190613890565b6102ee61047b36600461375b565b611356565b6102ee61048e3660046138e9565b611380565b6102ee6113c6565b6102ee6113d8565b6009546102a5565b600354600160a060020a03165b604051600160a060020a0390911681526020016102af565b6102ee6104de36600461395f565b6113e8565b6102ee6104f13660046139d0565b611475565b6102ee610504366004613585565b611484565b61051c610517366004613403565b6114f5565b6040516102af9190613a09565b6102ee610537366004613403565b6115f0565b6007546102a5565b6102a5610552366004613403565b60009081526004602052604090205490565b6102cb61057236600461375b565b600160a060020a03166000908152600d602052604090205460ff1690565b6102a561059e366004613403565b6115fd565b6008546102a5565b6102ee6105b936600461375b565b6116d5565b6103036116ff565b600a54600160a060020a03166104b8565b6105ea6105e5366004613403565b61189b565b6040516102af9190613a6e565b6102ee6106053660046135f9565b611a33565b6102cb610618366004613a7c565b600160a060020a03918216600090815260016020908152604080832093909416825291909152205460ff1690565b6102ee610654366004613aaa565b611bd3565b6102ee61066736600461375b565b611c1b565b6102ee61067a366004613585565b611cab565b6102ee61068d366004613b13565b611d25565b6102ee6106a0366004613585565b611d6b565b6000600160a060020a03831661072b5760405160e560020a62461bcd02815260206004820152602a60248201527f455243313135353a2061646472657373207a65726f206973206e6f742061207660448201527f616c6964206f776e65720000000000000000000000000000000000000000000060648201526084015b60405180910390fd5b50600081815260208181526040808320600160a060020a03861684529091529020545b92915050565b6000600160e060020a031982167fd9b67a260000000000000000000000000000000000000000000000000000000014806107b75750600160e060020a031982167f0e89341c00000000000000000000000000000000000000000000000000000000145b8061074e57507f01ffc9a700000000000000000000000000000000000000000000000000000000600160e060020a031983161461074e565b6107f7611de5565b61080081611e42565b50565b606060116000838152602001908152602001600020805480602002602001604051908101604052809291908181526020016000905b828210156108b05760008481526020908190206040805160c081018252600586029092018054835260018082015484860152600282015460ff8116151593850193909352610100909204600160a060020a03166060840152600381015460808401526004015460a08301529083529092019101610838565b505050509050919050565b6060600280546108ca90613b48565b80601f01602080910402602001604051908101604052809291908181526020018280546108f690613b48565b80156109435780601f1061091857610100808354040283529160200191610943565b820191906000526020600020905b81548152906001019060200180831161092657829003601f168201915b50505050509050919050565b600c818154811061095f57600080fd5b600091825260209091206002909102018054600190910154909150600160a060020a031682565b61098e611de5565b600755565b336000818152600d602052604090205460ff16806109be5750600354600160a060020a038281169116145b610a0d5760405160e560020a62461bcd02815260206004820152601960248201527f75736572206d75737420626520696e2077686974656c697374000000000000006044820152606401610722565b8480421115610a875760405160e560020a62461bcd02815260206004820152602f60248201527f69737375652064617465206d7573742062652067726561746572207468616e2060448201527f6f7220657175616c20746f206e6f7700000000000000000000000000000000006064820152608401610722565b600160a060020a0388166000908152600e6020526040902054889060ff16610b1a5760405160e560020a62461bcd02815260206004820152602a60248201527f6f6e6c79206d696e7420746f6b656e7320746f207573657220696e206c69737460448201527f207075626c6973686572000000000000000000000000000000000000000000006064820152608401610722565b6000610b2560065490565b9050610b2f6130b1565b818152602081018a905260608101899052600854610b4f90610708613b9e565b610b59908a613bb5565b608082015260a08101879052604080820187905260c082018990526000838152600f602090815291902082518155908201518291906001820190610b9d9082613c0e565b5060408201518160020155606082015181600301556080820151816004015560a0820151816005015560c0820151816006015590505060008b9050600560009054906101000a9004600160a060020a0316600160a060020a031663d5fc2ae733853085600a8f610c0d9190613cd4565b60405163ffffffff871660e060020a028152600160a060020a039586166004820152602481019490945291841660448401529092166064820152608481019190915260a401600060405180830381600087803b158015610c6c57600080fd5b505af1158015610c80573d6000803e3d6000fd5b505060055460405160e360020a6315df4fb30281526004810187905260009350600160a060020a03909116915063aefa7d9890602401602060405180830381865afa158015610cd3573d6000803e3d6000fd5b505050506040513d601f19601f82011682018060405250810190610cf79190613cf9565b9050610d1481858c60405180602001604052806000815250611e4e565b80600160a060020a031663d46eb1196040518163ffffffff1660e060020a028152600401600060405180830381600087803b158015610d5257600080fd5b505af1158015610d66573d6000803e3d6000fd5b50505050610d77848a8d8b85611f7e565b60408051808201909152848152600160a060020a038e811660208301908152600c80546001808201835560009290925293517fdf6966c971051c3d54ec59162606531493a51404a002842f56009d7e5cf4a8c760029095029485015590517fdf6966c971051c3d54ec59162606531493a51404a002842f56009d7e5cf4a8c89093018054600160a060020a0319169390921692909217905560068054909101905550505050505050505050505050565b610e2f611de5565b60005b81811015610e9857600d6000848484818110610e5057610e50613d16565b9050602002016020810190610e65919061375b565b600160a060020a031681526020810191909152604001600020805460ff1916905580610e9081613d2f565b915050610e32565b505050565b60008181526010602090815260408083208054825181850281018501909352808352606094929391929091840182156108b05760008481526020908190206040805160c081018252600586029092018054835260018082015484860152600282015460ff8116151593850193909352610100909204600160a060020a03166060840152600381015460808401526004015460a08301529083529092019101610838565b60055460405160e360020a6315df4fb302815260048101849052600091600160a060020a03169063aefa7d9890602401602060405180830381865afa158015610f8d573d6000803e3d6000fd5b505050506040513d601f19601f82011682018060405250810190610fb19190613cf9565b905060005b600084815260116020526040902054811015611100576000848152601160205260408120805483908110610fec57610fec613d16565b60009182526020918290206040805160c081018252600593909302909101805483526001810154938301849052600281015460ff8116151592840192909252610100909104600160a060020a03166060830152600381015460808301526004015460a082015291508490036110ed578060400151156110805760405160e560020a62461bcd02815260040161072290613d48565b60a0810151600a546110a191600160a060020a03909116903390869061213c565b6000858152601160205260409020805460019190849081106110c5576110c5613d16565b60009182526020909120600590910201600201805460ff191691151591909117905550611100565b50806110f881613d2f565b915050610fb6565b50505050565b600160a060020a03851633148061112257506111228533610618565b6111415760405160e560020a62461bcd02815260040161072290613d7f565b61114e85858585856121c4565b5050505050565b61115d611de5565b611165612377565b565b600061117260065490565b905090565b606081518351146111f35760405160e560020a62461bcd02815260206004820152602960248201527f455243313135353a206163636f756e747320616e6420696473206c656e67746860448201527f206d69736d6174636800000000000000000000000000000000000000000000006064820152608401610722565b6000835167ffffffffffffffff81111561120f5761120f613314565b604051908082528060200260200182016040528015611238578160200160208202803683370190505b50905060005b84518110156112b05761128385828151811061125c5761125c613d16565b602002602001015185838151811061127657611276613d16565b60200260200101516106a5565b82828151811061129557611295613d16565b60209081029190910101526112a981613d2f565b905061123e565b509392505050565b60035474010000000000000000000000000000000000000000900460ff1690565b6060600b805480602002602001604051908101604052809291908181526020016000905b8282101561134d57838290600052602060002090600302016040518060600160405290816000820154815260200160018201548152602001600282015481525050815260200190600101906112fd565b50505050905090565b61135e611de5565b600a8054600160a060020a031916600160a060020a0392909216919091179055565b600160a060020a03831633148061139c575061139c8333610618565b6113bb5760405160e560020a62461bcd02815260040161072290613d7f565b610e988383836123dd565b6113ce611de5565b6111656000612582565b6113e0611de5565b6111656125d4565b6113f0611de5565b6113fc600b60006130ee565b60005b81811015610e9857600b83838381811061141b5761141b613d16565b83546001810185556000948552602090942060609091029290920192600302909101905061146082828135815560208201356001820155604082013560028201555050565b5050808061146d90613d2f565b9150506113ff565b611480338383612639565b5050565b61148c611de5565b60005b81811015610e9857600e60008484848181106114ad576114ad613d16565b90506020020160208101906114c2919061375b565b600160a060020a031681526020810191909152604001600020805460ff19169055806114ed81613d2f565b91505061148f565b6114fd6130b1565b600f60008381526020019081526020016000206040518060e00160405290816000820154815260200160018201805461153590613b48565b80601f016020809104026020016040519081016040528092919081815260200182805461156190613b48565b80156115ae5780601f10611583576101008083540402835291602001916115ae565b820191906000526020600020905b81548152906001019060200180831161159157829003601f168201915b50505050508152602001600282015481526020016003820154815260200160048201548152602001600582015481526020016006820154815250509050919050565b6115f8611de5565b600855565b6000805b600b548110156116a757600b818154811061161e5761161e613d16565b90600052602060002090600302016000015483101580156116635750600b818154811061164d5761164d613d16565b9060005260206000209060030201600101548311155b1561169557600b818154811061167b5761167b613d16565b906000526020600020906003020160020154915050919050565b8061169f81613d2f565b915050611601565b50600b6000815481106116bc576116bc613d16565b9060005260206000209060030201600201549050919050565b6116dd611de5565b60058054600160a060020a031916600160a060020a0392909216919091179055565b6060600061170b611167565b905060008167ffffffffffffffff81111561172857611728613314565b60405190808252806020026020018201604052801561176157816020015b61174e61310f565b8152602001906001900390816117465790505b50905060005b828110156118945760005b6000828152601060205260409020548110156118815760008281526010602052604090208054829081106117a8576117a8613d16565b600091825260209091206002600590920201015460ff1661186f5760008281526010602052604090208054829081106117e3576117e3613d16565b60009182526020918290206040805160c081018252600590930290910180548352600181015493830193909352600283015460ff8116151591830191909152600160a060020a036101009091041660608201526003820154608082015260049091015460a0820152835184908490811061185f5761185f613d16565b6020026020010181905250611881565b8061187981613d2f565b915050611772565b508061188c81613d2f565b915050611767565b5092915050565b6118a361310f565b60005b6000838152601160205260409020548110156119985760008381526011602052604090208054829081106118dc576118dc613d16565b600091825260209091206002600590920201015460ff1661198657600083815260116020526040902080548290811061191757611917613d16565b60009182526020918290206040805160c081018252600590930290910180548352600181015493830193909352600283015460ff8116151591830191909152600160a060020a036101009091041660608201526003820154608082015260049091015460a08201529392505050565b8061199081613d2f565b9150506118a6565b50600082815260116020526040902080546119b590600190613ddc565b815481106119c5576119c5613d16565b60009182526020918290206040805160c081018252600590930290910180548352600181015493830193909352600283015460ff8116151591830191909152600160a060020a036101009091041660608201526003820154608082015260049091015460a082015292915050565b611a3b611de5565b60055460405160e360020a6315df4fb302815260048101849052600091600160a060020a03169063aefa7d9890602401602060405180830381865afa158015611a88573d6000803e3d6000fd5b505050506040513d601f19601f82011682018060405250810190611aac9190613cf9565b905060005b600084815260106020526040902054811015611100576000848152601060205260408120805483908110611ae757611ae7613d16565b60009182526020918290206040805160c081018252600593909302909101805483526001810154938301849052600281015460ff8116151592840192909252610100909104600160a060020a03166060830152600381015460808301526004015460a08201529150849003611bc057806040015115611b7b5760405160e560020a62461bcd02815260040161072290613d48565b60a0810151600a54611b9c91600160a060020a03909116903390869061213c565b6000858152601060205260409020805460019190849081106110c5576110c5613d16565b5080611bcb81613d2f565b915050611ab1565b600160a060020a038516331480611bef5750611bef8533610618565b611c0e5760405160e560020a62461bcd02815260040161072290613d7f565b61114e8585858585612730565b611c23611de5565b600160a060020a038116611ca25760405160e560020a62461bcd02815260206004820152602660248201527f4f776e61626c653a206e6577206f776e657220697320746865207a65726f206160448201527f64647265737300000000000000000000000000000000000000000000000000006064820152608401610722565b61080081612582565b611cb3611de5565b60005b81811015610e98576001600d6000858585818110611cd657611cd6613d16565b9050602002016020810190611ceb919061375b565b600160a060020a031681526020810191909152604001600020805460ff191691151591909117905580611d1d81613d2f565b915050611cb6565b600160a060020a038316331480611d415750611d418333610618565b611d605760405160e560020a62461bcd02815260040161072290613d7f565b610e98838383612851565b611d73611de5565b60005b81811015610e98576001600e6000858585818110611d9657611d96613d16565b9050602002016020810190611dab919061375b565b600160a060020a031681526020810191909152604001600020805460ff191691151591909117905580611ddd81613d2f565b915050611d76565b600354600160a060020a031633146111655760405160e560020a62461bcd02815260206004820181905260248201527f4f776e61626c653a2063616c6c6572206973206e6f7420746865206f776e65726044820152606401610722565b60026114808282613c0e565b600160a060020a038416611ecd5760405160e560020a62461bcd02815260206004820152602160248201527f455243313135353a206d696e7420746f20746865207a65726f2061646472657360448201527f73000000000000000000000000000000000000000000000000000000000000006064820152608401610722565b336000611ed98561295d565b90506000611ee68561295d565b9050611ef7836000898585896129a8565b600086815260208181526040808320600160a060020a038b16845290915281208054879290611f27908490613bb5565b90915550506040805187815260208101879052600160a060020a03808a1692600092918716916000805160206141e2833981519152910160405180910390a4611f75836000898989896129be565b50505050505050565b600061016d8560075460095486600a611f979190613b9e565b611fa19190613b9e565b611fab9190613cd4565b611fb59190613b9e565b611fbf9190613cd4565b90506000849050600086600854601e611fd89190613b9e565b611fe29190613cd4565b905060005b8181101561210b57611ffa88603c613b9e565b6120049084613bb5565b925060006040518060c001604052808b815260200183815260200160001515815260200187600160a060020a03168152602001858152602001868152509050601060008b8152602001908152602001600020819080600181540180825580915050600190039060005260206000209060050201600090919091909150600082015181600001556020820151816001015560408201518160020160006101000a81548160ff02191690831515021790555060608201518160020160016101000a815481600160a060020a030219169083600160a060020a031602179055506080820151816003015560a08201518160040155505050808061210390613d2f565b915050611fe7565b506000888152601060209081526040808320601190925290912081546121319290613150565b505050505050505050565b60408051600160a060020a0385811660248301528416604482015260648082018490528251808303909101815260849091019091526020810180517bffffffffffffffffffffffffffffffffffffffffffffffffffffffff167f23b872dd00000000000000000000000000000000000000000000000000000000179052611100908590612b31565b81518351146121e85760405160e560020a62461bcd02815260040161072290613def565b600160a060020a0384166122115760405160e560020a62461bcd02815260040161072290613e4c565b336122208187878787876129a8565b60005b845181101561230957600085828151811061224057612240613d16565b60200260200101519050600085838151811061225e5761225e613d16565b60209081029190910181015160008481528083526040808220600160a060020a038e1683529093529190912054909150818110156122b15760405160e560020a62461bcd02815260040161072290613ea9565b600083815260208181526040808320600160a060020a038e8116855292528083208585039055908b168252812080548492906122ee908490613bb5565b925050819055505050508061230290613d2f565b9050612223565b5084600160a060020a031686600160a060020a031682600160a060020a03167f4a39dc06d4c0dbc64b70af90fd698a233a518aa5d07e595d983b8c0526c8f7fb8787604051612359929190613f06565b60405180910390a461236f818787878787612c19565b505050505050565b61237f612cdd565b6003805474ff0000000000000000000000000000000000000000191690557f5db9ee0a495bf2e6ff9c91a7834c1ba4fdd244a5e8aa4e537bd38aeae4b073aa335b604051600160a060020a03909116815260200160405180910390a1565b600160a060020a0383166124065760405160e560020a62461bcd02815260040161072290613f34565b805182511461242a5760405160e560020a62461bcd02815260040161072290613def565b600033905061244d818560008686604051806020016040528060008152506129a8565b60005b835181101561251557600084828151811061246d5761246d613d16565b60200260200101519050600084838151811061248b5761248b613d16565b60209081029190910181015160008481528083526040808220600160a060020a038c1683529093529190912054909150818110156124de5760405160e560020a62461bcd02815260040161072290613f91565b600092835260208381526040808520600160a060020a038b168652909152909220910390558061250d81613d2f565b915050612450565b506000600160a060020a031684600160a060020a031682600160a060020a03167f4a39dc06d4c0dbc64b70af90fd698a233a518aa5d07e595d983b8c0526c8f7fb8686604051612566929190613f06565b60405180910390a4604080516020810190915260009052611100565b60038054600160a060020a03838116600160a060020a0319831681179093556040519116919082907f8be0079c531659141344cd1fd0a4f28419497f9722a3daafe3b4186f6b6457e090600090a35050565b6125dc612d34565b6003805474ff00000000000000000000000000000000000000001916740100000000000000000000000000000000000000001790557f62e78cea01bee320cd4e420270b5ea74000d11b0c9f74754ebdbfc544b05a2586123c03390565b81600160a060020a031683600160a060020a0316036126c35760405160e560020a62461bcd02815260206004820152602960248201527f455243313135353a2073657474696e6720617070726f76616c2073746174757360448201527f20666f722073656c6600000000000000000000000000000000000000000000006064820152608401610722565b600160a060020a03838116600081815260016020908152604080832094871680845294825291829020805460ff191686151590811790915591519182527f17307eab39ab6107e8899845ad3d59bd9653f200f220920489ca2b5937696c31910160405180910390a3505050565b600160a060020a0384166127595760405160e560020a62461bcd02815260040161072290613e4c565b3360006127658561295d565b905060006127728561295d565b90506127828389898585896129a8565b600086815260208181526040808320600160a060020a038c168452909152902054858110156127c65760405160e560020a62461bcd02815260040161072290613ea9565b600087815260208181526040808320600160a060020a038d8116855292528083208985039055908a16825281208054889290612803908490613bb5565b90915550506040805188815260208101889052600160a060020a03808b16928c821692918816916000805160206141e2833981519152910160405180910390a4612131848a8a8a8a8a6129be565b600160a060020a03831661287a5760405160e560020a62461bcd02815260040161072290613f34565b3360006128868461295d565b905060006128938461295d565b90506128b3838760008585604051806020016040528060008152506129a8565b600085815260208181526040808320600160a060020a038a168452909152902054848110156128f75760405160e560020a62461bcd02815260040161072290613f91565b600086815260208181526040808320600160a060020a038b81168086529184528285208a8703905582518b81529384018a90529092908816916000805160206141e2833981519152910160405180910390a4604080516020810190915260009052611f75565b6040805160018082528183019092526060916000919060208083019080368337019050509050828160008151811061299757612997613d16565b602090810291909101015292915050565b6129b0612d34565b61236f868686868686612d8c565b600160a060020a0384163b1561236f5760405160e060020a63f23a6e61028152600160a060020a0385169063f23a6e6190612a059089908990889088908890600401613fee565b6020604051808303816000875af1925050508015612a40575060408051601f3d908101601f19168201909252612a3d91810190614026565b60015b612afb57612a4c614043565b806308c379a003612a885750612a60614063565b80612a6b5750612a8a565b8060405160e560020a62461bcd02815260040161072291906134ff565b505b60405160e560020a62461bcd02815260206004820152603460248201527f455243313135353a207472616e7366657220746f206e6f6e2d4552433131353560448201527f526563656976657220696d706c656d656e7465720000000000000000000000006064820152608401610722565b600160e060020a0319811660e060020a63f23a6e610214611f755760405160e560020a62461bcd028152600401610722906140ed565b6000612b86826040518060400160405280602081526020017f5361666545524332303a206c6f772d6c6576656c2063616c6c206661696c656481525085600160a060020a0316612f1d9092919063ffffffff16565b805190915015610e985780806020019051810190612ba4919061414a565b610e985760405160e560020a62461bcd02815260206004820152602a60248201527f5361666545524332303a204552433230206f7065726174696f6e20646964206e60448201527f6f742073756363656564000000000000000000000000000000000000000000006064820152608401610722565b600160a060020a0384163b1561236f5760405160e060020a63bc197c81028152600160a060020a0385169063bc197c8190612c609089908990889088908890600401614167565b6020604051808303816000875af1925050508015612c9b575060408051601f3d908101601f19168201909252612c9891810190614026565b60015b612ca757612a4c614043565b600160e060020a0319811660e060020a63bc197c810214611f755760405160e560020a62461bcd028152600401610722906140ed565b612ce56112b8565b6111655760405160e560020a62461bcd02815260206004820152601460248201527f5061757361626c653a206e6f74207061757365640000000000000000000000006044820152606401610722565b612d3c6112b8565b156111655760405160e560020a62461bcd02815260206004820152601060248201527f5061757361626c653a20706175736564000000000000000000000000000000006044820152606401610722565b600160a060020a038516612e135760005b8351811015612e1157828181518110612db857612db8613d16565b602002602001015160046000868481518110612dd657612dd6613d16565b602002602001015181526020019081526020016000206000828254612dfb9190613bb5565b90915550612e0a905081613d2f565b9050612d9d565b505b600160a060020a03841661236f5760005b8351811015611f75576000848281518110612e4157612e41613d16565b602002602001015190506000848381518110612e5f57612e5f613d16565b6020026020010151905060006004600084815260200190815260200160002054905081811015612efa5760405160e560020a62461bcd02815260206004820152602860248201527f455243313135353a206275726e20616d6f756e74206578636565647320746f7460448201527f616c537570706c790000000000000000000000000000000000000000000000006064820152608401610722565b60009283526004602052604090922091039055612f1681613d2f565b9050612e24565b6060612f2c8484600085612f34565b949350505050565b60603031831115612fb05760405160e560020a62461bcd02815260206004820152602660248201527f416464726573733a20696e73756666696369656e742062616c616e636520666f60448201527f722063616c6c00000000000000000000000000000000000000000000000000006064820152608401610722565b60008086600160a060020a03168587604051612fcc91906141c5565b60006040518083038185875af1925050503d8060008114613009576040519150601f19603f3d011682016040523d82523d6000602084013e61300e565b606091505b509150915061301f8783838761302a565b979650505050505050565b6060831561309c57825160000361309557600160a060020a0385163b6130955760405160e560020a62461bcd02815260206004820152601d60248201527f416464726573733a2063616c6c20746f206e6f6e2d636f6e74726163740000006044820152606401610722565b5081612f2c565b612f2c8383815115612a6b5781518083602001fd5b6040518060e00160405280600081526020016060815260200160008152602001600081526020016000815260200160008152602001600081525090565b5080546000825560030290600052602060002090810190610800919061322e565b6040518060c0016040528060008152602001600081526020016000151581526020016000600160a060020a0316815260200160008152602001600081525090565b82805482825590600052602060002090600502810192821561321e5760005260206000209160050282015b8281111561321e57825482556001808401549083015560028084018054918401805460ff909316151560ff198416811782559154600160a060020a0361010091829004160274ffffffffffffffffffffffffffffffffffffffff001990921674ffffffffffffffffffffffffffffffffffffffffff199093169290921717905560038084015490830155600480840154908301556005928301929091019061317b565b5061322a929150613250565b5090565b5b8082111561322a57600080825560018201819055600282015560030161322f565b5b8082111561322a5760008082556001820181905560028201805474ffffffffffffffffffffffffffffffffffffffffff19169055600382018190556004820155600501613251565b600160a060020a038116811461080057600080fd5b600080604083850312156132c157600080fd5b82356132cc81613299565b946020939093013593505050565b600160e060020a03198116811461080057600080fd5b60006020828403121561330257600080fd5b813561330d816132da565b9392505050565b60e060020a634e487b7102600052604160045260246000fd5b601f8201601f1916810167ffffffffffffffff8111828210171561335357613353613314565b6040525050565b600082601f83011261336b57600080fd5b813567ffffffffffffffff81111561338557613385613314565b60405161339c601f8301601f19166020018261332d565b8181528460208386010111156133b157600080fd5b816020850160208301376000918101602001919091529392505050565b6000602082840312156133e057600080fd5b813567ffffffffffffffff8111156133f757600080fd5b612f2c8482850161335a565b60006020828403121561341557600080fd5b5035919050565b8051825260208101516020830152604081015115156040830152600160a060020a0360608201511660608301526080810151608083015260a081015160a08301525050565b6020808252825182820181905260009190848201906040850190845b818110156134a35761349083855161341c565b9284019260c0929092019160010161347d565b50909695505050505050565b60005b838110156134ca5781810151838201526020016134b2565b50506000910152565b600081518084526134eb8160208601602086016134af565b601f01601f19169290920160200192915050565b60208152600061330d60208301846134d3565b60008060008060008060c0878903121561352b57600080fd5b863561353681613299565b9550602087013567ffffffffffffffff81111561355257600080fd5b61355e89828a0161335a565b96999698505050506040850135946060810135946080820135945060a09091013592509050565b6000806020838503121561359857600080fd5b823567ffffffffffffffff808211156135b057600080fd5b818501915085601f8301126135c457600080fd5b8135818111156135d357600080fd5b86602080830285010111156135e757600080fd5b60209290920196919550909350505050565b6000806040838503121561360c57600080fd5b50508035926020909101359150565b600067ffffffffffffffff82111561363557613635613314565b5060209081020190565b600082601f83011261365057600080fd5b8135602061365d8261361b565b60405161366a828261332d565b838152928202850182019282810191508684111561368757600080fd5b8286015b848110156136a2578035835291830191830161368b565b509695505050505050565b600080600080600060a086880312156136c557600080fd5b85356136d081613299565b945060208601356136e081613299565b9350604086013567ffffffffffffffff808211156136fd57600080fd5b61370989838a0161363f565b9450606088013591508082111561371f57600080fd5b61372b89838a0161363f565b9350608088013591508082111561374157600080fd5b5061374e8882890161335a565b9150509295509295909350565b60006020828403121561376d57600080fd5b813561330d81613299565b6000806040838503121561378b57600080fd5b823567ffffffffffffffff808211156137a357600080fd5b818501915085601f8301126137b757600080fd5b813560206137c48261361b565b6040516137d1828261332d565b83815292820285018201928281019150898411156137ee57600080fd5b948201945b8386101561381557853561380681613299565b825294820194908201906137f3565b9650508601359250508082111561382b57600080fd5b506138388582860161363f565b9150509250929050565b600081518084526020808501945080840160005b8381101561387257815187529582019590820190600101613856565b509495945050505050565b60208152600061330d6020830184613842565b602080825282518282018190526000919060409081850190868401855b828110156138dc57815180518552868101518786015285015185850152606090930192908501906001016138ad565b5091979650505050505050565b6000806000606084860312156138fe57600080fd5b833561390981613299565b9250602084013567ffffffffffffffff8082111561392657600080fd5b6139328783880161363f565b9350604086013591508082111561394857600080fd5b506139558682870161363f565b9150509250925092565b6000806020838503121561397257600080fd5b823567ffffffffffffffff8082111561398a57600080fd5b818501915085601f83011261399e57600080fd5b8135818111156139ad57600080fd5b8660206060830285010111156135e757600080fd5b801515811461080057600080fd5b600080604083850312156139e357600080fd5b82356139ee81613299565b915060208301356139fe816139c2565b809150509250929050565b60208152815160208201526000602083015160e06040840152613a306101008401826134d3565b90506040840151606084015260608401516080840152608084015160a084015260a084015160c084015260c084015160e08401528091505092915050565b60c0810161074e828461341c565b60008060408385031215613a8f57600080fd5b8235613a9a81613299565b915060208301356139fe81613299565b600080600080600060a08688031215613ac257600080fd5b8535613acd81613299565b94506020860135613add81613299565b93506040860135925060608601359150608086013567ffffffffffffffff811115613b0757600080fd5b61374e8882890161335a565b600080600060608486031215613b2857600080fd5b8335613b3381613299565b95602085013595506040909401359392505050565b600281046001821680613b5c57607f821691505b602082108103613b7f5760e060020a634e487b7102600052602260045260246000fd5b50919050565b60e060020a634e487b7102600052601160045260246000fd5b808202811582820484141761074e5761074e613b85565b8082018082111561074e5761074e613b85565b601f821115610e98576000818152602081206020601f86010481016020861015613bef5750805b6020601f860104820191505b8181101561236f57828155600101613bfb565b815167ffffffffffffffff811115613c2857613c28613314565b613c3c81613c368454613b48565b84613bc8565b602080601f831160018114613c755760008415613c595750858301515b60028086026008870290910a600019041982161786555061236f565b600085815260208120601f198616915b82811015613ca457888601518255948401946001909101908401613c85565b5085821015613cc457878501516008601f88160260020a60001904191681555b5050505050600202600101905550565b600082613cf45760e060020a634e487b7102600052601260045260246000fd5b500490565b600060208284031215613d0b57600080fd5b815161330d81613299565b60e060020a634e487b7102600052603260045260246000fd5b600060018201613d4157613d41613b85565b5060010190565b60208082526010908201527f696e766f69636520776173207061696400000000000000000000000000000000604082015260600190565b6020808252602e908201527f455243313135353a2063616c6c6572206973206e6f7420746f6b656e206f776e60408201527f6572206f7220617070726f766564000000000000000000000000000000000000606082015260800190565b8181038181111561074e5761074e613b85565b60208082526028908201527f455243313135353a2069647320616e6420616d6f756e7473206c656e6774682060408201527f6d69736d61746368000000000000000000000000000000000000000000000000606082015260800190565b60208082526025908201527f455243313135353a207472616e7366657220746f20746865207a65726f20616460408201527f6472657373000000000000000000000000000000000000000000000000000000606082015260800190565b6020808252602a908201527f455243313135353a20696e73756666696369656e742062616c616e636520666f60408201527f72207472616e7366657200000000000000000000000000000000000000000000606082015260800190565b604081526000613f196040830185613842565b8281036020840152613f2b8185613842565b95945050505050565b60208082526023908201527f455243313135353a206275726e2066726f6d20746865207a65726f206164647260408201527f6573730000000000000000000000000000000000000000000000000000000000606082015260800190565b60208082526024908201527f455243313135353a206275726e20616d6f756e7420657863656564732062616c60408201527f616e636500000000000000000000000000000000000000000000000000000000606082015260800190565b6000600160a060020a03808816835280871660208401525084604083015283606083015260a0608083015261301f60a08301846134d3565b60006020828403121561403857600080fd5b815161330d816132da565b600060033d11156140605760046000803e60e060020a6000510490505b90565b600060443d10156140715790565b6040516003193d81016004833e81513d67ffffffffffffffff81602484011181841117156140a157505050505090565b82850191508151818111156140b95750505050505090565b843d87010160208285010111156140d35750505050505090565b6140e26020828601018761332d565b509095945050505050565b60208082526028908201527f455243313135353a204552433131353552656365697665722072656a6563746560408201527f6420746f6b656e73000000000000000000000000000000000000000000000000606082015260800190565b60006020828403121561415c57600080fd5b815161330d816139c2565b6000600160a060020a03808816835280871660208401525060a0604083015261419360a0830186613842565b82810360608401526141a58186613842565b905082810360808401526141b981856134d3565b98975050505050505050565b600082516141d78184602087016134af565b919091019291505056fec3d58168c5ae7397731d063d5bbf3d657854427343f4c083240f7aacaa2d0f62a2646970667358221220276d358b4b068308c57db76f15d9095756a63ce1224ce58c2369ef8cfba3f34864736f6c63430008130033",
  "immutableReferences": {},
  "source": "// SPDX-License-Identifier: MIT\npragma solidity ^0.8.9;\n\nimport \"@openzeppelin/contracts/token/ERC1155/ERC1155.sol\";\nimport \"@openzeppelin/contracts/access/Ownable.sol\";\nimport \"@openzeppelin/contracts/security/Pausable.sol\";\nimport \"@openzeppelin/contracts/token/ERC1155/extensions/ERC1155Burnable.sol\";\nimport \"@openzeppelin/contracts/token/ERC1155/extensions/ERC1155Supply.sol\";\nimport \"@openzeppelin/contracts/utils/Counters.sol\";\nimport \"@openzeppelin/contracts/token/ERC20/IERC20.sol\";\nimport \"@openzeppelin/contracts/token/ERC20/utils/SafeERC20.sol\";\nimport \"@openzeppelin/contracts/utils/structs/EnumerableMap.sol\";\n\ninterface FundCertProvider {\n    function createContract(address owner, uint256 tokenId, address contractFC, address publisher, uint256 amount) external;\n    function getContractAddress(uint256 tokenId) external view returns(address);\n}\ninterface FundCertWrap {\n    function wrap() external;\n}\ncontract FundCertificate is ERC1155, Ownable, Pausable, ERC1155Burnable, ERC1155Supply{\n    using SafeERC20 for IERC20;\n    using Counters for Counters.Counter;\n    using EnumerableMap for EnumerableMap.UintToAddressMap;\n    using EnumerableMap for EnumerableMap.UintToUintMap;\n    FundCertProvider fundCertProvider;\n    Counters.Counter private _issueIdCounter;\n\n\n    uint256 baseRate = 1000;\n    uint256 redeemTime = 4;\n    uint256 intervestTermRate = 80; \n    address paymentToken;\n\n    struct InterestRate {\n        uint256 from;\n        uint256 to;\n        uint256 rate;\n    }\n\n    struct FundCert {\n        uint256 id;\n        string name;\n        uint256 price;\n        uint256 issueDate;\n        uint256 expireDate;\n        uint256 intervestTerm;\n        uint256 totalSupply;\n    }\n\n    struct TokenOwner {\n        uint256 id;\n        address publisher;\n    }\n\n    struct IntervestPayment {\n        uint256 id;\n        uint256 number;\n        bool paid;\n        address contractWrap;\n        uint256 expireDate;\n        uint256 amount;\n    }\n\n    InterestRate[] interestRates;\n    TokenOwner[] public tokenOwner;\n\n    mapping(address => bool) whitelists;\n    mapping(address => bool) publishers;\n    mapping(uint256 => FundCert) issueCert;\n    mapping(uint256 => IntervestPayment[]) intervestPaymentMap;\n    mapping(uint256 => IntervestPayment[]) intervestPaymentMapTemp;\n\n    modifier onlyInWhitelist(address _issuer){\n        require(whitelists[_issuer] || _issuer == owner(), \"user must be in whitelist\");\n        _;\n    }\n     \n    modifier validIssueDate(uint256 _issueDate){\n        require(block.timestamp  <= _issueDate, \"issue date must be greater than or equal to now\");\n        _;\n    }\n\n    modifier onlyIssueToPublisher(address _publisher) {\n        require(publishers[_publisher], \"only mint tokens to user in list publisher\");\n        _;\n    }\n    \n    constructor(address _paymentToken, address _provider) ERC1155(\"https://example.com/token/\") {\n        paymentToken = _paymentToken;\n        interestRates.push(InterestRate(1, 14, 60));\n        interestRates.push(InterestRate(15, 29, 70));\n        interestRates.push(InterestRate(30, 180, 80));\n        fundCertProvider = FundCertProvider(_provider);\n    }\n\n    function setURI(string memory newuri) public onlyOwner {\n        _setURI(newuri);\n    }\n\n    function pause() public onlyOwner {\n        _pause();\n    }\n\n    function unpause() public onlyOwner {\n        _unpause();\n    }\n\n    function issue(\n        address account,\n        string memory name, \n        uint256 issueDate, \n        uint256 totalSuply, \n        uint256 intervestTerm, \n        uint256 price)\n        public\n        onlyInWhitelist(msg.sender)\n        validIssueDate(issueDate)\n        onlyIssueToPublisher(account)\n    {   \n        uint256 id = _issueIdCounter.current();\n        // set nft infor\n        FundCert memory fundCertInfo;\n        fundCertInfo.id = id;\n        fundCertInfo.name = name;\n        fundCertInfo.issueDate = issueDate;\n        fundCertInfo.expireDate = issueDate + redeemTime * 30 minutes;\n        fundCertInfo.intervestTerm = intervestTerm;\n        fundCertInfo.price = price;\n        fundCertInfo.totalSupply = totalSuply;\n        issueCert[id] = fundCertInfo;\n\n        // create contract wrap\n        address _publisherAddress = account;\n        fundCertProvider.createContract(msg.sender, id, address(this), _publisherAddress, totalSuply/10);\n        address fcWrap = fundCertProvider.getContractAddress(id);\n        // mint token to wrap contract\n        _mint(fcWrap, id, totalSuply, \"\");\n        // wrap \n        FundCertWrap(fcWrap).wrap();\n        // set invervest term\n        calculateIntervestByTerm(id, intervestTerm, issueDate, price, fcWrap);\n\n        tokenOwner.push(TokenOwner(id, account));\n        _issueIdCounter.increment();\n\n    }\n\n    function calculateIntervestByTerm(uint256 id, uint256 intervestTerm, uint256 issueDate, uint256 price, address fcWrap) internal {\n        uint256 vestingAmount = (((price * 10 * intervestTermRate)/baseRate)*intervestTerm)/365;\n        uint256 vestingTime = issueDate;\n\n        uint256 totalTerm = (redeemTime * 30)/intervestTerm;\n        for (uint256 index = 0; index < totalTerm; index++) {\n            vestingTime += (intervestTerm * 1 minutes);\n            IntervestPayment memory _intervestPayment = IntervestPayment(id, index, false, fcWrap, vestingTime, vestingAmount);\n            intervestPaymentMap[id].push(_intervestPayment);\n        }\n\n        intervestPaymentMapTemp[id] = intervestPaymentMap[id];\n    }\n\n    function payIntervest(uint256 tokenId, uint256 invoiceNumber) public onlyOwner {\n        address fcWrap = fundCertProvider.getContractAddress(tokenId);\n        for (uint256 index = 0; index < intervestPaymentMap[tokenId].length; index++) {\n            IntervestPayment memory _intervestPayment = intervestPaymentMap[tokenId][index];\n            if(_intervestPayment.number == invoiceNumber){\n                require(!_intervestPayment.paid, \"invoice was paid\");\n                IERC20(paymentToken).safeTransferFrom(msg.sender, fcWrap, _intervestPayment.amount);\n                intervestPaymentMap[tokenId][index].paid = true;\n                break;\n            }\n        }\n    }\n\n    function payIntervestTemp(uint256 tokenId, uint256 invoiceNumber) public {\n        address fcWrap = fundCertProvider.getContractAddress(tokenId);\n        for (uint256 index = 0; index < intervestPaymentMapTemp[tokenId].length; index++) {\n            IntervestPayment memory _intervestPayment = intervestPaymentMapTemp[tokenId][index];\n            if(_intervestPayment.number == invoiceNumber){\n                require(!_intervestPayment.paid, \"invoice was paid\");\n                IERC20(paymentToken).safeTransferFrom(msg.sender, fcWrap, _intervestPayment.amount);\n                intervestPaymentMapTemp[tokenId][index].paid = true;\n                break;\n            }\n        }\n    } \n\n    function getFundCertInfoById(uint256 tokenId) public view virtual returns(FundCert memory){\n        return issueCert[tokenId];\n    }\n\n    function getIntervestTermRate() public view returns(uint256){\n        return intervestTermRate;\n    }\n\n    function getBaseRate() public view returns(uint256){\n        return baseRate;\n    }\n\n    function setBaseRate(uint256 _baseRate) public onlyOwner {\n        baseRate = _baseRate;\n    }\n\n    function getRedeemTime() public view returns(uint256){\n        return redeemTime;\n    }\n\n    function setRedeemTime(uint256 _redeemTime) public onlyOwner{\n        redeemTime = _redeemTime;\n    }\n\n    function getIntervestRate(uint256 holdingTime) public view returns(uint256){\n        for (uint256 index = 0; index < interestRates.length; index++) {\n            if(holdingTime >= interestRates[index].from && holdingTime <= interestRates[index].to){\n                return interestRates[index].rate;\n            }\n        }\n        return interestRates[0].rate;\n    }\n\n    function getInterestRates() public view returns(InterestRate[] memory){\n        return interestRates;\n    }\n\n    function setInterestRates(InterestRate[] calldata _interestRates) public onlyOwner{\n        delete interestRates;\n        for (uint256 index = 0; index < _interestRates.length; index++) {\n            interestRates.push(_interestRates[index]);\n        }\n    }\n       \n    function getPaymentToken() public view returns(address){\n        return paymentToken;\n    }\n\n    function setPaymentToken(address _paymentToken) public onlyOwner {\n        paymentToken = _paymentToken;\n    }\n\n    function isWhitelist(address walletAddress) public view returns(bool){\n        return whitelists[walletAddress];\n    }\n\n    function setWhitelist(address[] calldata _whitelists) public onlyOwner {\n        for (uint256 index = 0; index < _whitelists.length; index++) {\n            whitelists[_whitelists[index]] = true;\n        }\n    }\n\n    function removeWhitelist(address[] calldata _whitelists) public onlyOwner {\n        for (uint256 index = 0; index < _whitelists.length; index++) {\n            delete whitelists[_whitelists[index]];\n        }\n    }\n\n    function isPublisher(address walletAddress) public view returns(bool){\n        return publishers[walletAddress];\n    }\n\n    function setPublisher(address[] calldata _publisher) public onlyOwner {\n        for (uint256 index = 0; index < _publisher.length; index++) {\n            publishers[_publisher[index]] = true;\n        }\n    }\n\n    function removePublisher(address[] calldata _publisher) public onlyOwner {\n        for (uint256 index = 0; index < _publisher.length; index++) {\n            delete publishers[_publisher[index]];\n        }\n    }\n\n    function getListInvervestPayment() public view returns(IntervestPayment[] memory){\n        uint256 supplys = getTotalSupplyOfId();\n        IntervestPayment[] memory _intervestPayment = new IntervestPayment[](supplys);\n        for (uint256 index = 0; index < supplys; index++) {\n            for (uint256 j = 0; j < intervestPaymentMap[index].length; j++) {\n                if(!intervestPaymentMap[index][j].paid){\n                    _intervestPayment[index] = intervestPaymentMap[index][j];\n                    break;\n                }\n            }\n        }\n        return _intervestPayment;\n    }\n\n    function getListInvervestPaymentTemp(uint256 id) public view returns(IntervestPayment memory){\n        for (uint256 index = 0; index < intervestPaymentMapTemp[id].length; index++) {\n            if(!intervestPaymentMapTemp[id][index].paid){\n                return intervestPaymentMapTemp[id][index];\n            }\n        }\n        return intervestPaymentMapTemp[id][intervestPaymentMapTemp[id].length - 1];\n    }\n\n    function getInvervestPaymentsById(uint256 id) public view returns(IntervestPayment[] memory){\n        return intervestPaymentMap[id];\n    }\n\n    function getInvervestPaymentsTempById(uint256 id) public view returns(IntervestPayment[] memory){\n        return intervestPaymentMapTemp[id];\n    }\n\n    function getTotalSupplyOfId() public view returns(uint256){\n        return _issueIdCounter.current();\n    }\n\n    function setProvider(address _provider) public onlyOwner{\n        fundCertProvider = FundCertProvider(_provider);\n    }\n\n    function _beforeTokenTransfer(address operator, address from, address to, uint256[] memory ids, uint256[] memory amounts, bytes memory data)\n        internal\n        whenNotPaused\n        override(ERC1155, ERC1155Supply)\n    {\n        super._beforeTokenTransfer(operator, from, to, ids, amounts, data);\n    }\n}",
  "sourcePath": "/Users/tannguyen/Documents/GitHub/ccq-nft/contracts/fund-cert-nft.sol",
  "compiler": {
    "name": "solc",
    "version": "0.8.19+commit.7dd6d404.Emscripten.clang"
  },
  "schemaVersion": "3.4.13",
  "updatedAt": "2023-04-12T03:43:11.190Z",
  "devdoc": {
    "events": {
      "ApprovalForAll(address,address,bool)": {
        "details": "Emitted when `account` grants or revokes permission to `operator` to transfer their tokens, according to `approved`."
      },
      "Paused(address)": {
        "details": "Emitted when the pause is triggered by `account`."
      },
      "TransferBatch(address,address,address,uint256[],uint256[])": {
        "details": "Equivalent to multiple {TransferSingle} events, where `operator`, `from` and `to` are the same for all transfers."
      },
      "TransferSingle(address,address,address,uint256,uint256)": {
        "details": "Emitted when `value` tokens of token type `id` are transferred from `from` to `to` by `operator`."
      },
      "URI(string,uint256)": {
        "details": "Emitted when the URI for token type `id` changes to `value`, if it is a non-programmatic URI. If an {URI} event was emitted for `id`, the standard https://eips.ethereum.org/EIPS/eip-1155#metadata-extensions[guarantees] that `value` will equal the value returned by {IERC1155MetadataURI-uri}."
      },
      "Unpaused(address)": {
        "details": "Emitted when the pause is lifted by `account`."
      }
    },
    "kind": "dev",
    "methods": {
      "balanceOf(address,uint256)": {
        "details": "See {IERC1155-balanceOf}. Requirements: - `account` cannot be the zero address."
      },
      "balanceOfBatch(address[],uint256[])": {
        "details": "See {IERC1155-balanceOfBatch}. Requirements: - `accounts` and `ids` must have the same length."
      },
      "exists(uint256)": {
        "details": "Indicates whether any token exist with a given id, or not."
      },
      "isApprovedForAll(address,address)": {
        "details": "See {IERC1155-isApprovedForAll}."
      },
      "owner()": {
        "details": "Returns the address of the current owner."
      },
      "paused()": {
        "details": "Returns true if the contract is paused, and false otherwise."
      },
      "renounceOwnership()": {
        "details": "Leaves the contract without owner. It will not be possible to call `onlyOwner` functions anymore. Can only be called by the current owner. NOTE: Renouncing ownership will leave the contract without an owner, thereby removing any functionality that is only available to the owner."
      },
      "safeBatchTransferFrom(address,address,uint256[],uint256[],bytes)": {
        "details": "See {IERC1155-safeBatchTransferFrom}."
      },
      "safeTransferFrom(address,address,uint256,uint256,bytes)": {
        "details": "See {IERC1155-safeTransferFrom}."
      },
      "setApprovalForAll(address,bool)": {
        "details": "See {IERC1155-setApprovalForAll}."
      },
      "supportsInterface(bytes4)": {
        "details": "See {IERC165-supportsInterface}."
      },
      "totalSupply(uint256)": {
        "details": "Total amount of tokens in with a given id."
      },
      "transferOwnership(address)": {
        "details": "Transfers ownership of the contract to a new account (`newOwner`). Can only be called by the current owner."
      },
      "uri(uint256)": {
        "details": "See {IERC1155MetadataURI-uri}. This implementation returns the same URI for *all* token types. It relies on the token type ID substitution mechanism https://eips.ethereum.org/EIPS/eip-1155#metadata[defined in the EIP]. Clients calling this function must replace the `\\{id\\}` substring with the actual token type ID."
      }
    },
    "version": 1
  },
  "userdoc": {
    "kind": "user",
    "methods": {},
    "version": 1
  }
}