{
  "contractName": "FundCertMarketplace",
  "abi": [
    {
      "inputs": [
        {
          "internalType": "address",
          "name": "_paymentToken",
          "type": "address"
        },
        {
          "internalType": "bool",
          "name": "_isOpen",
          "type": "bool"
        }
      ],
      "stateMutability": "nonpayable",
      "type": "constructor"
    },
    {
      "anonymous": false,
      "inputs": [
        {
          "indexed": true,
          "internalType": "address",
          "name": "previousOwner",
          "type": "address"
        },
        {
          "indexed": true,
          "internalType": "address",
          "name": "newOwner",
          "type": "address"
        }
      ],
      "name": "OwnershipTransferred",
      "type": "event"
    },
    {
      "anonymous": false,
      "inputs": [
        {
          "indexed": false,
          "internalType": "uint256",
          "name": "id",
          "type": "uint256"
        },
        {
          "indexed": false,
          "internalType": "uint256",
          "name": "nftId",
          "type": "uint256"
        },
        {
          "indexed": false,
          "internalType": "uint256",
          "name": "amount",
          "type": "uint256"
        },
        {
          "indexed": false,
          "internalType": "address",
          "name": "seller",
          "type": "address"
        },
        {
          "indexed": false,
          "internalType": "address",
          "name": "buyer",
          "type": "address"
        }
      ],
      "name": "buyItemToMarket",
      "type": "event"
    },
    {
      "anonymous": false,
      "inputs": [
        {
          "indexed": false,
          "internalType": "uint256",
          "name": "id",
          "type": "uint256"
        },
        {
          "indexed": false,
          "internalType": "uint256",
          "name": "nftId",
          "type": "uint256"
        },
        {
          "indexed": false,
          "internalType": "uint256",
          "name": "amount",
          "type": "uint256"
        },
        {
          "indexed": false,
          "internalType": "address",
          "name": "seller",
          "type": "address"
        }
      ],
      "name": "listNewItemToMarket",
      "type": "event"
    },
    {
      "inputs": [],
      "name": "isOpen",
      "outputs": [
        {
          "internalType": "bool",
          "name": "",
          "type": "bool"
        }
      ],
      "stateMutability": "view",
      "type": "function"
    },
    {
      "inputs": [
        {
          "internalType": "uint256",
          "name": "",
          "type": "uint256"
        }
      ],
      "name": "items",
      "outputs": [
        {
          "internalType": "uint256",
          "name": "id",
          "type": "uint256"
        },
        {
          "internalType": "uint256",
          "name": "nftId",
          "type": "uint256"
        },
        {
          "internalType": "address",
          "name": "nftAddress",
          "type": "address"
        },
        {
          "internalType": "uint256",
          "name": "amount",
          "type": "uint256"
        },
        {
          "internalType": "address",
          "name": "seller",
          "type": "address"
        },
        {
          "internalType": "contract IERC1155",
          "name": "nftContract",
          "type": "address"
        }
      ],
      "stateMutability": "view",
      "type": "function"
    },
    {
      "inputs": [],
      "name": "owner",
      "outputs": [
        {
          "internalType": "address",
          "name": "",
          "type": "address"
        }
      ],
      "stateMutability": "view",
      "type": "function"
    },
    {
      "inputs": [],
      "name": "paymentToken",
      "outputs": [
        {
          "internalType": "address",
          "name": "",
          "type": "address"
        }
      ],
      "stateMutability": "view",
      "type": "function"
    },
    {
      "inputs": [
        {
          "internalType": "address",
          "name": "",
          "type": "address"
        }
      ],
      "name": "publishers",
      "outputs": [
        {
          "internalType": "bool",
          "name": "",
          "type": "bool"
        }
      ],
      "stateMutability": "view",
      "type": "function"
    },
    {
      "inputs": [],
      "name": "renounceOwnership",
      "outputs": [],
      "stateMutability": "nonpayable",
      "type": "function"
    },
    {
      "inputs": [
        {
          "internalType": "bytes4",
          "name": "interfaceId",
          "type": "bytes4"
        }
      ],
      "name": "supportsInterface",
      "outputs": [
        {
          "internalType": "bool",
          "name": "",
          "type": "bool"
        }
      ],
      "stateMutability": "view",
      "type": "function"
    },
    {
      "inputs": [
        {
          "internalType": "address",
          "name": "newOwner",
          "type": "address"
        }
      ],
      "name": "transferOwnership",
      "outputs": [],
      "stateMutability": "nonpayable",
      "type": "function"
    },
    {
      "inputs": [
        {
          "internalType": "address",
          "name": "_nftAddress",
          "type": "address"
        },
        {
          "internalType": "uint256",
          "name": "_nftId",
          "type": "uint256"
        },
        {
          "internalType": "uint256",
          "name": "_amount",
          "type": "uint256"
        }
      ],
      "name": "sellItem",
      "outputs": [],
      "stateMutability": "nonpayable",
      "type": "function"
    },
    {
      "inputs": [
        {
          "components": [
            {
              "internalType": "uint256",
              "name": "index",
              "type": "uint256"
            },
            {
              "internalType": "uint256",
              "name": "amount",
              "type": "uint256"
            }
          ],
          "internalType": "struct FundCertMarketplace.Cart[]",
          "name": "cart",
          "type": "tuple[]"
        }
      ],
      "name": "buyItem",
      "outputs": [],
      "stateMutability": "nonpayable",
      "type": "function"
    },
    {
      "inputs": [
        {
          "internalType": "uint256",
          "name": "_index",
          "type": "uint256"
        }
      ],
      "name": "delistItem",
      "outputs": [],
      "stateMutability": "nonpayable",
      "type": "function"
    },
    {
      "inputs": [],
      "name": "cleanMarket",
      "outputs": [],
      "stateMutability": "nonpayable",
      "type": "function"
    },
    {
      "inputs": [
        {
          "internalType": "address",
          "name": "_publisher",
          "type": "address"
        }
      ],
      "name": "addPublisher",
      "outputs": [],
      "stateMutability": "nonpayable",
      "type": "function"
    },
    {
      "inputs": [
        {
          "internalType": "address",
          "name": "_publisher",
          "type": "address"
        }
      ],
      "name": "removePublisher",
      "outputs": [],
      "stateMutability": "nonpayable",
      "type": "function"
    },
    {
      "inputs": [
        {
          "internalType": "address",
          "name": "_paymentToken",
          "type": "address"
        }
      ],
      "name": "setPaymentToken",
      "outputs": [],
      "stateMutability": "nonpayable",
      "type": "function"
    },
    {
      "inputs": [
        {
          "internalType": "bool",
          "name": "_status",
          "type": "bool"
        }
      ],
      "name": "setMartketStatus",
      "outputs": [],
      "stateMutability": "nonpayable",
      "type": "function"
    },
    {
      "inputs": [],
      "name": "getTotalItems",
      "outputs": [
        {
          "internalType": "uint256",
          "name": "",
          "type": "uint256"
        }
      ],
      "stateMutability": "view",
      "type": "function"
    },
    {
      "inputs": [
        {
          "internalType": "address",
          "name": "",
          "type": "address"
        },
        {
          "internalType": "address",
          "name": "",
          "type": "address"
        },
        {
          "internalType": "uint256",
          "name": "",
          "type": "uint256"
        },
        {
          "internalType": "uint256",
          "name": "",
          "type": "uint256"
        },
        {
          "internalType": "bytes",
          "name": "",
          "type": "bytes"
        }
      ],
      "name": "onERC1155Received",
      "outputs": [
        {
          "internalType": "bytes4",
          "name": "",
          "type": "bytes4"
        }
      ],
      "stateMutability": "pure",
      "type": "function"
    },
    {
      "inputs": [
        {
          "internalType": "address",
          "name": "",
          "type": "address"
        },
        {
          "internalType": "address",
          "name": "",
          "type": "address"
        },
        {
          "internalType": "uint256[]",
          "name": "",
          "type": "uint256[]"
        },
        {
          "internalType": "uint256[]",
          "name": "",
          "type": "uint256[]"
        },
        {
          "internalType": "bytes",
          "name": "",
          "type": "bytes"
        }
      ],
      "name": "onERC1155BatchReceived",
      "outputs": [
        {
          "internalType": "bytes4",
          "name": "",
          "type": "bytes4"
        }
      ],
      "stateMutability": "pure",
      "type": "function"
    }
  ],
  "bytecode": "0x60806040523480156200001157600080fd5b5060405162001bb238038062001bb28339810160408190526200003491620000f4565b6200005a6200004b640100000000620000a0810204565b640100000000620000a4810204565b60018055600580549115157401000000000000000000000000000000000000000002600160a860020a0319909216600160a060020a039093169290921717905562000142565b3390565b60008054600160a060020a03838116600160a060020a0319831681178455604051919092169283917f8be0079c531659141344cd1fd0a4f28419497f9722a3daafe3b4186f6b6457e09190a35050565b600080604083850312156200010857600080fd5b8251600160a060020a03811681146200012057600080fd5b602084015190925080151581146200013757600080fd5b809150509250929050565b611a6080620001526000396000f3fe608060405234801561001057600080fd5b50600436106101155760003560e060020a90048063763f323d116100b1578063bc197c8111610075578063bc197c811461024a578063bfb231d214610276578063eb93dd60146102c7578063f23a6e61146102da578063f2fde38b1461031357600080fd5b8063763f323d146101f85780637a709a671461020b5780638da5cb5b1461021e578063a90701511461022f578063ae61c5ae1461023757600080fd5b806301ffc9a71461011a5780630a4d85cd1461014257806310061631146101655780633013ce291461017a578063310aac69146101a557806347535d7b146101b657806368915327146101ca5780636a326ab1146101dd578063715018a6146101f0575b600080fd5b61012d61012836600461155d565b610326565b60405190151581526020015b60405180910390f35b61012d6101503660046115aa565b60036020526000908152604090205460ff1681565b6101786101733660046115c5565b61038f565b005b60055461018d90600160a060020a031681565b604051600160a060020a039091168152602001610139565b600654604051908152602001610139565b60055461012d9060a060020a900460ff1681565b6101786101d83660046115de565b6104e8565b6101786101eb3660046115aa565b610839565b610178610863565b6101786102063660046115aa565b610877565b610178610219366004611611565b6108a3565b600054600160a060020a031661018d565b610178610d03565b6101786102453660046115aa565b610e71565b61025d610258366004611713565b610e9a565b604051600160e060020a03199091168152602001610139565b6102896102843660046115c5565b610ee8565b604080519687526020870195909552600160a060020a03938416948601949094526060850191909152811660808401521660a082015260c001610139565b6101786102d53660046117dc565b610f3d565b61025d6102e83660046117f9565b7ff23a6e61000000000000000000000000000000000000000000000000000000009695505050505050565b6101786103213660046115aa565b610f74565b6000600160e060020a031982167f4e2312e000000000000000000000000000000000000000000000000000000000148061038957507f01ffc9a700000000000000000000000000000000000000000000000000000000600160e060020a03198316145b92915050565b6000600682815481106103a4576103a4611871565b60009182526020918290206040805160c0810182526006909302909101805483526001810154938301939093526002830154600160a060020a03908116918301919091526003830154606083015260048301548116608083018190526005909301541660a0820152915033146104645760405160e560020a62461bcd02815260206004820152601960248201527f6e6f74206f776e657261626c65206f662074686973204e46540000000000000060448201526064015b60405180910390fd5b8060a00151600160a060020a031663f242432a308360800151846020015185606001516040518563ffffffff1660e060020a0281526004016104a9949392919061188a565b600060405180830381600087803b1580156104c357600080fd5b505af11580156104d7573d6000803e3d6000fd5b505050506104e482611004565b5050565b60055460a060020a900460ff166105145760405160e560020a62461bcd02815260040161045b906118c2565b3360008181526003602052604090205460ff1661059c5760405160e560020a62461bcd02815260206004820152602a60248201527f6f6e6c79207075626c69736865722063616e2073656c6c206e667420696e207460448201527f686973206d61726b657400000000000000000000000000000000000000000000606482015260840161045b565b6040517ff242432a000000000000000000000000000000000000000000000000000000008152600160a060020a0385169063f242432a906105e790339030908890889060040161188a565b600060405180830381600087803b15801561060157600080fd5b505af1158015610615573d6000803e3d6000fd5b505060048054600160a060020a031916600160a060020a03881617905550506040805160c0810182526000602082018190529181018290526080810182905260a0810191909152600254815260608101839052610673846001611912565b60208201908152600160a060020a0380871660408401818152336080860190815260a08601928352600680546001810182556000829052875191027ff652222313e28459528d920b65115c16c04f3efc82aaedc97be59f3f377c0d3f81019190915594517ff652222313e28459528d920b65115c16c04f3efc82aaedc97be59f3f377c0d4086015590517ff652222313e28459528d920b65115c16c04f3efc82aaedc97be59f3f377c0d4185018054918516600160a060020a031992831617905560608601517ff652222313e28459528d920b65115c16c04f3efc82aaedc97be59f3f377c0d4286015590517ff652222313e28459528d920b65115c16c04f3efc82aaedc97be59f3f377c0d438501805491851691831691909117905590517ff652222313e28459528d920b65115c16c04f3efc82aaedc97be59f3f377c0d4490930180549390921692169190911790556107d2600280546001019055565b8051602080830151606080850151608080870151604080519788529587019490945293850152600160a060020a03909116908301527feca7a71a1bdfa23ea1dfa4232309993dccfb78e0b434aead3de1bd15583aacbb910160405180910390a15050505050565b610841611128565b60058054600160a060020a031916600160a060020a0392909216919091179055565b61086b611128565b6108756000611185565b565b61087f611128565b600160a060020a03166000908152600360205260409020805460ff19166001179055565b6108ab6111d5565b60055460a060020a900460ff166108d75760405160e560020a62461bcd02815260040161045b906118c2565b60005b81811015610cf957600060068484848181106108f8576108f8611871565b905060400201600001358154811061091257610912611871565b60009182526020918290206040805160c0810182526006909302909101805483526001810154938301939093526002830154600160a060020a03908116918301919091526003830154606083018190526004840154821660808401526005909301541660a0820152915084848481811061098e5761098e611871565b905060400201602001351115610a355760405160e560020a62461bcd02815260206004820152604360248201527f616d6f756e74206974656d2073656c6563746564206d757374206265206c657360448201527f73207468616e206f7220657175616c20616d6f756e74206974656d2073656c6c60648201527f696e670000000000000000000000000000000000000000000000000000000000608482015260a40161045b565b60408181015160048054600160a060020a031916600160a060020a03909216918217815591517fbf13d438000000000000000000000000000000000000000000000000000000008152429281019290925260009163bf13d43890602401602060405180830381865afa158015610aaf573d6000803e3d6000fd5b505050506040513d601f19601f82011682018060405250810190610ad39190611925565b9050610b19338360400151878787818110610af057610af0611871565b9050604002016020013584610b05919061193e565b600554600160a060020a0316929190611231565b8160a00151600160a060020a031663f242432a30338560200151898989818110610b4557610b45611871565b905060400201602001356040518563ffffffff1660e060020a028152600401610b71949392919061188a565b600060405180830381600087803b158015610b8b57600080fd5b505af1158015610b9f573d6000803e3d6000fd5b505050508160600151858585818110610bba57610bba611871565b905060400201602001351015610c3f57848484818110610bdc57610bdc611871565b905060400201602001356006868686818110610bfa57610bfa611871565b9050604002016000013581548110610c1457610c14611871565b90600052602060002090600602016003016000828254610c349190611955565b90915550610c639050565b610c63858585818110610c5457610c54611871565b90506040020160000135611004565b7f032829841c0c8a8fa0551ed430901d631508f3d3524e7b38659a738ebbdad9d182600001518360200151878787818110610ca057610ca0611871565b6080888101516040805197885260208089019790975292830294909401909401359085015250600160a060020a03166060830152339082015260a00160405180910390a150508080610cf190611968565b9150506108da565b506104e460018055565b610d0b611128565b6005805474ff00000000000000000000000000000000000000001916905560005b600654811015610e6e5760068181548110610d4957610d49611871565b906000526020600020906006020160050160009054906101000a9004600160a060020a0316600160a060020a031663f242432a3060068481548110610d9057610d90611871565b906000526020600020906006020160040160009054906101000a9004600160a060020a031660068581548110610dc857610dc8611871565b90600052602060002090600602016001015460068681548110610ded57610ded611871565b9060005260206000209060060201600301546040518563ffffffff1660e060020a028152600401610e21949392919061188a565b600060405180830381600087803b158015610e3b57600080fd5b505af1158015610e4f573d6000803e3d6000fd5b50505050610e5c81611004565b80610e6681611968565b915050610d2c565b50565b610e79611128565b600160a060020a03166000908152600360205260409020805460ff19169055565b60405160e560020a62461bcd02815260206004820152601d60248201527f6261746368207472616e7366657273206e6f7420737570706f72746564000000604482015260009060640161045b565b60068181548110610ef857600080fd5b60009182526020909120600690910201805460018201546002830154600384015460048501546005909501549395509193600160a060020a0391821693908216911686565b610f45611128565b6005805491151560a060020a0274ff000000000000000000000000000000000000000019909216919091179055565b610f7c611128565b600160a060020a038116610ffb5760405160e560020a62461bcd02815260206004820152602660248201527f4f776e61626c653a206e6577206f776e657220697320746865207a65726f206160448201527f6464726573730000000000000000000000000000000000000000000000000000606482015260840161045b565b610e6e81611185565b6006805461101490600190611955565b8154811061102457611024611871565b90600052602060002090600602016006828154811061104557611045611871565b6000918252602090912082546006928302909101908155600180840154908201556002808401549082018054600160a060020a0319908116600160a060020a039384161790915560038086015490840155600480860154908401805483169184169190911790556005948501549490920180549092169316929092179091558054806110d3576110d3611981565b60008281526020812060066000199093019283020181815560018101829055600281018054600160a060020a031990811690915560038201929092556004810180548316905560050180549091169055905550565b600054600160a060020a031633146108755760405160e560020a62461bcd02815260206004820181905260248201527f4f776e61626c653a2063616c6c6572206973206e6f7420746865206f776e6572604482015260640161045b565b60008054600160a060020a03838116600160a060020a0319831681178455604051919092169283917f8be0079c531659141344cd1fd0a4f28419497f9722a3daafe3b4186f6b6457e09190a35050565b60026001540361122a5760405160e560020a62461bcd02815260206004820152601f60248201527f5265656e7472616e637947756172643a207265656e7472616e742063616c6c00604482015260640161045b565b6002600155565b60408051600160a060020a0385811660248301528416604482015260648082018490528251808303909101815260849091019091526020810180517bffffffffffffffffffffffffffffffffffffffffffffffffffffffff167f23b872dd000000000000000000000000000000000000000000000000000000001790526112b99085906112bf565b50505050565b6000611314826040518060400160405280602081526020017f5361666545524332303a206c6f772d6c6576656c2063616c6c206661696c656481525085600160a060020a03166113ac9092919063ffffffff16565b8051909150156113a75780806020019051810190611332919061199a565b6113a75760405160e560020a62461bcd02815260206004820152602a60248201527f5361666545524332303a204552433230206f7065726174696f6e20646964206e60448201527f6f74207375636365656400000000000000000000000000000000000000000000606482015260840161045b565b505050565b60606113bb84846000856113c3565b949350505050565b6060303183111561143f5760405160e560020a62461bcd02815260206004820152602660248201527f416464726573733a20696e73756666696369656e742062616c616e636520666f60448201527f722063616c6c0000000000000000000000000000000000000000000000000000606482015260840161045b565b60008086600160a060020a0316858760405161145b91906119db565b60006040518083038185875af1925050503d8060008114611498576040519150601f19603f3d011682016040523d82523d6000602084013e61149d565b606091505b50915091506114ae878383876114b9565b979650505050505050565b6060831561152b57825160000361152457600160a060020a0385163b6115245760405160e560020a62461bcd02815260206004820152601d60248201527f416464726573733a2063616c6c20746f206e6f6e2d636f6e7472616374000000604482015260640161045b565b50816113bb565b6113bb83838151156115405781518083602001fd5b8060405160e560020a62461bcd02815260040161045b91906119f7565b60006020828403121561156f57600080fd5b8135600160e060020a03198116811461158757600080fd5b9392505050565b8035600160a060020a03811681146115a557600080fd5b919050565b6000602082840312156115bc57600080fd5b6115878261158e565b6000602082840312156115d757600080fd5b5035919050565b6000806000606084860312156115f357600080fd5b6115fc8461158e565b95602085013595506040909401359392505050565b6000806020838503121561162457600080fd5b823567ffffffffffffffff8082111561163c57600080fd5b818501915085601f83011261165057600080fd5b81358181111561165f57600080fd5b86602060408302850101111561167457600080fd5b60209290920196919550909350505050565b60008083601f84011261169857600080fd5b50813567ffffffffffffffff8111156116b057600080fd5b60208301915083602080830285010111156116ca57600080fd5b9250929050565b60008083601f8401126116e357600080fd5b50813567ffffffffffffffff8111156116fb57600080fd5b6020830191508360208285010111156116ca57600080fd5b60008060008060008060008060a0898b03121561172f57600080fd5b6117388961158e565b975061174660208a0161158e565b9650604089013567ffffffffffffffff8082111561176357600080fd5b61176f8c838d01611686565b909850965060608b013591508082111561178857600080fd5b6117948c838d01611686565b909650945060808b01359150808211156117ad57600080fd5b506117ba8b828c016116d1565b999c989b5096995094979396929594505050565b8015158114610e6e57600080fd5b6000602082840312156117ee57600080fd5b8135611587816117ce565b60008060008060008060a0878903121561181257600080fd5b61181b8761158e565b95506118296020880161158e565b94506040870135935060608701359250608087013567ffffffffffffffff81111561185357600080fd5b61185f89828a016116d1565b979a9699509497509295939492505050565b60e060020a634e487b7102600052603260045260246000fd5b600160a060020a0394851681529290931660208301526040820152606081019190915260a06080820181905260009082015260c00190565b60208082526010908201527f6d61726b657420697320636c6f73656400000000000000000000000000000000604082015260600190565b60e060020a634e487b7102600052601160045260246000fd5b80820180821115610389576103896118f9565b60006020828403121561193757600080fd5b5051919050565b8082028115828204841417610389576103896118f9565b81810381811115610389576103896118f9565b60006001820161197a5761197a6118f9565b5060010190565b60e060020a634e487b7102600052603160045260246000fd5b6000602082840312156119ac57600080fd5b8151611587816117ce565b60005b838110156119d25781810151838201526020016119ba565b50506000910152565b600082516119ed8184602087016119b7565b9190910192915050565b6020815260008251806020840152611a168160408501602087016119b7565b601f01601f1916919091016040019291505056fea264697066735822122040106725d1d1b55d58476129b71c1a9bde83baf39419de64d59d1921ef4c9fa864736f6c63430008130033",
  "immutableReferences": {},
  "source": "// SPDX-License-Identifier: MIT\npragma solidity ^0.8.9;\n\nimport \"@openzeppelin/contracts/token/ERC1155/utils/ERC1155Receiver.sol\";\nimport \"@openzeppelin/contracts/token/ERC20/IERC20.sol\";\nimport \"@openzeppelin/contracts/token/ERC1155/IERC1155.sol\";\nimport \"@openzeppelin/contracts/access/Ownable.sol\";\nimport \"@openzeppelin/contracts/utils/Counters.sol\";\nimport \"@openzeppelin/contracts/security/ReentrancyGuard.sol\";\nimport \"@openzeppelin/contracts/token/ERC20/utils/SafeERC20.sol\";\n\ninterface FundCertWrap {\n    function getPriceAtTime(uint256 time) external view returns(uint256);\n}\n\ncontract FundCertMarketplace is Ownable, ERC1155Receiver, ReentrancyGuard{\n    using SafeERC20 for IERC20;\n    using Counters for Counters.Counter;\n    Counters.Counter private id;\n    mapping(address => bool) public publishers;\n    FundCertWrap fundCertWrap;\n    address public paymentToken;\n    bool public isOpen;\n   \n    struct Item {\n        uint256 id;\n        uint256 nftId;\n        address nftAddress;\n        uint256 amount;\n        address seller;\n        IERC1155 nftContract;\n    }\n\n    struct Cart {\n        uint256 index;\n        uint256 amount;\n    }\n\n    Item[] public items;\n\n    constructor(address _paymentToken, bool _isOpen) {\n        paymentToken = _paymentToken;\n        isOpen = _isOpen;\n    }\n\n    modifier onlyPublisher(address _publisher) {\n        require(publishers[_publisher], \"only publisher can sell nft in this market\");\n        _;\n    }\n\n    modifier whenMarketOpen() {\n        require(isOpen, \"market is closed\");\n        _;\n    }\n\n    event listNewItemToMarket(uint256 id, uint256 nftId, uint256 amount, address seller);\n    event buyItemToMarket(uint256 id, uint256 nftId, uint256 amount, address seller, address buyer);\n\n    function sellItem(\n        address _nftAddress,\n        uint256 _nftId,\n        uint256 _amount\n    ) whenMarketOpen onlyPublisher(msg.sender) public {\n\n        IERC1155(_nftAddress).safeTransferFrom(msg.sender, address(this), _nftId, _amount, \"\");\n        fundCertWrap = FundCertWrap(_nftAddress);\n        Item memory item;\n        item.id = id.current();\n        item.amount = _amount;\n        item.nftId = _nftId + 1; // +1 Because of contract wrap will burn current nft when transfer and mint new id nft\n        item.nftAddress = _nftAddress;\n        item.seller = msg.sender;\n        item.nftContract = IERC1155(_nftAddress);\n        items.push(item);\n        id.increment();\n\n        emit listNewItemToMarket(item.id, item.nftId, item.amount, item.seller);\n    }\n\n    function buyItem(Cart[] calldata cart) external nonReentrant whenMarketOpen {\n        for (uint256 i = 0; i < cart.length; i++) {\n            Item memory itemSelected = items[cart[i].index];\n            require(cart[i].amount <= itemSelected.amount, \"amount item selected must be less than or equal amount item selling\");\n            // get current Price\n            fundCertWrap = FundCertWrap(itemSelected.nftAddress);\n            uint256 nftPrice = fundCertWrap.getPriceAtTime(block.timestamp);\n            // payment by amount item\n            IERC20(paymentToken).safeTransferFrom(msg.sender, itemSelected.nftAddress, nftPrice * cart[i].amount);\n            // transfer NFT to buyer\n            itemSelected.nftContract.safeTransferFrom(address(this), msg.sender, itemSelected.nftId, cart[i].amount, \"\");\n\n            if(cart[i].amount < itemSelected.amount){\n                items[cart[i].index].amount -= cart[i].amount;\n            } else {\n                removeItemByIndex(cart[i].index);\n            }\n\n            // emit event buy\n            emit buyItemToMarket(itemSelected.id, itemSelected.nftId, cart[i].amount, itemSelected.seller, msg.sender);\n        }\n    }\n\n    function delistItem(\n        uint256 _index\n    ) public {\n        Item memory item = items[_index];\n        require(item.seller == msg.sender, \"not ownerable of this NFT\");\n        item.nftContract.safeTransferFrom(address(this), item.seller, item.nftId, item.amount, \"\");\n        removeItemByIndex(_index);\n    }\n\n    function cleanMarket() public onlyOwner{\n        isOpen = false;\n        for (uint256 index = 0; index < items.length; index++) {\n            items[index].nftContract.safeTransferFrom(address(this), items[index].seller, items[index].nftId, items[index].amount, \"\");\n            removeItemByIndex(index);\n        }\n    }\n\n    function removeItemByIndex(uint256 _index) internal {\n        items[_index] = items[items.length - 1];\n        items.pop();\n    }\n\n    function addPublisher(address _publisher) public onlyOwner{\n        publishers[_publisher] = true;\n    }\n\n    function removePublisher(address _publisher) public onlyOwner{\n        publishers[_publisher] = false;\n    }\n\n    function setPaymentToken(address _paymentToken) public onlyOwner{\n        paymentToken = _paymentToken;\n    }\n\n    function setMartketStatus(bool _status) public onlyOwner{\n        isOpen = _status;\n    }\n\n    function getTotalItems() public view returns(uint256) {\n        return items.length;\n    }\n\n    // this function to contract can receive token ERC1155\n    function onERC1155Received(\n        address,\n        address,\n        uint256,\n        uint256,\n        bytes calldata\n    ) public pure override returns (bytes4) {\n        return this.onERC1155Received.selector;\n    }\n\n    // this function to contract can recevie token ERC1155\n    function onERC1155BatchReceived(\n        address,\n        address,\n        uint256[] calldata,\n        uint256[] calldata,\n        bytes calldata\n    ) public pure override returns (bytes4) {\n        revert(\"batch transfers not supported\");\n    }\n}",
  "sourcePath": "/Users/tannguyen/Documents/GitHub/ccq-nft/contracts/fund-cert-marketplace.sol",
  "compiler": {
    "name": "solc",
    "version": "0.8.19+commit.7dd6d404.Emscripten.clang"
  },
  "schemaVersion": "3.4.13",
  "updatedAt": "2023-04-12T03:43:11.118Z",
  "devdoc": {
    "kind": "dev",
    "methods": {
      "owner()": {
        "details": "Returns the address of the current owner."
      },
      "renounceOwnership()": {
        "details": "Leaves the contract without owner. It will not be possible to call `onlyOwner` functions anymore. Can only be called by the current owner. NOTE: Renouncing ownership will leave the contract without an owner, thereby removing any functionality that is only available to the owner."
      },
      "supportsInterface(bytes4)": {
        "details": "See {IERC165-supportsInterface}."
      },
      "transferOwnership(address)": {
        "details": "Transfers ownership of the contract to a new account (`newOwner`). Can only be called by the current owner."
      }
    },
    "version": 1
  },
  "userdoc": {
    "kind": "user",
    "methods": {},
    "version": 1
  }
}