{
  "contractName": "FundCertProvider",
  "abi": [
    {
      "anonymous": false,
      "inputs": [
        {
          "indexed": true,
          "internalType": "address",
          "name": "previousOwner",
          "type": "address"
        },
        {
          "indexed": true,
          "internalType": "address",
          "name": "newOwner",
          "type": "address"
        }
      ],
      "name": "OwnershipTransferred",
      "type": "event"
    },
    {
      "inputs": [],
      "name": "owner",
      "outputs": [
        {
          "internalType": "address",
          "name": "",
          "type": "address"
        }
      ],
      "stateMutability": "view",
      "type": "function"
    },
    {
      "inputs": [],
      "name": "renounceOwnership",
      "outputs": [],
      "stateMutability": "nonpayable",
      "type": "function"
    },
    {
      "inputs": [
        {
          "internalType": "address",
          "name": "newOwner",
          "type": "address"
        }
      ],
      "name": "transferOwnership",
      "outputs": [],
      "stateMutability": "nonpayable",
      "type": "function"
    },
    {
      "inputs": [
        {
          "internalType": "address",
          "name": "_owner",
          "type": "address"
        },
        {
          "internalType": "uint256",
          "name": "_tokenId",
          "type": "uint256"
        },
        {
          "internalType": "address",
          "name": "_contractFC",
          "type": "address"
        },
        {
          "internalType": "address",
          "name": "_publisher",
          "type": "address"
        },
        {
          "internalType": "uint256",
          "name": "_amount",
          "type": "uint256"
        }
      ],
      "name": "createContract",
      "outputs": [],
      "stateMutability": "nonpayable",
      "type": "function"
    },
    {
      "inputs": [
        {
          "internalType": "uint256",
          "name": "_tokenId",
          "type": "uint256"
        }
      ],
      "name": "getContractAddress",
      "outputs": [
        {
          "internalType": "address",
          "name": "",
          "type": "address"
        }
      ],
      "stateMutability": "view",
      "type": "function"
    },
    {
      "inputs": [
        {
          "internalType": "address",
          "name": "_newCreater",
          "type": "address"
        }
      ],
      "name": "setCreater",
      "outputs": [],
      "stateMutability": "nonpayable",
      "type": "function"
    },
    {
      "inputs": [],
      "name": "getCreater",
      "outputs": [
        {
          "internalType": "address",
          "name": "",
          "type": "address"
        }
      ],
      "stateMutability": "view",
      "type": "function"
    }
  ],
  "bytecode": "0x608060405234801561001057600080fd5b50610033610025640100000000610038810204565b64010000000061003c810204565b61008c565b3390565b60008054600160a060020a03838116600160a060020a0319831681178455604051919092169283917f8be0079c531659141344cd1fd0a4f28419497f9722a3daafe3b4186f6b6457e09190a35050565b6160048061009b6000396000f3fe608060405234801561001057600080fd5b5060043610610089577c0100000000000000000000000000000000000000000000000000000000600035046325877d32811461008e578063715018a6146100a35780638da5cb5b146100ab578063aefa7d98146100d4578063c58fdcd3146100fd578063d5fc2ae71461010e578063f2fde38b14610121575b600080fd5b6100a161009c366004610464565b610134565b005b6100a161016b565b600054600160a060020a03165b604051600160a060020a03909116815260200160405180910390f35b6100b86100e2366004610486565b600090815260016020526040902054600160a060020a031690565b600254600160a060020a03166100b8565b6100a161011c36600461049f565b61017f565b6100a161012f366004610464565b6102ed565b61013c610380565b6002805473ffffffffffffffffffffffffffffffffffffffff1916600160a060020a0392909216919091179055565b610173610380565b61017d60006103dd565b565b6002543390600160a060020a031681146101e35760405160e560020a62461bcd02815260206004820152601d60248201527f746869732066656174757265206a75737420666f72206372656174657200000060448201526064015b60405180910390fd5b6000858585856040516101f59061043a565b938452600160a060020a039283166020850152911660408301526060820152608001604051809103906000f080158015610233573d6000803e3d6000fd5b506040517ff2fde38b000000000000000000000000000000000000000000000000000000008152600160a060020a0389811660048301529192509082169063f2fde38b90602401600060405180830381600087803b15801561029457600080fd5b505af11580156102a8573d6000803e3d6000fd5b50505060009687525060016020526040909520805473ffffffffffffffffffffffffffffffffffffffff1916600160a060020a03909616959095179094555050505050565b6102f5610380565b600160a060020a0381166103745760405160e560020a62461bcd02815260206004820152602660248201527f4f776e61626c653a206e6577206f776e657220697320746865207a65726f206160448201527f646472657373000000000000000000000000000000000000000000000000000060648201526084016101da565b61037d816103dd565b50565b600054600160a060020a0316331461017d5760405160e560020a62461bcd02815260206004820181905260248201527f4f776e61626c653a2063616c6c6572206973206e6f7420746865206f776e657260448201526064016101da565b60008054600160a060020a0383811673ffffffffffffffffffffffffffffffffffffffff19831681178455604051919092169283917f8be0079c531659141344cd1fd0a4f28419497f9722a3daafe3b4186f6b6457e09190a35050565b615ada80620004f583390190565b8035600160a060020a038116811461045f57600080fd5b919050565b60006020828403121561047657600080fd5b61047f82610448565b9392505050565b60006020828403121561049857600080fd5b5035919050565b600080600080600060a086880312156104b757600080fd5b6104c086610448565b9450602086013593506104d560408701610448565b92506104e360608701610448565b94979396509194608001359291505056fe60a060405260016080819052600655603c600b553480156200002057600080fd5b5060405162005ada38038062005ada833981016040819052620000439162000170565b6040805160208101909152600081526200006681640100000000620000eb810204565b506200008d6200007e640100000000620000fd810204565b64010000000062000101810204565b6003805460a060020a60ff021916905560099390935560088054600160a060020a03938416600160a060020a03199182168117909255600780549390941692811692909217909255600a929092556005805490921617905562000363565b6002620000f9828262000290565b5050565b3390565b60038054600160a060020a03838116600160a060020a0319831681179093556040519116919082907f8be0079c531659141344cd1fd0a4f28419497f9722a3daafe3b4186f6b6457e090600090a35050565b8051600160a060020a03811681146200016b57600080fd5b919050565b600080600080608085870312156200018757600080fd5b84519350620001996020860162000153565b9250620001a96040860162000153565b6060959095015193969295505050565b7f4e487b7100000000000000000000000000000000000000000000000000000000600052604160045260246000fd5b600281046001821680620001fd57607f821691505b60208210810362000237577f4e487b7100000000000000000000000000000000000000000000000000000000600052602260045260246000fd5b50919050565b601f8211156200028b576000818152602081206020601f86010481016020861015620002665750805b6020601f860104820191505b81811015620002875782815560010162000272565b5050505b505050565b815167ffffffffffffffff811115620002ad57620002ad620001b9565b620002c581620002be8454620001e8565b846200023d565b602080601f831160018114620003015760008415620002e45750858301515b60028086026008870290910a600019041982161786555062000287565b600085815260208120601f198616915b82811015620003325788860151825594840194600190910190840162000311565b50858210156200035357878501516008601f88160260020a60001904191681555b5050505050600202600101905550565b61576780620003736000396000f3fe608060405234801561001057600080fd5b50600436106101fa5760003560e060020a900480637cbc237311610124578063bf13d438116100bc578063f23a6e6111610080578063f23a6e61146104b3578063f242432a146104d6578063f2fde38b146104e9578063f5298aca146104fc578063f786082b1461050f57600080fd5b8063bf13d43814610434578063cd9e671d14610447578063d46eb1191461045c578063e4a4b7b114610464578063e985e9c51461047757600080fd5b80637cbc2373146103635780638456cb59146103765780638c72c54e1461037e5780638da5cb5b146103a9578063a1d54bac146103ba578063a22cb465146103c2578063afee96b7146103d5578063bc197c81146103e8578063bd85b0391461041457600080fd5b80633f4ba83a116101975780633f4ba83a146102d35780634e1273f4146102db5780634f558e79146102fb5780635c975abb1461031d57806362acff4e14610325578063695b3f10146103385780636b20c454146103405780636c14386214610353578063715018a61461035b57600080fd5b8062fdd58e146101ff57806301ffc9a71461022557806302fe53051461024857806307c5a0c61461025d5780630e89341c1461027057806326180b13146102905780632947ef38146102b05780632eb2c2d6146102b85780633bbc2c8d146102cb575b600080fd5b61021261020d366004614569565b610522565b6040519081526020015b60405180910390f35b6102386102333660046145ab565b6105d1565b604051901515815260200161021c565b61025b6102563660046146ac565b6105f9565b005b61025b61026b3660046146f5565b61060d565b61028361027e3660046146f5565b6107bd565b60405161021c919061475e565b6102a361029e3660046146f5565b610851565b60405161021c9190614771565b600954610212565b61025b6102c6366004614889565b6108ec565b61025b61093b565b61025b610ca3565b6102ee6102e9366004614937565b610cb5565b60405161021c9190614a3c565b6102386103093660046146f5565b600090815260046020526040902054151590565b610238610df6565b61025b610333366004614a4f565b610e17565b6102ee611525565b61025b61034e366004614a71565b611586565b6102126115d1565b61025b6115e1565b61025b610371366004614a4f565b6115f3565b61025b61180f565b60075461039190600160a060020a031681565b604051600160a060020a03909116815260200161021c565b600354600160a060020a0316610391565b61021261181f565b61025b6103d0366004614af5565b611ab5565b61025b6103e3366004614b2e565b611ac4565b6103fb6103f6366004614bf6565b611ca1565b604051600160e060020a0319909116815260200161021c565b6102126104223660046146f5565b60009081526004602052604090205490565b6102126104423660046146f5565b611cef565b61044f61202b565b60405161021c9190614cb5565b61025b6120c0565b61025b610472366004614a4f565b612516565b610238610485366004614d15565b600160a060020a03918216600090815260016020908152604080832093909416825291909152205460ff1690565b6103fb6104c1366004614d43565b60e060020a63f23a6e61029695505050505050565b61025b6104e4366004614dbf565b61297f565b61025b6104f7366004614e28565b6129c7565b61025b61050a366004614e45565b612a57565b61025b61051d366004614569565b612a9d565b6000600160a060020a0383166105a85760405160e560020a62461bcd02815260206004820152602a60248201527f455243313135353a2061646472657373207a65726f206973206e6f742061207660448201527f616c6964206f776e65720000000000000000000000000000000000000000000060648201526084015b60405180910390fd5b50600081815260208181526040808320600160a060020a03861684529091529020545b92915050565b6000600160e060020a0319821660e560020a63027118970214806105cb57506105cb82612eb5565b610601612edd565b61060a81612f3a565b50565b336000818152600f6020526040902080546106a592309290918590811061063657610636614e7a565b906000526020600020906004020160010154600f600033600160a060020a0316600160a060020a03168152602001908152602001600020858154811061067e5761067e614e7a565b9060005260206000209060040201600201546040518060200160405280600081525061297f565b336000908152600f602052604090208054906106c2600183614eac565b815481106106d2576106d2614e7a565b9060005260206000209060040201600f600033600160a060020a0316600160a060020a03168152602001908152602001600020838154811061071657610716614e7a565b6000918252602080832084546004909302018054600160a060020a031916600160a060020a0390931692909217825560018085015490830155600280850154908301556003938401549390910192909255338152600f9091526040902080548061078257610782614ebf565b6000828152602081206004600019909301928302018054600160a060020a031916815560018101829055600281018290556003015590555050565b6060600280546107cc90614ed8565b80601f01602080910402602001604051908101604052809291908181526020018280546107f890614ed8565b80156108455780601f1061081a57610100808354040283529160200191610845565b820191906000526020600020905b81548152906001019060200180831161082857829003601f168201915b50505050509050919050565b336000908152600e602090815260408083208484528252808320805482518185028101850190935280835260609492939192909184015b828210156108e157600084815260209081902060408051608081018252600486029092018054835260018082015460ff161515848601526002820154928401929092526003015460608301529083529092019101610888565b505050509050919050565b600160a060020a03851633148061090857506109088533610485565b6109275760405160e560020a62461bcd02815260040161059f90614f15565b6109348585858585612f46565b5050505050565b6007543390600160a060020a0316811161096a5760405160e560020a62461bcd02815260040161059f90614f72565b6005546040805160e060020a63d41c3a6502815290513392600092600160a060020a039091169163d41c3a65916004808201926020929091908290030181865afa1580156109bc573d6000803e3d6000fd5b505050506040513d601f19601f820116820180604052508101906109e09190614fa9565b905060005b33600090815260106020526040902054811015610c9d57336000908152601060205260408120805483908110610a1d57610a1d614e7a565b906000526020600020015490506000610a368583610522565b90508015610c8857600160a060020a0385166000908152600e60209081526040808320858452825280832080548251818502810185019093528083529192909190849084015b82821015610ad557600084815260209081902060408051608081018252600486029092018054835260018082015460ff161515848601526002820154928401929092526003015460608301529083529092019101610a7c565b505050509050600042905060005b8251811015610c8457828181518110610afe57610afe614e7a565b6020026020010151604001518210158015610b3f575082610b20826001614fc6565b81518110610b3057610b30614e7a565b60200260200101516040015182105b80610b7e575060018351610b539190614eac565b81148015610b7e5750828181518110610b6e57610b6e614e7a565b6020026020010151604001518210155b8015610ba75750828181518110610b9757610b97614e7a565b6020908102919091018101510151155b15610c72576000838281518110610bc057610bc0614e7a565b602002602001015160600151848381518110610bde57610bde614e7a565b60200260200101516000015186610bf59190614fd9565b610bff9190614eac565b9050610c15600160a060020a0389168a836130f1565b600160a060020a0389166000908152600e60209081526040808320898452909152902080546001919084908110610c4e57610c4e614e7a565b60009182526020909120600490910201600101805460ff1916911515919091179055505b80610c7c81614ff0565b915050610ae3565b5050505b50508080610c9590614ff0565b9150506109e5565b50505050565b610cab612edd565b610cb3613182565b565b60608151835114610d315760405160e560020a62461bcd02815260206004820152602960248201527f455243313135353a206163636f756e747320616e6420696473206c656e67746860448201527f206d69736d617463680000000000000000000000000000000000000000000000606482015260840161059f565b6000835167ffffffffffffffff811115610d4d57610d4d6145cf565b604051908082528060200260200182016040528015610d76578160200160208202803683370190505b50905060005b8451811015610dee57610dc1858281518110610d9a57610d9a614e7a565b6020026020010151858381518110610db457610db4614e7a565b6020026020010151610522565b828281518110610dd357610dd3614e7a565b6020908102919091010152610de781614ff0565b9050610d7c565b509392505050565b60035474010000000000000000000000000000000000000000900460ff1690565b610e1f6131e8565b6000828152600460205260409020544290610e4f5760405160e560020a62461bcd02815260040161059f90615009565b6000610e5b3385610522565b905060008111610e805760405160e560020a62461bcd02815260040161059f90615040565b80831115610ef95760405160e560020a62461bcd02815260206004820152603360248201527f6e756d626572206f66206e6674206d757374206265206c657373207468616e2060448201527f6f7220657175616c20746f2062616c616e636500000000000000000000000000606482015260840161059f565b60055460095460405160e360020a63156c136b0281526004810191909152600091600160a060020a03169063ab609b5890602401600060405180830381865afa158015610f4a573d6000803e3d6000fd5b505050506040513d6000823e601f3d908101601f19168201604052610f7291908101906150cf565b9050610f7f338686612a57565b6000610f8a60065490565b9050610fbc600760009054906101000a9004600160a060020a0316828760405180602001604052806000815250613240565b60078054600160a060020a039081166000908152600d602090815260408083208684528252808320899055338352600e8083528184208c855283528184209554909416835292815282822085835290522081546110199290614487565b50600754600160a060020a03166000908152601060209081526040822080546001810182559083529120018190556110513387610522565b60000361109a576110623387613370565b336000818152600d602090815260408083208a84528252808320839055928252600e8152828220898352905290812061109a91614509565b336000908152600d6020908152604080832089845290915280822054606085015160a0860151928601518a948a94916110d490600a614fd9565b90506000600560009054906101000a9004600160a060020a0316600160a060020a031663d41c3a656040518163ffffffff1660e060020a028152600401602060405180830381865afa15801561112e573d6000803e3d6000fd5b505050506040513d601f19601f820116820180604052508101906111529190614fa9565b90506000600560009054906101000a9004600160a060020a0316600160a060020a031663b655d0c46040518163ffffffff1660e060020a028152600401602060405180830381865afa1580156111ac573d6000803e3d6000fd5b505050506040513d601f19601f820116820180604052508101906111d0919061517b565b9050600084600b5487426111e49190614eac565b6111ee9190615194565b6111f89190615194565b600b548690611207898b614eac565b6112119190615194565b61121b9190615194565b0361132157600061122b88611cef565b90506000600b54894261123e9190614eac565b6112489190615194565b60055460405160e160020a63658a515302815260048101839052919250600091600160a060020a039091169063cb14a2a690602401602060405180830381865afa15801561129a573d6000803e3d6000fd5b505050506040513d601f19601f820116820180604052508101906112be919061517b565b905061016d82866112cf848b614fd9565b6112d99190615194565b6112e39190614fd9565b6112ed9190615194565b9350611319338c6112fe8787614fc6565b6113089190614fd9565b600160a060020a03891691906130f1565b50505061143d565b600b546000908680826113348b42614eac565b61133e9190615194565b6113489190615194565b6113529190614fd9565b61135c9190614fd9565b6113669088614fc6565b90506000600b5482426113799190614eac565b6113839190615194565b60055460405160e160020a63658a515302815260048101839052919250600091600160a060020a039091169063cb14a2a690602401602060405180830381865afa1580156113d5573d6000803e3d6000fd5b505050506040513d601f19601f820116820180604052508101906113f9919061517b565b905061016d828661140a848b614fd9565b6114149190615194565b61141e9190614fd9565b6114289190615194565b9350611439338c6112fe8789614fc6565b5050505b600085600b54884261144f9190614eac565b6114599190615194565b6114639190615194565b600754600160a060020a03166000908152600e602090815260408083208f845290915290209091508290611498600184614eac565b815481106114a8576114a8614e7a565b906000526020600020906004020160030160008282546114c89190614fc6565b90915550506006805460010190557fd9c77cacdb15b1ea4742f01ab86dbb48e0a45cbc5620f86759263b11fae20d7f338b8b3060405161150b94939291906151b9565b60405180910390a150505050505050505050505050505050565b3360009081526010602090815260409182902080548351818402810184019094528084526060939283018282801561157c57602002820191906000526020600020905b815481526020019060010190808311611568575b5050505050905090565b600160a060020a0383163314806115a257506115a28333610485565b6115c15760405160e560020a62461bcd02815260040161059f90614f15565b6115cc838383613478565b505050565b60006115dc60065490565b905090565b6115e9612edd565b610cb3600061361d565b60055460095460405160e360020a63156c136b0281523392600092600160a060020a039091169163ab609b58916116309160040190815260200190565b600060405180830381865afa15801561164d573d6000803e3d6000fd5b505050506040513d6000823e601f3d908101601f1916820160405261167591908101906150cf565b6080810151909150428111156116d05760405160e560020a62461bcd02815260206004820152601260248201527f6e6f7420696e2072656465656d2074696d650000000000000000000000000000604482015260640161059f565b6005546040805160e060020a63d41c3a650281529051600092600160a060020a03169163d41c3a659160048083019260209291908290030181865afa15801561171d573d6000803e3d6000fd5b505050506040513d601f19601f820116820180604052508101906117419190614fa9565b6008546007546040517ff242432a000000000000000000000000000000000000000000000000000000008152600160a060020a0388811660048301529182166024820152604481018a90526064810189905260a06084820152600060a4820152929350169063f242432a9060c401600060405180830381600087803b1580156117c957600080fd5b505af11580156117dd573d6000803e3d6000fd5b50505050611807848460400151600a6117f69190614fd9565b600160a060020a03841691906130f1565b505050505050565b611817612edd565b610cb361366f565b6007546000903390600160a060020a031681116118515760405160e560020a62461bcd02815260040161059f90614f72565b600033815b33600090815260106020526040902054811015611aab5733600090815260106020526040812080548390811061188e5761188e614e7a565b9060005260206000200154905060006118a78483610522565b90508015611a9657600160a060020a0384166000908152600e60209081526040808320858452825280832080548251818502810185019093528083529192909190849084015b8282101561194657600084815260209081902060408051608081018252600486029092018054835260018082015460ff1615158486015260028201549284019290925260030154606083015290835290920191016118ed565b505050509050600042905060005b8251811015611a925782818151811061196f5761196f614e7a565b60200260200101516040015182101580156119b0575082611991826001614fc6565b815181106119a1576119a1614e7a565b60200260200101516040015182105b806119ef5750600183516119c49190614eac565b811480156119ef57508281815181106119df576119df614e7a565b6020026020010151604001518210155b8015611a185750828181518110611a0857611a08614e7a565b6020908102919091018101510151155b15611a80576000838281518110611a3157611a31614e7a565b602002602001015160600151848381518110611a4f57611a4f614e7a565b60200260200101516000015186611a669190614fd9565b611a709190614eac565b9050611a7c818a614fc6565b9850505b80611a8a81614ff0565b915050611954565b5050505b50508080611aa390614ff0565b915050611856565b50909250505b5090565b611ac03383836136d4565b5050565b3383611ade81600090815260046020526040902054151590565b611afd5760405160e560020a62461bcd02815260040161059f90615009565b6000611b098383610522565b11611b295760405160e560020a62461bcd02815260040161059f90615040565b83611b343387610522565b1015611bab5760405160e560020a62461bcd02815260206004820152602c60248201527f616d6f756e74206d757374206265206c657373207468616e206f72206571756160448201527f6c20746f2062616c616e63650000000000000000000000000000000000000000606482015260840161059f565b611bc7333087876040518060200160405280600081525061297f565b336000818152600f602081815260408084208151608081018352600160a060020a038d811682528185018d81529382018c8152606083018c8152845460018082018755868b52888b20955160049092029095018054600160a060020a031916919094161783559451828401555160028201559251600390930192909255949093525290547fc32236657d4359a0aed0874caf4bb9994ee6406d0849ec122bce1883b8b70b72918891889188918891611c7e91614eac565b30604051611c91969594939291906151e4565b60405180910390a1505050505050565b60405160e560020a62461bcd02815260206004820152601d60248201527f6261746368207472616e7366657273206e6f7420737570706f72746564000000604482015260009060640161059f565b60055460095460405160e360020a63156c136b0281526000928392600160a060020a039091169163ab609b5891611d2c9160040190815260200190565b600060405180830381865afa158015611d49573d6000803e3d6000fd5b505050506040513d6000823e601f3d908101601f19168201604052611d7191908101906150cf565b90506000600560009054906101000a9004600160a060020a0316600160a060020a031663ce5ed5316040518163ffffffff1660e060020a028152600401602060405180830381865afa158015611dcb573d6000803e3d6000fd5b505050506040513d601f19601f82011682018060405250810190611def919061517b565b90506000600560009054906101000a9004600160a060020a0316600160a060020a0316638c5148596040518163ffffffff1660e060020a028152600401602060405180830381865afa158015611e49573d6000803e3d6000fd5b505050506040513d601f19601f82011682018060405250810190611e6d919061517b565b90506000600560009054906101000a9004600160a060020a0316600160a060020a031663b655d0c46040518163ffffffff1660e060020a028152600401602060405180830381865afa158015611ec7573d6000803e3d6000fd5b505050506040513d601f19601f82011682018060405250810190611eeb919061517b565b60408501519091508690600090611f0390600a614fd9565b905060015b60a0870151611f1887601e614fd9565b611f229190615194565b811161201f57600b54600090611f39600184614eac565b8960a00151611f489190614fd9565b611f529190614fd9565b8860600151611f619190614fc6565b90506000600b54838a60a00151611f789190614fd9565b611f829190614fd9565b8960600151611f919190614fc6565b90508185118015611fa25750808511155b1561200a57600b54600090611fb78488614eac565b611fc19190615194565b905061016d8188611fd28b89614fd9565b611fdc9190615194565b611fe69190614fd9565b611ff09190615194565b611ffa9086614fc6565b9c9b505050505050505050505050565b5050808061201790614ff0565b915050611f08565b50979650505050505050565b336000908152600f60209081526040808320805482518185028101850190935280835260609492939192909184015b828210156120b757600084815260209081902060408051608081018252600486029092018054600160a060020a0316835260018082015484860152600282015492840192909252600301546060830152908352909201910161205a565b50505050905090565b6008543390600160a060020a0316811461211f5760405160e560020a62461bcd02815260206004820152600c60248201527f756e617574686f72697a65640000000000000000000000000000000000000000604482015260640161059f565b6121276131e8565b600554604080517f8c5148590000000000000000000000000000000000000000000000000000000081529051600092600160a060020a031691638c5148599160048083019260209291908290030181865afa15801561218a573d6000803e3d6000fd5b505050506040513d601f19601f820116820180604052508101906121ae919061517b565b90506000600560009054906101000a9004600160a060020a0316600160a060020a031663ce5ed5316040518163ffffffff1660e060020a028152600401602060405180830381865afa158015612208573d6000803e3d6000fd5b505050506040513d601f19601f8201168201806040525081019061222c919061517b565b90506000600560009054906101000a9004600160a060020a0316600160a060020a031663b655d0c46040518163ffffffff1660e060020a028152600401602060405180830381865afa158015612286573d6000803e3d6000fd5b505050506040513d601f19601f820116820180604052508101906122aa919061517b565b90506122df600760009054906101000a9004600160a060020a03166000600a5460405180602001604052806000815250613240565b60078054600160a060020a039081166000908152601060209081526040808320805460018101825590845282842001839055935483168252600d81528382208280529052828120429055600554600954935160e360020a63156c136b0281526004810194909452909291169063ab609b5890602401600060405180830381865afa158015612371573d6000803e3d6000fd5b505050506040513d6000823e601f3d908101601f1916820160405261239991908101906150cf565b905060008160a0015161016d84878560400151600a6123b89190614fd9565b6123c29190614fd9565b6123cc9190615194565b6123d69190615194565b6123e09190614fd9565b606083015190915060005b60a08401516123fb87601e614fd9565b6124059190615194565b8110156124be57600b548460a0015161241e9190614fd9565b6124289083614fc6565b600754600160a060020a03166000908152600e60209081526040808320838052825280832081516080810183528881528084018581529281018681526060820186815283546001808201865594885295909620915160049095029091019384559151908301805460ff191691151591909117905551600282015590516003909101559150806124b681614ff0565b9150506123eb565b50600754600a546040517f25449c0e5ee31084238b049b0b0cbfedfa5a73cea85bf863e90f3266930590209261250592600160a060020a03909116916000919030906151b9565b60405180910390a150505050505050565b336000818152600e6020908152604080832086845282528083208054825181850281018501909352808352879493849084015b828210156125a257600084815260209081902060408051608081018252600486029092018054835260018082015460ff161515848601526002820154928401929092526003015460608301529083529092019101612549565b50505050905060008042905060005b8351811015612691578381815181106125cc576125cc614e7a565b602002602001015160400151821015801561260d5750836125ee826001614fc6565b815181106125fe576125fe614e7a565b60200260200101516040015182105b8061264c5750600184516126219190614eac565b8114801561264c575083818151811061263c5761263c614e7a565b6020026020010151604001518210155b8015612675575083818151811061266557612665614e7a565b6020908102919091018101510151155b1561267f57600192505b8061268981614ff0565b9150506125b1565b50816127085760405160e560020a62461bcd02815260206004820152602660248201527f746f6b656e2077617320766573746564206f72206e6f7420696e2074696d652060448201527f7665737465640000000000000000000000000000000000000000000000000000606482015260840161059f565b6005546040805160e060020a63d41c3a6502815290513392600092600160a060020a039091169163d41c3a65916004808201926020929091908290030181865afa15801561275a573d6000803e3d6000fd5b505050506040513d601f19601f8201168201806040525081019061277e9190614fa9565b60008a8152600460205260409020549091506127df5760405160e560020a62461bcd02815260206004820152601260248201527f746f6b656e206964206e6f742065786973740000000000000000000000000000604482015260640161059f565b60006127eb838b610522565b9050600081116128105760405160e560020a62461bcd02815260040161059f90615040565b600160a060020a0383166000908152600e602090815260408083208d845290915281208054429291908c90811061284957612849614e7a565b600091825260209182902060408051608081018252600490930290910180548352600181015460ff1615159383019390935260028301549082018190526003909201546060820152915082108015906128a457506020810151155b6128f35760405160e560020a62461bcd02815260206004820152600f60248201527f76657374696e6720696e76616c69640000000000000000000000000000000000604482015260640161059f565b80516129169086906129059086614fd9565b600160a060020a03871691906130f1565b600160a060020a0385166000908152600e602090815260408083208f845290915290208054600191908d90811061294f5761294f614e7a565b60009182526020909120600490910201600101805460ff1916911515919091179055505050505050505050505050565b600160a060020a03851633148061299b575061299b8533610485565b6129ba5760405160e560020a62461bcd02815260040161059f90614f15565b61093485858585856137cb565b6129cf612edd565b600160a060020a038116612a4e5760405160e560020a62461bcd02815260206004820152602660248201527f4f776e61626c653a206e6577206f776e657220697320746865207a65726f206160448201527f6464726573730000000000000000000000000000000000000000000000000000606482015260840161059f565b61060a8161361d565b600160a060020a038316331480612a735750612a738333610485565b612a925760405160e560020a62461bcd02815260040161059f90614f15565b6115cc8383836138f7565b600160a060020a0382166000908152600f60205260408120805483908110612ac757612ac7614e7a565b60009182526020918290206040805160808101825260049093029091018054600160a060020a031680845260018201549484019490945260028101549183019190915260030154606082015291503314612b665760405160e560020a62461bcd02815260206004820152601f60248201527f6275796572206d757374206265206d6174636820776974682073656c6c657200604482015260640161059f565b6005546040805160e060020a63d41c3a650281529051600092600160a060020a03169163d41c3a659160048083019260209291908290030181865afa158015612bb3573d6000803e3d6000fd5b505050506040513d601f19601f82011682018060405250810190612bd79190614fa9565b82516060840151919250612bf791600160a060020a038416913391613a03565b612c0a3083602001518460400151612a57565b6000612c1560065490565b9050612c363382856040015160405180602001604052806000815250613240565b336000818152600d602090815260408083208584528252808320429055600160a060020a0389168352600e8083528184208884015185528352818420948452825280832085845290915290208154612c8e9290614487565b503360009081526010602090815260408220805460018101825590835291819020909101829055830151612cc3908690610522565b600003612d2057612cd8858460200151613370565b600160a060020a0385166000818152600d6020908152604080832087830180518552908352818420849055938352600e825280832093518352929052908120612d2091614509565b612d2e600680546001019055565b336000908152600f6020908152604091829020549085015191850151606086015191927f76a4be589d7c93e0ab0913d03b86c213355117ee4623619d0adb160f404347ce92899290612d81600187614eac565b30604051612d94969594939291906151e4565b60405180910390a1336000908152600f60205260409020612db6600183614eac565b81548110612dc657612dc6614e7a565b9060005260206000209060040201600f600033600160a060020a0316600160a060020a031681526020019081526020016000208681548110612e0a57612e0a614e7a565b6000918252602080832084546004909302018054600160a060020a031916600160a060020a0390931692909217825560018085015490830155600280850154908301556003938401549390910192909255338152600f90915260409020805480612e7657612e76614ebf565b6000828152602081206004600019909301928302018054600160a060020a03191681556001810182905560028101829055600301559055505050505050565b6000600160e060020a0319821660e560020a63027118970214806105cb57506105cb82613a54565b600354600160a060020a03163314610cb35760405160e560020a62461bcd02815260206004820181905260248201527f4f776e61626c653a2063616c6c6572206973206e6f7420746865206f776e6572604482015260640161059f565b6002611ac08282615262565b8151835114612f6a5760405160e560020a62461bcd02815260040161059f90615328565b600160a060020a038416612f935760405160e560020a62461bcd02815260040161059f90615385565b33612fa2818787878787613aef565b60005b845181101561308b576000858281518110612fc257612fc2614e7a565b602002602001015190506000858381518110612fe057612fe0614e7a565b60209081029190910181015160008481528083526040808220600160a060020a038e1683529093529190912054909150818110156130335760405160e560020a62461bcd02815260040161059f906153e2565b600083815260208181526040808320600160a060020a038e8116855292528083208585039055908b16825281208054849290613070908490614fc6565b925050819055505050508061308490614ff0565b9050612fa5565b5084600160a060020a031686600160a060020a031682600160a060020a03167f4a39dc06d4c0dbc64b70af90fd698a233a518aa5d07e595d983b8c0526c8f7fb87876040516130db92919061543f565b60405180910390a4611807818787878787613da1565b604051600160a060020a0383166024820152604481018290526115cc9084907fa9059cbb00000000000000000000000000000000000000000000000000000000906064015b60408051601f198184030181529190526020810180517bffffffffffffffffffffffffffffffffffffffffffffffffffffffff16600160e060020a031990931692909217909152613f14565b61318a613ffc565b6003805474ff0000000000000000000000000000000000000000191690557f5db9ee0a495bf2e6ff9c91a7834c1ba4fdd244a5e8aa4e537bd38aeae4b073aa335b604051600160a060020a03909116815260200160405180910390a1565b6131f0610df6565b15610cb35760405160e560020a62461bcd02815260206004820152601060248201527f5061757361626c653a2070617573656400000000000000000000000000000000604482015260640161059f565b600160a060020a0384166132bf5760405160e560020a62461bcd02815260206004820152602160248201527f455243313135353a206d696e7420746f20746865207a65726f2061646472657360448201527f7300000000000000000000000000000000000000000000000000000000000000606482015260840161059f565b3360006132cb85614053565b905060006132d885614053565b90506132e983600089858589613aef565b600086815260208181526040808320600160a060020a038b16845290915281208054879290613319908490614fc6565b90915550506040805187815260208101879052600160a060020a03808a169260009291871691600080516020615712833981519152910160405180910390a46133678360008989898961409e565b50505050505050565b60005b336000908152601060205260409020548110156115cc57600160a060020a03831660009081526010602052604090208054839190839081106133b7576133b7614e7a565b90600052602060002001540361346657600160a060020a0383166000908152601060205260409020546133ec90600190614eac565b600160a060020a038416600090815260106020526040902080548390811061341657613416614e7a565b6000918252602080832090910192909255600160a060020a038516815260109091526040902080548061344b5761344b614ebf565b60019003818190600052602060002001600090559055505050565b8061347081614ff0565b915050613373565b600160a060020a0383166134a15760405160e560020a62461bcd02815260040161059f90615464565b80518251146134c55760405160e560020a62461bcd02815260040161059f90615328565b60003390506134e881856000868660405180602001604052806000815250613aef565b60005b83518110156135b057600084828151811061350857613508614e7a565b60200260200101519050600084838151811061352657613526614e7a565b60209081029190910181015160008481528083526040808220600160a060020a038c1683529093529190912054909150818110156135795760405160e560020a62461bcd02815260040161059f906154c1565b600092835260208381526040808520600160a060020a038b16865290915290922091039055806135a881614ff0565b9150506134eb565b506000600160a060020a031684600160a060020a031682600160a060020a03167f4a39dc06d4c0dbc64b70af90fd698a233a518aa5d07e595d983b8c0526c8f7fb868660405161360192919061543f565b60405180910390a4604080516020810190915260009052610c9d565b60038054600160a060020a03838116600160a060020a0319831681179093556040519116919082907f8be0079c531659141344cd1fd0a4f28419497f9722a3daafe3b4186f6b6457e090600090a35050565b6136776131e8565b6003805474ff00000000000000000000000000000000000000001916740100000000000000000000000000000000000000001790557f62e78cea01bee320cd4e420270b5ea74000d11b0c9f74754ebdbfc544b05a2586131cb3390565b81600160a060020a031683600160a060020a03160361375e5760405160e560020a62461bcd02815260206004820152602960248201527f455243313135353a2073657474696e6720617070726f76616c2073746174757360448201527f20666f722073656c660000000000000000000000000000000000000000000000606482015260840161059f565b600160a060020a03838116600081815260016020908152604080832094871680845294825291829020805460ff191686151590811790915591519182527f17307eab39ab6107e8899845ad3d59bd9653f200f220920489ca2b5937696c31910160405180910390a3505050565b600160a060020a0384166137f45760405160e560020a62461bcd02815260040161059f90615385565b33600061380085614053565b9050600061380d85614053565b905061381d838989858589613aef565b600086815260208181526040808320600160a060020a038c168452909152902054858110156138615760405160e560020a62461bcd02815260040161059f906153e2565b600087815260208181526040808320600160a060020a038d8116855292528083208985039055908a1682528120805488929061389e908490614fc6565b90915550506040805188815260208101889052600160a060020a03808b16928c82169291881691600080516020615712833981519152910160405180910390a46138ec848a8a8a8a8a61409e565b505050505050505050565b600160a060020a0383166139205760405160e560020a62461bcd02815260040161059f90615464565b33600061392c84614053565b9050600061393984614053565b905061395983876000858560405180602001604052806000815250613aef565b600085815260208181526040808320600160a060020a038a1684529091529020548481101561399d5760405160e560020a62461bcd02815260040161059f906154c1565b600086815260208181526040808320600160a060020a038b81168086529184528285208a8703905582518b81529384018a9052909290881691600080516020615712833981519152910160405180910390a4604080516020810190915260009052613367565b604051600160a060020a0380851660248301528316604482015260648101829052610c9d9085907f23b872dd0000000000000000000000000000000000000000000000000000000090608401613136565b6000600160e060020a031982167fd9b67a26000000000000000000000000000000000000000000000000000000001480613ab75750600160e060020a031982167f0e89341c00000000000000000000000000000000000000000000000000000000145b806105cb57507f01ffc9a700000000000000000000000000000000000000000000000000000000600160e060020a03198316146105cb565b613af76131e8565b600160a060020a03851615801590613b175750600160a060020a03841615155b15613d9357613b2b86866000868686614162565b60005b8351811015613d8d576000613b4f87868481518110610db457610db4614e7a565b905080848381518110613b6457613b64614e7a565b60200260200101511115613bbd5760405160e560020a62461bcd02815260206004820152601460248201527f696e73756666696369656e742062616c616e6365000000000000000000000000604482015260640161059f565b80600003613c8c57613be887868481518110613bdb57613bdb614e7a565b6020026020010151613370565b600160a060020a0387166000908152600d602052604081208651909190879085908110613c1757613c17614e7a565b6020026020010151815260200190815260200160002060009055600e600088600160a060020a0316600160a060020a031681526020019081526020016000206000868481518110613c6a57613c6a614e7a565b602002602001015181526020019081526020016000206000613c8c9190614509565b6000613c9760065490565b9050613cbe8782878681518110613cb057613cb0614e7a565b602002602001015187613240565b600160a060020a038088166000818152601060209081526040808320805460018101825590845282842001869055928252600d81528282208583528152828220429055928b168152600e90925281208751909190889086908110613d2457613d24614e7a565b60209081029190910181015182528181019290925260409081016000908120600160a060020a038b168252600e8452828220858352909352208154613d699290614487565b50613d78600680546001019055565b50508080613d8590614ff0565b915050613b2e565b50611807565b611807868686868686614162565b600160a060020a0384163b156118075760405160e060020a63bc197c81028152600160a060020a0385169063bc197c8190613de8908990899088908890889060040161551e565b6020604051808303816000875af1925050508015613e23575060408051601f3d908101601f19168201909252613e209181019061557c565b60015b613ede57613e2f615599565b806308c379a003613e6b5750613e436155b9565b80613e4e5750613e6d565b8060405160e560020a62461bcd02815260040161059f919061475e565b505b60405160e560020a62461bcd02815260206004820152603460248201527f455243313135353a207472616e7366657220746f206e6f6e2d4552433131353560448201527f526563656976657220696d706c656d656e746572000000000000000000000000606482015260840161059f565b600160e060020a0319811660e060020a63bc197c8102146133675760405160e560020a62461bcd02815260040161059f90615643565b6000613f69826040518060400160405280602081526020017f5361666545524332303a206c6f772d6c6576656c2063616c6c206661696c656481525085600160a060020a03166142f39092919063ffffffff16565b8051909150156115cc5780806020019051810190613f8791906156a0565b6115cc5760405160e560020a62461bcd02815260206004820152602a60248201527f5361666545524332303a204552433230206f7065726174696f6e20646964206e60448201527f6f74207375636365656400000000000000000000000000000000000000000000606482015260840161059f565b614004610df6565b610cb35760405160e560020a62461bcd02815260206004820152601460248201527f5061757361626c653a206e6f7420706175736564000000000000000000000000604482015260640161059f565b6040805160018082528183019092526060916000919060208083019080368337019050509050828160008151811061408d5761408d614e7a565b602090810291909101015292915050565b600160a060020a0384163b156118075760405160e060020a63f23a6e61028152600160a060020a0385169063f23a6e61906140e590899089908890889088906004016156bd565b6020604051808303816000875af1925050508015614120575060408051601f3d908101601f1916820190925261411d9181019061557c565b60015b61412c57613e2f615599565b600160e060020a0319811660e060020a63f23a6e6102146133675760405160e560020a62461bcd02815260040161059f90615643565b600160a060020a0385166141e95760005b83518110156141e75782818151811061418e5761418e614e7a565b6020026020010151600460008684815181106141ac576141ac614e7a565b6020026020010151815260200190815260200160002060008282546141d19190614fc6565b909155506141e0905081614ff0565b9050614173565b505b600160a060020a0384166118075760005b835181101561336757600084828151811061421757614217614e7a565b60200260200101519050600084838151811061423557614235614e7a565b60200260200101519050600060046000848152602001908152602001600020549050818110156142d05760405160e560020a62461bcd02815260206004820152602860248201527f455243313135353a206275726e20616d6f756e74206578636565647320746f7460448201527f616c537570706c79000000000000000000000000000000000000000000000000606482015260840161059f565b600092835260046020526040909220910390556142ec81614ff0565b90506141fa565b6060614302848460008561430a565b949350505050565b606030318311156143865760405160e560020a62461bcd02815260206004820152602660248201527f416464726573733a20696e73756666696369656e742062616c616e636520666f60448201527f722063616c6c0000000000000000000000000000000000000000000000000000606482015260840161059f565b60008086600160a060020a031685876040516143a291906156f5565b60006040518083038185875af1925050503d80600081146143df576040519150601f19603f3d011682016040523d82523d6000602084013e6143e4565b606091505b50915091506143f587838387614400565b979650505050505050565b6060831561447257825160000361446b57600160a060020a0385163b61446b5760405160e560020a62461bcd02815260206004820152601d60248201527f416464726573733a2063616c6c20746f206e6f6e2d636f6e7472616374000000604482015260640161059f565b5081614302565b6143028383815115613e4e5781518083602001fd5b8280548282559060005260206000209060040281019282156144fd5760005260206000209160040282015b828111156144fd5782548255600180840154908301805460ff191660ff90921615159190911790556002808401549083015560038084015490830155600492830192909101906144b2565b50611ab1929150614526565b508054600082556004029060005260206000209081019061060a91905b5b80821115611ab157600080825560018201805460ff19169055600282018190556003820155600401614527565b600160a060020a038116811461060a57600080fd5b6000806040838503121561457c57600080fd5b823561458781614554565b946020939093013593505050565b600160e060020a03198116811461060a57600080fd5b6000602082840312156145bd57600080fd5b81356145c881614595565b9392505050565b60e060020a634e487b7102600052604160045260246000fd5b601f8201601f1916810167ffffffffffffffff8111828210171561460e5761460e6145cf565b6040525050565b60405160e0810167ffffffffffffffff81118282101715614638576146386145cf565b60405290565b600067ffffffffffffffff821115614658576146586145cf565b50601f01601f191660200190565b60006146718361463e565b60405161467e82826145e8565b80925084815285858501111561469357600080fd5b8484602083013760006020868301015250509392505050565b6000602082840312156146be57600080fd5b813567ffffffffffffffff8111156146d557600080fd5b8201601f810184136146e657600080fd5b61430284823560208401614666565b60006020828403121561470757600080fd5b5035919050565b60005b83811015614729578181015183820152602001614711565b50506000910152565b6000815180845261474a81602086016020860161470e565b601f01601f19169290920160200192915050565b6020815260006145c86020830184614732565b602080825282518282018190526000919060409081850190868401855b828110156147ca57815180518552868101511515878601528581015186860152606090810151908501526080909301929085019060010161478e565b5091979650505050505050565b600067ffffffffffffffff8211156147f1576147f16145cf565b5060209081020190565b600082601f83011261480c57600080fd5b81356020614819826147d7565b60405161482682826145e8565b838152928202850182019282810191508684111561484357600080fd5b8286015b8481101561485e5780358352918301918301614847565b509695505050505050565b600082601f83011261487a57600080fd5b6145c883833560208501614666565b600080600080600060a086880312156148a157600080fd5b85356148ac81614554565b945060208601356148bc81614554565b9350604086013567ffffffffffffffff808211156148d957600080fd5b6148e589838a016147fb565b945060608801359150808211156148fb57600080fd5b61490789838a016147fb565b9350608088013591508082111561491d57600080fd5b5061492a88828901614869565b9150509295509295909350565b6000806040838503121561494a57600080fd5b823567ffffffffffffffff8082111561496257600080fd5b818501915085601f83011261497657600080fd5b81356020614983826147d7565b60405161499082826145e8565b83815292820285018201928281019150898411156149ad57600080fd5b948201945b838610156149d45785356149c581614554565b825294820194908201906149b2565b965050860135925050808211156149ea57600080fd5b506149f7858286016147fb565b9150509250929050565b600081518084526020808501945080840160005b83811015614a3157815187529582019590820190600101614a15565b509495945050505050565b6020815260006145c86020830184614a01565b60008060408385031215614a6257600080fd5b50508035926020909101359150565b600080600060608486031215614a8657600080fd5b8335614a9181614554565b9250602084013567ffffffffffffffff80821115614aae57600080fd5b614aba878388016147fb565b93506040860135915080821115614ad057600080fd5b50614add868287016147fb565b9150509250925092565b801515811461060a57600080fd5b60008060408385031215614b0857600080fd5b8235614b1381614554565b91506020830135614b2381614ae7565b809150509250929050565b60008060008060808587031215614b4457600080fd5b8435614b4f81614554565b966020860135965060408601359560600135945092505050565b60008083601f840112614b7b57600080fd5b50813567ffffffffffffffff811115614b9357600080fd5b6020830191508360208083028501011115614bad57600080fd5b9250929050565b60008083601f840112614bc657600080fd5b50813567ffffffffffffffff811115614bde57600080fd5b602083019150836020828501011115614bad57600080fd5b60008060008060008060008060a0898b031215614c1257600080fd5b8835614c1d81614554565b97506020890135614c2d81614554565b9650604089013567ffffffffffffffff80821115614c4a57600080fd5b614c568c838d01614b69565b909850965060608b0135915080821115614c6f57600080fd5b614c7b8c838d01614b69565b909650945060808b0135915080821115614c9457600080fd5b50614ca18b828c01614bb4565b999c989b5096995094979396929594505050565b602080825282518282018190526000919060409081850190868401855b828110156147ca5781518051600160a060020a03168552868101518786015285810151868601526060908101519085015260809093019290850190600101614cd2565b60008060408385031215614d2857600080fd5b8235614d3381614554565b91506020830135614b2381614554565b60008060008060008060a08789031215614d5c57600080fd5b8635614d6781614554565b95506020870135614d7781614554565b94506040870135935060608701359250608087013567ffffffffffffffff811115614da157600080fd5b614dad89828a01614bb4565b979a9699509497509295939492505050565b600080600080600060a08688031215614dd757600080fd5b8535614de281614554565b94506020860135614df281614554565b93506040860135925060608601359150608086013567ffffffffffffffff811115614e1c57600080fd5b61492a88828901614869565b600060208284031215614e3a57600080fd5b81356145c881614554565b600080600060608486031215614e5a57600080fd5b8335614e6581614554565b95602085013595506040909401359392505050565b60e060020a634e487b7102600052603260045260246000fd5b60e060020a634e487b7102600052601160045260246000fd5b818103818111156105cb576105cb614e93565b60e060020a634e487b7102600052603160045260246000fd5b600281046001821680614eec57607f821691505b602082108103614f0f5760e060020a634e487b7102600052602260045260246000fd5b50919050565b6020808252602e908201527f455243313135353a2063616c6c6572206973206e6f7420746f6b656e206f776e60408201527f6572206f7220617070726f766564000000000000000000000000000000000000606082015260800190565b60208082526011908201527f6d757374206265207075626c6973686572000000000000000000000000000000604082015260600190565b600060208284031215614fbb57600080fd5b81516145c881614554565b808201808211156105cb576105cb614e93565b80820281158282048414176105cb576105cb614e93565b60006001820161500257615002614e93565b5060010190565b6020808252600d908201527f4e4654206e6f7420657869737400000000000000000000000000000000000000604082015260600190565b60208082526019908201527f6e6f74206f776e6572206f66207468697320746f6b656e496400000000000000604082015260600190565b600082601f83011261508857600080fd5b81516150938161463e565b6040516150a082826145e8565b8281528560208487010111156150b557600080fd5b6150c683602083016020880161470e565b95945050505050565b6000602082840312156150e157600080fd5b815167ffffffffffffffff808211156150f957600080fd5b9083019060e0828603121561510d57600080fd5b615115614615565b8251815260208301518281111561512b57600080fd5b61513787828601615077565b60208301525060408301516040820152606083015160608201526080830151608082015260a083015160a082015260c083015160c082015280935050505092915050565b60006020828403121561518d57600080fd5b5051919050565b6000826151b45760e060020a634e487b7102600052601260045260246000fd5b500490565b600160a060020a03948516815260208101939093526040830191909152909116606082015260800190565b600160a060020a039687168152602081019590955260408501939093526060840191909152608083015290911660a082015260c00190565b601f8211156115cc576000818152602081206020601f860104810160208610156152435750805b6020601f860104820191505b818110156118075782815560010161524f565b815167ffffffffffffffff81111561527c5761527c6145cf565b6152908161528a8454614ed8565b8461521c565b602080601f8311600181146152c957600084156152ad5750858301515b60028086026008870290910a6000190419821617865550611807565b600085815260208120601f198616915b828110156152f8578886015182559484019460019091019084016152d9565b508582101561531857878501516008601f88160260020a60001904191681555b5050505050600202600101905550565b60208082526028908201527f455243313135353a2069647320616e6420616d6f756e7473206c656e6774682060408201527f6d69736d61746368000000000000000000000000000000000000000000000000606082015260800190565b60208082526025908201527f455243313135353a207472616e7366657220746f20746865207a65726f20616460408201527f6472657373000000000000000000000000000000000000000000000000000000606082015260800190565b6020808252602a908201527f455243313135353a20696e73756666696369656e742062616c616e636520666f60408201527f72207472616e7366657200000000000000000000000000000000000000000000606082015260800190565b6040815260006154526040830185614a01565b82810360208401526150c68185614a01565b60208082526023908201527f455243313135353a206275726e2066726f6d20746865207a65726f206164647260408201527f6573730000000000000000000000000000000000000000000000000000000000606082015260800190565b60208082526024908201527f455243313135353a206275726e20616d6f756e7420657863656564732062616c60408201527f616e636500000000000000000000000000000000000000000000000000000000606082015260800190565b6000600160a060020a03808816835280871660208401525060a0604083015261554a60a0830186614a01565b828103606084015261555c8186614a01565b905082810360808401526155708185614732565b98975050505050505050565b60006020828403121561558e57600080fd5b81516145c881614595565b600060033d11156155b65760046000803e60e060020a6000510490505b90565b600060443d10156155c75790565b6040516003193d81016004833e81513d67ffffffffffffffff81602484011181841117156155f757505050505090565b828501915081518181111561560f5750505050505090565b843d87010160208285010111156156295750505050505090565b615638602082860101876145e8565b509095945050505050565b60208082526028908201527f455243313135353a204552433131353552656365697665722072656a6563746560408201527f6420746f6b656e73000000000000000000000000000000000000000000000000606082015260800190565b6000602082840312156156b257600080fd5b81516145c881614ae7565b6000600160a060020a03808816835280871660208401525084604083015283606083015260a060808301526143f560a0830184614732565b6000825161570781846020870161470e565b919091019291505056fec3d58168c5ae7397731d063d5bbf3d657854427343f4c083240f7aacaa2d0f62a26469706673582212206b65315146288a80bd188efc69e2db1f088352a413f9e5322fa206fe0822b8cb64736f6c63430008130033a264697066735822122005aea4f92138120e3acfb9013f154fce09c403c9625800d226b319254cb478ef64736f6c63430008130033",
  "immutableReferences": {},
  "source": "// SPDX-License-Identifier: MIT\npragma solidity ^0.8.9;\nimport \"@openzeppelin/contracts/utils/structs/EnumerableMap.sol\";\nimport \"@openzeppelin/contracts/access/Ownable.sol\";\nimport \"./fund-cert-nft-wrap.sol\";\n\ncontract FundCertProvider is Ownable {\n    mapping(uint256 => address) contractWrap;\n    address creater;\n\n    modifier onlyCreater(address _creater) {\n        require(creater == _creater, \"this feature just for creater\");\n        _;\n    }\n\n    function createContract(\n        address _owner,\n        uint256 _tokenId, \n        address _contractFC, \n        address _publisher, \n        uint256 _amount) \n        public \n        onlyCreater(msg.sender)\n    {\n        FundCertificateWrapped fundCertificateWrapped = new FundCertificateWrapped(_tokenId, _contractFC, _publisher, _amount);\n        fundCertificateWrapped.transferOwnership(_owner);\n        contractWrap[_tokenId] = address(fundCertificateWrapped);\n    }\n\n    function getContractAddress(uint256 _tokenId) public view returns(address){\n        return contractWrap[_tokenId];\n    } \n\n    function setCreater(address _newCreater) public onlyOwner{\n        creater = _newCreater;\n    }\n\n    function getCreater() public view returns(address){\n        return creater;\n    }\n}",
  "sourcePath": "/Users/tannguyen/Documents/GitHub/ccq-nft/contracts/fund-cert-provider.sol",
  "compiler": {
    "name": "solc",
    "version": "0.8.19+commit.7dd6d404.Emscripten.clang"
  },
  "schemaVersion": "3.4.13",
  "updatedAt": "2023-04-12T03:43:11.184Z",
  "devdoc": {
    "kind": "dev",
    "methods": {
      "owner()": {
        "details": "Returns the address of the current owner."
      },
      "renounceOwnership()": {
        "details": "Leaves the contract without owner. It will not be possible to call `onlyOwner` functions anymore. Can only be called by the current owner. NOTE: Renouncing ownership will leave the contract without an owner, thereby removing any functionality that is only available to the owner."
      },
      "transferOwnership(address)": {
        "details": "Transfers ownership of the contract to a new account (`newOwner`). Can only be called by the current owner."
      }
    },
    "version": 1
  },
  "userdoc": {
    "kind": "user",
    "methods": {},
    "version": 1
  }
}