{
  "contractName": "FundCertProvider",
  "abi": [
    {
      "anonymous": false,
      "inputs": [
        {
          "indexed": true,
          "internalType": "address",
          "name": "previousOwner",
          "type": "address"
        },
        {
          "indexed": true,
          "internalType": "address",
          "name": "newOwner",
          "type": "address"
        }
      ],
      "name": "OwnershipTransferred",
      "type": "event"
    },
    {
      "inputs": [],
      "name": "owner",
      "outputs": [
        {
          "internalType": "address",
          "name": "",
          "type": "address"
        }
      ],
      "stateMutability": "view",
      "type": "function"
    },
    {
      "inputs": [],
      "name": "renounceOwnership",
      "outputs": [],
      "stateMutability": "nonpayable",
      "type": "function"
    },
    {
      "inputs": [
        {
          "internalType": "address",
          "name": "newOwner",
          "type": "address"
        }
      ],
      "name": "transferOwnership",
      "outputs": [],
      "stateMutability": "nonpayable",
      "type": "function"
    },
    {
      "inputs": [
        {
          "internalType": "address",
          "name": "_owner",
          "type": "address"
        },
        {
          "internalType": "uint256",
          "name": "_tokenId",
          "type": "uint256"
        },
        {
          "internalType": "address",
          "name": "_contractFC",
          "type": "address"
        },
        {
          "internalType": "address",
          "name": "_publisher",
          "type": "address"
        },
        {
          "internalType": "uint256",
          "name": "_amount",
          "type": "uint256"
        }
      ],
      "name": "createContract",
      "outputs": [],
      "stateMutability": "nonpayable",
      "type": "function"
    },
    {
      "inputs": [
        {
          "internalType": "uint256",
          "name": "_tokenId",
          "type": "uint256"
        }
      ],
      "name": "getContractAddress",
      "outputs": [
        {
          "internalType": "address",
          "name": "",
          "type": "address"
        }
      ],
      "stateMutability": "view",
      "type": "function"
    },
    {
      "inputs": [
        {
          "internalType": "address",
          "name": "_newCreater",
          "type": "address"
        }
      ],
      "name": "setCreater",
      "outputs": [],
      "stateMutability": "nonpayable",
      "type": "function"
    },
    {
      "inputs": [],
      "name": "getCreater",
      "outputs": [
        {
          "internalType": "address",
          "name": "",
          "type": "address"
        }
      ],
      "stateMutability": "view",
      "type": "function"
    }
  ],
  "bytecode": "0x608060405234801561001057600080fd5b50610033610025640100000000610038810204565b64010000000061003c810204565b61008c565b3390565b60008054600160a060020a03838116600160a060020a0319831681178455604051919092169283917f8be0079c531659141344cd1fd0a4f28419497f9722a3daafe3b4186f6b6457e09190a35050565b6157f68061009b6000396000f3fe608060405234801561001057600080fd5b506004361061009a576000357c010000000000000000000000000000000000000000000000000000000090048063aefa7d9811610078578063aefa7d98146100e5578063c58fdcd31461010e578063d5fc2ae71461011f578063f2fde38b1461013257600080fd5b806325877d321461009f578063715018a6146100b45780638da5cb5b146100bc575b600080fd5b6100b26100ad3660046104ba565b610145565b005b6100b261017c565b600054600160a060020a03165b604051600160a060020a03909116815260200160405180910390f35b6100c96100f33660046104dc565b600090815260016020526040902054600160a060020a031690565b600254600160a060020a03166100c9565b6100b261012d3660046104f5565b610190565b6100b26101403660046104ba565b610315565b61014d6103bf565b6002805473ffffffffffffffffffffffffffffffffffffffff1916600160a060020a0392909216919091179055565b6101846103bf565b61018e6000610433565b565b6002543390600160a060020a0316811461020b576040517f08c379a000000000000000000000000000000000000000000000000000000000815260206004820152601d60248201527f746869732066656174757265206a75737420666f72206372656174657200000060448201526064015b60405180910390fd5b60008585858560405161021d90610490565b938452600160a060020a039283166020850152911660408301526060820152608001604051809103906000f08015801561025b573d6000803e3d6000fd5b506040517ff2fde38b000000000000000000000000000000000000000000000000000000008152600160a060020a0389811660048301529192509082169063f2fde38b90602401600060405180830381600087803b1580156102bc57600080fd5b505af11580156102d0573d6000803e3d6000fd5b50505060009687525060016020526040909520805473ffffffffffffffffffffffffffffffffffffffff1916600160a060020a03909616959095179094555050505050565b61031d6103bf565b600160a060020a0381166103b3576040517f08c379a000000000000000000000000000000000000000000000000000000000815260206004820152602660248201527f4f776e61626c653a206e6577206f776e657220697320746865207a65726f206160448201527f64647265737300000000000000000000000000000000000000000000000000006064820152608401610202565b6103bc81610433565b50565b600054600160a060020a0316331461018e576040517f08c379a000000000000000000000000000000000000000000000000000000000815260206004820181905260248201527f4f776e61626c653a2063616c6c6572206973206e6f7420746865206f776e65726044820152606401610202565b60008054600160a060020a0383811673ffffffffffffffffffffffffffffffffffffffff19831681178455604051919092169283917f8be0079c531659141344cd1fd0a4f28419497f9722a3daafe3b4186f6b6457e09190a35050565b615276806200054b83390190565b8035600160a060020a03811681146104b557600080fd5b919050565b6000602082840312156104cc57600080fd5b6104d58261049e565b9392505050565b6000602082840312156104ee57600080fd5b5035919050565b600080600080600060a0868803121561050d57600080fd5b6105168661049e565b94506020860135935061052b6040870161049e565b92506105396060870161049e565b94979396509194608001359291505056fe60a060405260016080819052600655603c600b553480156200002057600080fd5b506040516200527638038062005276833981016040819052620000439162000170565b6040805160208101909152600081526200006681640100000000620000eb810204565b506200008d6200007e640100000000620000fd810204565b64010000000062000101810204565b6003805460a060020a60ff021916905560099390935560088054600160a060020a03938416600160a060020a03199182168117909255600780549390941692811692909217909255600a929092556005805490921617905562000363565b6002620000f9828262000290565b5050565b3390565b60038054600160a060020a03838116600160a060020a0319831681179093556040519116919082907f8be0079c531659141344cd1fd0a4f28419497f9722a3daafe3b4186f6b6457e090600090a35050565b8051600160a060020a03811681146200016b57600080fd5b919050565b600080600080608085870312156200018757600080fd5b84519350620001996020860162000153565b9250620001a96040860162000153565b6060959095015193969295505050565b7f4e487b7100000000000000000000000000000000000000000000000000000000600052604160045260246000fd5b600281046001821680620001fd57607f821691505b60208210810362000237577f4e487b7100000000000000000000000000000000000000000000000000000000600052602260045260246000fd5b50919050565b601f8211156200028b576000818152602081206020601f86010481016020861015620002665750805b6020601f860104820191505b81811015620002875782815560010162000272565b5050505b505050565b815167ffffffffffffffff811115620002ad57620002ad620001b9565b620002c581620002be8454620001e8565b846200023d565b602080601f831160018114620003015760008415620002e45750858301515b60028086026008870290910a600019041982161786555062000287565b600085815260208120601f198616915b82811015620003325788860151825594840194600190910190840162000311565b50858210156200035357878501516008601f88160260020a60001904191681555b5050505050600202600101905550565b614f0380620003736000396000f3fe608060405234801561001057600080fd5b50600436106101fe5760003560e060020a900480638456cb591161011e578063ddc63262116100b1578063f23a6e6111610080578063f23a6e611461046b578063f242432a146104a4578063f2fde38b146104b7578063f5298aca146104ca578063f786082b146104dd57600080fd5b8063ddc632621461040c578063e850497a1461041f578063e985e9c514610427578063eb91d37e1461046357600080fd5b8063bc197c81116100ed578063bc197c81146103a3578063bd85b039146103cf578063cd9e671d146103ef578063d46eb1191461040457600080fd5b80638456cb591461035a5780638da5cb5b14610362578063a22cb4651461037d578063afee96b71461039057600080fd5b80634e1273f4116101965780636b20c454116101655780636b20c4541461032f5780636c14386214610342578063715018a61461034a578063824d9f121461035257600080fd5b80634e1273f4146102b75780634f558e79146102d75780635c975abb146102f957806362acff4e1461031c57600080fd5b80630e89341c116101d25780630e89341c146102745780632947ef38146102945780632eb2c2d61461029c5780633f4ba83a146102af57600080fd5b8062fdd58e1461020357806301ffc9a71461022957806302fe53051461024c57806307c5a0c614610261575b600080fd5b610216610211366004613ea4565b6104f0565b6040519081526020015b60405180910390f35b61023c610237366004613ee6565b61059f565b6040519015158152602001610220565b61025f61025a366004613fae565b6105dd565b005b61025f61026f366004613ff7565b6105f1565b610287610282366004613ff7565b6107bb565b6040516102209190614060565b600954610216565b61025f6102aa36600461411a565b61084f565b61025f61089e565b6102ca6102c53660046141c8565b6108b0565b60405161022091906142cd565b61023c6102e5366004613ff7565b600090815260046020526040902054151590565b60035474010000000000000000000000000000000000000000900460ff1661023c565b61025f61032a3660046142e0565b6109f1565b61025f61033d366004614302565b61114c565b610216611197565b61025f6111a7565b61025f6111b9565b61025f611407565b600354604051600160a060020a039091168152602001610220565b61025f61038b366004614386565b611417565b61025f61039e3660046143bf565b611426565b6103b66103b1366004614487565b611640565b604051600160e060020a03199091168152602001610220565b6102166103dd366004613ff7565b60009081526004602052604090205490565b6103f761168e565b6040516102209190614546565b61025f611723565b61025f61041a366004613ff7565b611b44565b61025f612054565b61023c6104353660046145b3565b600160a060020a03918216600090815260016020908152604080832093909416825291909152205460ff1690565b6102166121fe565b6103b66104793660046145e1565b7ff23a6e61000000000000000000000000000000000000000000000000000000009695505050505050565b61025f6104b236600461465d565b612534565b61025f6104c53660046146c6565b61257c565b61025f6104d83660046146e3565b61260c565b61025f6104eb366004613ea4565b612652565b6000600160a060020a0383166105765760405160e560020a62461bcd02815260206004820152602a60248201527f455243313135353a2061646472657373207a65726f206973206e6f742061207660448201527f616c6964206f776e65720000000000000000000000000000000000000000000060648201526084015b60405180910390fd5b50600081815260208181526040808320600160a060020a03861684529091529020545b92915050565b6000600160e060020a031982167f4e2312e0000000000000000000000000000000000000000000000000000000001480610599575061059982612a66565b6105e5612aa4565b6105ee81612b01565b50565b336000818152600f60205260409020805461068992309290918590811061061a5761061a614718565b906000526020600020906004020160010154600f600033600160a060020a0316600160a060020a03168152602001908152602001600020858154811061066257610662614718565b90600052602060002090600402016002015460405180602001604052806000815250612534565b336000908152600f602052604090208054906106a660018361474a565b815481106106b6576106b6614718565b9060005260206000209060040201600f600033600160a060020a0316600160a060020a0316815260200190815260200160002083815481106106fa576106fa614718565b600091825260208083208454600490930201805473ffffffffffffffffffffffffffffffffffffffff1916600160a060020a0390931692909217825560018085015490830155600280850154908301556003938401549390910192909255338152600f909152604090208054806107735761077361475d565b600082815260208120600460001990930192830201805473ffffffffffffffffffffffffffffffffffffffff1916815560018101829055600281018290556003015590555050565b6060600280546107ca90614776565b80601f01602080910402602001604051908101604052809291908181526020018280546107f690614776565b80156108435780601f1061081857610100808354040283529160200191610843565b820191906000526020600020905b81548152906001019060200180831161082657829003601f168201915b50505050509050919050565b600160a060020a03851633148061086b575061086b8533610435565b61088a5760405160e560020a62461bcd02815260040161056d906147b3565b6108978585858585612b0d565b5050505050565b6108a6612aa4565b6108ae612cc0565b565b6060815183511461092c5760405160e560020a62461bcd02815260206004820152602960248201527f455243313135353a206163636f756e747320616e6420696473206c656e67746860448201527f206d69736d617463680000000000000000000000000000000000000000000000606482015260840161056d565b6000835167ffffffffffffffff81111561094857610948613f0a565b604051908082528060200260200182016040528015610971578160200160208202803683370190505b50905060005b84518110156109e9576109bc85828151811061099557610995614718565b60200260200101518583815181106109af576109af614718565b60200260200101516104f0565b8282815181106109ce576109ce614718565b60209081029190910101526109e281614810565b9050610977565b509392505050565b6109f9612d26565b60055460095460405160e360020a63156c136b0281526004810191909152600091600160a060020a03169063ab609b589060240160c060405180830381865afa158015610a4a573d6000803e3d6000fd5b505050506040513d601f19601f82011682018060405250810190610a6e9190614829565b600084815260046020526040902054909150610acf5760405160e560020a62461bcd02815260206004820152600d60248201527f4e4654206e6f7420657869737400000000000000000000000000000000000000604482015260640161056d565b6000610adb33856104f0565b905060008111610b005760405160e560020a62461bcd02815260040161056d906148a3565b80831115610b795760405160e560020a62461bcd02815260206004820152603360248201527f6e756d626572206f66206e6674206d757374206265206c657373207468616e2060448201527f6f7220657175616c20746f2062616c616e636500000000000000000000000000606482015260840161056d565b610b8433858561260c565b6000610b8f60065490565b9050610bc1600760009054906101000a9004600160a060020a0316828660405180602001604052806000815250612d94565b60078054600160a060020a039081166000908152600d602090815260408083208684528252808320429055338352600e8083528184208b85528352818420955490941683529281528282208583529052208154610c1e9290613dcf565b50610c2933866104f0565b600003610c6857336000818152600d602090815260408083208984528252808320839055928252600e81528282208883529052908120610c6891613e4b565b610c76600680546001019055565b336000908152600d60209081526040808320888452825280832054908601516080870151928701519193909291610cae90600a6148da565b90506000600560009054906101000a9004600160a060020a0316600160a060020a0316638c5148596040518163ffffffff1660e060020a028152600401602060405180830381865afa158015610d08573d6000803e3d6000fd5b505050506040513d601f19601f82011682018060405250810190610d2c91906148f1565b90506000600560009054906101000a9004600160a060020a0316600160a060020a031663d41c3a656040518163ffffffff1660e060020a028152600401602060405180830381865afa158015610d86573d6000803e3d6000fd5b505050506040513d601f19601f82011682018060405250810190610daa919061490a565b90506000600560009054906101000a9004600160a060020a0316600160a060020a031663b655d0c46040518163ffffffff1660e060020a028152600401602060405180830381865afa158015610e04573d6000803e3d6000fd5b505050506040513d601f19601f82011682018060405250810190610e2891906148f1565b905084610e35874261474a565b610e3f9190614927565b85610e4a888a61474a565b610e549190614927565b03610fb357600b54600090610e69888a61474a565b610e739190614927565b9050600061016d8284610e86888a6148da565b610e909190614927565b610e9a91906148da565b610ea49190614927565b610eae908761494c565b90506000600b548a42610ec1919061474a565b610ecb9190614927565b6005546040517fcb14a2a600000000000000000000000000000000000000000000000000000000815260048101839052919250600091600160a060020a039091169063cb14a2a690602401602060405180830381865afa158015610f33573d6000803e3d6000fd5b505050506040513d601f19601f82011682018060405250810190610f5791906148f1565b9050600061016d8387610f6a858d6148da565b610f749190614927565b610f7e91906148da565b610f889190614927565b9050610fa933610f98838761494c565b600160a060020a038a169190612ecd565b50505050506110f7565b600b54600090868082610fc68b4261474a565b610fd09190614927565b610fda9190614927565b610fe491906148da565b610fee91906148da565b610ff8908861494c565b90506000600b54824261100b919061474a565b6110159190614927565b6005546040517fcb14a2a600000000000000000000000000000000000000000000000000000000815260048101839052919250600091600160a060020a039091169063cb14a2a690602401602060405180830381865afa15801561107d573d6000803e3d6000fd5b505050506040513d601f19601f820116820180604052508101906110a191906148f1565b9050600061016d83866110b4858c6148da565b6110be9190614927565b6110c891906148da565b6110d29190614927565b6110dc908961494c565b90506110f2600160a060020a0387163383612ecd565b505050505b60408051338152602081018e90529081018c90523060608201527fd9c77cacdb15b1ea4742f01ab86dbb48e0a45cbc5620f86759263b11fae20d7f9060800160405180910390a1505050505050505050505050565b600160a060020a03831633148061116857506111688333610435565b6111875760405160e560020a62461bcd02815260040161056d906147b3565b611192838383612f5e565b505050565b60006111a260065490565b905090565b6111af612aa4565b6108ae6000613105565b6111c1612d26565b6007543390600160a060020a031681116112205760405160e560020a62461bcd02815260206004820152601160248201527f6d757374206265207075626c6973686572000000000000000000000000000000604482015260640161056d565b60055460095460405160e360020a63156c136b0281526004810191909152600091600160a060020a03169063ab609b589060240160c060405180830381865afa158015611271573d6000803e3d6000fd5b505050506040513d601f19601f820116820180604052508101906112959190614829565b905080606001514210156112ee5760405160e560020a62461bcd02815260206004820152601560248201527f6e6f7420696e2074696d6520746f2072656465656d0000000000000000000000604482015260640161056d565b6008546009546040517efdd58e0000000000000000000000000000000000000000000000000000000081523060048201526024810191909152600091600160a060020a03169062fdd58e90604401602060405180830381865afa158015611359573d6000803e3d6000fd5b505050506040513d601f19601f8201168201806040525081019061137d91906148f1565b6008546009546040517ff242432a000000000000000000000000000000000000000000000000000000008152929350600160a060020a039091169163f242432a916113d09130913391879060040161495f565b600060405180830381600087803b1580156113ea57600080fd5b505af11580156113fe573d6000803e3d6000fd5b50505050505050565b61140f612aa4565b6108ae613164565b6114223383836131c9565b5050565b338361144081600090815260046020526040902054151590565b61148f5760405160e560020a62461bcd02815260206004820152600d60248201527f4e4654206e6f7420657869737400000000000000000000000000000000000000604482015260640161056d565b600061149b83836104f0565b116114bb5760405160e560020a62461bcd02815260040161056d906148a3565b836114c633876104f0565b101561153d5760405160e560020a62461bcd02815260206004820152602c60248201527f616d6f756e74206d757374206265206c657373207468616e206f72206571756160448201527f6c20746f2062616c616e63650000000000000000000000000000000000000000606482015260840161056d565b6115593330878760405180602001604052806000815250612534565b336000818152600f602081815260408084208151608081018352600160a060020a038d811682528185018d81529382018c8152606083018c8152845460018082018755868b52888b2095516004909202909501805473ffffffffffffffffffffffffffffffffffffffff1916919094161783559451828401555160028201559251600390930192909255949093525290547fc32236657d4359a0aed0874caf4bb9994ee6406d0849ec122bce1883b8b70b7291889188918891889161161d9161474a565b3060405161163096959493929190614997565b60405180910390a1505050505050565b60405160e560020a62461bcd02815260206004820152601d60248201527f6261746368207472616e7366657273206e6f7420737570706f72746564000000604482015260009060640161056d565b336000908152600f60209081526040808320805482518185028101850190935280835260609492939192909184015b8282101561171a57600084815260209081902060408051608081018252600486029092018054600160a060020a031683526001808201548486015260028201549284019290925260030154606083015290835290920191016116bd565b50505050905090565b61172b612d26565b600554604080517f8c5148590000000000000000000000000000000000000000000000000000000081529051600092600160a060020a031691638c5148599160048083019260209291908290030181865afa15801561178e573d6000803e3d6000fd5b505050506040513d601f19601f820116820180604052508101906117b291906148f1565b90506000600560009054906101000a9004600160a060020a0316600160a060020a031663ce5ed5316040518163ffffffff1660e060020a028152600401602060405180830381865afa15801561180c573d6000803e3d6000fd5b505050506040513d601f19601f8201168201806040525081019061183091906148f1565b90506000600560009054906101000a9004600160a060020a0316600160a060020a031663b655d0c46040518163ffffffff1660e060020a028152600401602060405180830381865afa15801561188a573d6000803e3d6000fd5b505050506040513d601f19601f820116820180604052508101906118ae91906148f1565b9050600860009054906101000a9004600160a060020a0316600160a060020a031663f242432a3330600954600a54600a6118e891906148da565b6040518563ffffffff1660e060020a02815260040161190a949392919061495f565b600060405180830381600087803b15801561192457600080fd5b505af1158015611938573d6000803e3d6000fd5b5050600754600a54604080516020810190915260008082526119679550600160a060020a039093169350612d94565b60055460095460405160e360020a63156c136b0281526004810191909152600091600160a060020a03169063ab609b589060240160c060405180830381865afa1580156119b8573d6000803e3d6000fd5b505050506040513d601f19601f820116820180604052508101906119dc9190614829565b90506000816080015161016d84878560200151600a6119fb91906148da565b611a0591906148da565b611a0f9190614927565b611a199190614927565b611a2391906148da565b604083015190915060005b6080840151611a3e87601e6148da565b611a489190614927565b811015611af257600b548460800151611a6191906148da565b611a6b908361494c565b600754600160a060020a03166000908152600e60209081526040808320838052825280832081516060810183528881528084018581529281018681528254600180820185559387529490952090516003909402019283559051908201805460ff19169115159190911790559051600290910155915080611aea81614810565b915050611a2e565b50600754600a5460408051600160a060020a039093168352600060208401528201523060608201527f25449c0e5ee31084238b049b0b0cbfedfa5a73cea85bf863e90f32669305902090608001611630565b336000818152600e6020908152604080832085845282528083208054825181850281018501909352808352869493849084015b82821015611bc857600084815260209081902060408051606081018252600386029092018054835260018082015460ff16151584860152600290910154918301919091529083529092019101611b77565b50505050905060008042905060005b8351811015611cb757838181518110611bf257611bf2614718565b6020026020010151604001518210158015611c33575083611c1482600161494c565b81518110611c2457611c24614718565b60200260200101516040015182105b80611c72575060018451611c47919061474a565b81148015611c725750838181518110611c6257611c62614718565b6020026020010151604001518210155b8015611c9b5750838181518110611c8b57611c8b614718565b6020908102919091018101510151155b15611ca557600192505b80611caf81614810565b915050611bd7565b5081611d2e5760405160e560020a62461bcd02815260206004820152602660248201527f746f6b656e2077617320766573746564206f72206e6f7420696e2074696d652060448201527f7665737465640000000000000000000000000000000000000000000000000000606482015260840161056d565b600554604080517fd41c3a650000000000000000000000000000000000000000000000000000000081529051600092600160a060020a03169163d41c3a659160048083019260209291908290030181865afa158015611d91573d6000803e3d6000fd5b505050506040513d601f19601f82011682018060405250810190611db5919061490a565b600088815260046020526040902054909150611e165760405160e560020a62461bcd02815260206004820152601260248201527f746f6b656e206964206e6f742065786973740000000000000000000000000000604482015260640161056d565b6000611e2233896104f0565b905060008111611e475760405160e560020a62461bcd02815260040161056d906148a3565b336000908152600e602090815260408083208b8452825280832080548251818502810185019093528083529192909190849084015b82821015611ecd57600084815260209081902060408051606081018252600386029092018054835260018082015460ff16151584860152600290910154918301919091529083529092019101611e7c565b505050509050600042905060005b825181101561204757828181518110611ef657611ef6614718565b6020026020010151604001518210158015611f37575082611f1882600161494c565b81518110611f2857611f28614718565b60200260200101516040015182105b80611f76575060018351611f4b919061474a565b81148015611f765750828181518110611f6657611f66614718565b6020026020010151604001518210155b8015611f9f5750828181518110611f8f57611f8f614718565b6020908102919091018101510151155b1561203557611fe233848381518110611fba57611fba614718565b60200260200101516000015186611fd191906148da565b600160a060020a0388169190612ecd565b336000908152600e602090815260408083208e845290915290208054600191908390811061201257612012614718565b60009182526020909120600390910201600101805460ff19169115159190911790555b8061203f81614810565b915050611edb565b5050505050505050505050565b61205c612aa4565b600554604080517fd41c3a650000000000000000000000000000000000000000000000000000000081529051600092600160a060020a03169163d41c3a659160048083019260209291908290030181865afa1580156120bf573d6000803e3d6000fd5b505050506040513d601f19601f820116820180604052508101906120e3919061490a565b90506000600560009054906101000a9004600160a060020a0316600160a060020a031663d75b40ba6040518163ffffffff1660e060020a028152600401602060405180830381865afa15801561213d573d6000803e3d6000fd5b505050506040513d601f19601f82011682018060405250810190612161919061490a565b6040517f70a08231000000000000000000000000000000000000000000000000000000008152306004820152909150600090600160a060020a038416906370a0823190602401602060405180830381865afa1580156121c4573d6000803e3d6000fd5b505050506040513d601f19601f820116820180604052508101906121e891906148f1565b9050611192600160a060020a0384168383612ecd565b60055460095460405160e360020a63156c136b0281526000928392600160a060020a039091169163ab609b589161223b9160040190815260200190565b60c060405180830381865afa158015612258573d6000803e3d6000fd5b505050506040513d601f19601f8201168201806040525081019061227c9190614829565b90506000600560009054906101000a9004600160a060020a0316600160a060020a031663ce5ed5316040518163ffffffff1660e060020a028152600401602060405180830381865afa1580156122d6573d6000803e3d6000fd5b505050506040513d601f19601f820116820180604052508101906122fa91906148f1565b90506000600560009054906101000a9004600160a060020a0316600160a060020a0316638c5148596040518163ffffffff1660e060020a028152600401602060405180830381865afa158015612354573d6000803e3d6000fd5b505050506040513d601f19601f8201168201806040525081019061237891906148f1565b90506000600560009054906101000a9004600160a060020a0316600160a060020a031663b655d0c46040518163ffffffff1660e060020a028152600401602060405180830381865afa1580156123d2573d6000803e3d6000fd5b505050506040513d601f19601f820116820180604052508101906123f691906148f1565b6020850151909150429060009061240e90600a6148da565b905060015b608087015161242387601e6148da565b61242d9190614927565b811161252957600b5460009061244460018461474a565b896080015161245391906148da565b61245d91906148da565b886040015161246c919061494c565b90506000600b54838a6080015161248391906148da565b61248d91906148da565b896040015161249c919061494c565b905081851180156124ad5750808511155b1561251457600b546000906124c2848861474a565b6124cc9190614927565b905061016d81886124dd8b896148da565b6124e79190614927565b6124f191906148da565b6124fb9190614927565b612505908661494c565b9a505050505050505050505090565b5050808061252190614810565b915050612413565b509695505050505050565b600160a060020a03851633148061255057506125508533610435565b61256f5760405160e560020a62461bcd02815260040161056d906147b3565b61089785858585856132c0565b612584612aa4565b600160a060020a0381166126035760405160e560020a62461bcd02815260206004820152602660248201527f4f776e61626c653a206e6577206f776e657220697320746865207a65726f206160448201527f6464726573730000000000000000000000000000000000000000000000000000606482015260840161056d565b6105ee81613105565b600160a060020a03831633148061262857506126288333610435565b6126475760405160e560020a62461bcd02815260040161056d906147b3565b6111928383836133fe565b600160a060020a0382166000908152600f6020526040812080548390811061267c5761267c614718565b60009182526020918290206040805160808101825260049093029091018054600160a060020a03168084526001820154948401949094526002810154918301919091526003015460608201529150331461271b5760405160e560020a62461bcd02815260206004820152601f60248201527f6275796572206d757374206265206d6174636820776974682073656c6c657200604482015260640161056d565b600554604080517fd41c3a650000000000000000000000000000000000000000000000000000000081529051600092600160a060020a03169163d41c3a659160048083019260209291908290030181865afa15801561277e573d6000803e3d6000fd5b505050506040513d601f19601f820116820180604052508101906127a2919061490a565b825160608401519192506127c291600160a060020a03841691339161351c565b6127d5308360200151846040015161260c565b60006127e060065490565b90506128013382856040015160405180602001604052806000815250612d94565b336000818152600d602090815260408083208584528252808320429055600160a060020a0389168352600e80835281842088840151855283528184209484528252808320858452909152902081546128599290613dcf565b506128688584602001516104f0565b6000036128b757600160a060020a0385166000818152600d6020908152604080832087830180518552908352818420849055938352600e8252808320935183529290529081206128b791613e4b565b6128c5600680546001019055565b336000908152600f6020908152604091829020549085015191850151606086015191927f76a4be589d7c93e0ab0913d03b86c213355117ee4623619d0adb160f404347ce9289929061291860018761474a565b3060405161292b96959493929190614997565b60405180910390a1336000908152600f6020526040902061294d60018361474a565b8154811061295d5761295d614718565b9060005260206000209060040201600f600033600160a060020a0316600160a060020a0316815260200190815260200160002086815481106129a1576129a1614718565b600091825260208083208454600490930201805473ffffffffffffffffffffffffffffffffffffffff1916600160a060020a0390931692909217825560018085015490830155600280850154908301556003938401549390910192909255338152600f90915260409020805480612a1a57612a1a61475d565b600082815260208120600460001990930192830201805473ffffffffffffffffffffffffffffffffffffffff191681556001810182905560028101829055600301559055505050505050565b6000600160e060020a031982167f4e2312e000000000000000000000000000000000000000000000000000000000148061059957506105998261356d565b600354600160a060020a031633146108ae5760405160e560020a62461bcd02815260206004820181905260248201527f4f776e61626c653a2063616c6c6572206973206e6f7420746865206f776e6572604482015260640161056d565b60026114228282614a15565b8151835114612b315760405160e560020a62461bcd02815260040161056d90614adb565b600160a060020a038416612b5a5760405160e560020a62461bcd02815260040161056d90614b38565b33612b69818787878787613608565b60005b8451811015612c52576000858281518110612b8957612b89614718565b602002602001015190506000858381518110612ba757612ba7614718565b60209081029190910181015160008481528083526040808220600160a060020a038e168352909352919091205490915081811015612bfa5760405160e560020a62461bcd02815260040161056d90614b95565b600083815260208181526040808320600160a060020a038e8116855292528083208585039055908b16825281208054849290612c3790849061494c565b9250508190555050505080612c4b90614810565b9050612b6c565b5084600160a060020a031686600160a060020a031682600160a060020a03167f4a39dc06d4c0dbc64b70af90fd698a233a518aa5d07e595d983b8c0526c8f7fb8787604051612ca2929190614bf2565b60405180910390a4612cb881878787878761380c565b505050505050565b612cc86139ab565b6003805474ff0000000000000000000000000000000000000000191690557f5db9ee0a495bf2e6ff9c91a7834c1ba4fdd244a5e8aa4e537bd38aeae4b073aa335b604051600160a060020a03909116815260200160405180910390a1565b60035474010000000000000000000000000000000000000000900460ff16156108ae5760405160e560020a62461bcd02815260206004820152601060248201527f5061757361626c653a2070617573656400000000000000000000000000000000604482015260640161056d565b600160a060020a038416612e135760405160e560020a62461bcd02815260206004820152602160248201527f455243313135353a206d696e7420746f20746865207a65726f2061646472657360448201527f7300000000000000000000000000000000000000000000000000000000000000606482015260840161056d565b336000612e1f85613a18565b90506000612e2c85613a18565b9050612e3d83600089858589613608565b600086815260208181526040808320600160a060020a038b16845290915281208054879290612e6d90849061494c565b90915550506040805187815260208101879052600160a060020a03808a1692600092918716917fc3d58168c5ae7397731d063d5bbf3d657854427343f4c083240f7aacaa2d0f62910160405180910390a46113fe83600089898989613a63565b604051600160a060020a0383166024820152604481018290526111929084907fa9059cbb00000000000000000000000000000000000000000000000000000000906064015b60408051601f198184030181529190526020810180517bffffffffffffffffffffffffffffffffffffffffffffffffffffffff16600160e060020a031990931692909217909152613b53565b600160a060020a038316612f875760405160e560020a62461bcd02815260040161056d90614c20565b8051825114612fab5760405160e560020a62461bcd02815260040161056d90614adb565b6000339050612fce81856000868660405180602001604052806000815250613608565b60005b8351811015613096576000848281518110612fee57612fee614718565b60200260200101519050600084838151811061300c5761300c614718565b60209081029190910181015160008481528083526040808220600160a060020a038c16835290935291909120549091508181101561305f5760405160e560020a62461bcd02815260040161056d90614c7d565b600092835260208381526040808520600160a060020a038b168652909152909220910390558061308e81614810565b915050612fd1565b506000600160a060020a031684600160a060020a031682600160a060020a03167f4a39dc06d4c0dbc64b70af90fd698a233a518aa5d07e595d983b8c0526c8f7fb86866040516130e7929190614bf2565b60405180910390a46040805160208101909152600090525b50505050565b60038054600160a060020a0383811673ffffffffffffffffffffffffffffffffffffffff19831681179093556040519116919082907f8be0079c531659141344cd1fd0a4f28419497f9722a3daafe3b4186f6b6457e090600090a35050565b61316c612d26565b6003805474ff00000000000000000000000000000000000000001916740100000000000000000000000000000000000000001790557f62e78cea01bee320cd4e420270b5ea74000d11b0c9f74754ebdbfc544b05a258612d093390565b81600160a060020a031683600160a060020a0316036132535760405160e560020a62461bcd02815260206004820152602960248201527f455243313135353a2073657474696e6720617070726f76616c2073746174757360448201527f20666f722073656c660000000000000000000000000000000000000000000000606482015260840161056d565b600160a060020a03838116600081815260016020908152604080832094871680845294825291829020805460ff191686151590811790915591519182527f17307eab39ab6107e8899845ad3d59bd9653f200f220920489ca2b5937696c31910160405180910390a3505050565b600160a060020a0384166132e95760405160e560020a62461bcd02815260040161056d90614b38565b3360006132f585613a18565b9050600061330285613a18565b9050613312838989858589613608565b600086815260208181526040808320600160a060020a038c168452909152902054858110156133565760405160e560020a62461bcd02815260040161056d90614b95565b600087815260208181526040808320600160a060020a038d8116855292528083208985039055908a1682528120805488929061339390849061494c565b90915550506040805188815260208101889052600160a060020a03808b16928c821692918816917fc3d58168c5ae7397731d063d5bbf3d657854427343f4c083240f7aacaa2d0f62910160405180910390a46133f3848a8a8a8a8a613a63565b505050505050505050565b600160a060020a0383166134275760405160e560020a62461bcd02815260040161056d90614c20565b33600061343384613a18565b9050600061344084613a18565b905061346083876000858560405180602001604052806000815250613608565b600085815260208181526040808320600160a060020a038a168452909152902054848110156134a45760405160e560020a62461bcd02815260040161056d90614c7d565b600086815260208181526040808320600160a060020a038b81168086529184528285208a8703905582518b81529384018a90529092908816917fc3d58168c5ae7397731d063d5bbf3d657854427343f4c083240f7aacaa2d0f62910160405180910390a46040805160208101909152600090526113fe565b604051600160a060020a03808516602483015283166044820152606481018290526130ff9085907f23b872dd0000000000000000000000000000000000000000000000000000000090608401612f12565b6000600160e060020a031982167fd9b67a260000000000000000000000000000000000000000000000000000000014806135d05750600160e060020a031982167f0e89341c00000000000000000000000000000000000000000000000000000000145b8061059957507f01ffc9a700000000000000000000000000000000000000000000000000000000600160e060020a0319831614610599565b613610612d26565b600160a060020a03851615612cb85760005b83518110156113fe576136688685838151811061364157613641614718565b602002602001015185848151811061365b5761365b614718565b602002602001015161260c565b600061367360065490565b905061369a868286858151811061368c5761368c614718565b602002602001015186612d94565b600160a060020a038087166000908152600d602090815260408083208584528252808320429055928a168252600e905290812086519091908790859081106136e4576136e4614718565b60209081029190910181015182528181019290925260409081016000908120600160a060020a038a168252600e84528282208583529093522081546137299290613dcf565b50613740878684815181106109af576109af614718565b6000036137eb57600160a060020a0386166000908152600d60205260408120865190919087908590811061377657613776614718565b6020026020010151815260200190815260200160002060009055600e600087600160a060020a0316600160a060020a0316815260200190815260200160002060008684815181106137c9576137c9614718565b6020026020010151815260200190815260200160002060006137eb9190613e4b565b6137f9600680546001019055565b508061380481614810565b915050613622565b600160a060020a0384163b15612cb8576040517fbc197c81000000000000000000000000000000000000000000000000000000008152600160a060020a0385169063bc197c81906138699089908990889088908890600401614cda565b6020604051808303816000875af19250505080156138a4575060408051601f3d908101601f191682019092526138a191810190614d38565b60015b61395f576138b0614d55565b806308c379a0036138ec57506138c4614d75565b806138cf57506138ee565b8060405160e560020a62461bcd02815260040161056d9190614060565b505b60405160e560020a62461bcd02815260206004820152603460248201527f455243313135353a207472616e7366657220746f206e6f6e2d4552433131353560448201527f526563656976657220696d706c656d656e746572000000000000000000000000606482015260840161056d565b600160e060020a031981167fbc197c8100000000000000000000000000000000000000000000000000000000146113fe5760405160e560020a62461bcd02815260040161056d90614dff565b60035474010000000000000000000000000000000000000000900460ff166108ae5760405160e560020a62461bcd02815260206004820152601460248201527f5061757361626c653a206e6f7420706175736564000000000000000000000000604482015260640161056d565b60408051600180825281830190925260609160009190602080830190803683370190505090508281600081518110613a5257613a52614718565b602090810291909101015292915050565b600160a060020a0384163b15612cb8576040517ff23a6e61000000000000000000000000000000000000000000000000000000008152600160a060020a0385169063f23a6e6190613ac09089908990889088908890600401614e5c565b6020604051808303816000875af1925050508015613afb575060408051601f3d908101601f19168201909252613af891810190614d38565b60015b613b07576138b0614d55565b600160e060020a031981167ff23a6e6100000000000000000000000000000000000000000000000000000000146113fe5760405160e560020a62461bcd02815260040161056d90614dff565b6000613ba8826040518060400160405280602081526020017f5361666545524332303a206c6f772d6c6576656c2063616c6c206661696c656481525085600160a060020a0316613c3b9092919063ffffffff16565b8051909150156111925780806020019051810190613bc69190614e94565b6111925760405160e560020a62461bcd02815260206004820152602a60248201527f5361666545524332303a204552433230206f7065726174696f6e20646964206e60448201527f6f74207375636365656400000000000000000000000000000000000000000000606482015260840161056d565b6060613c4a8484600085613c52565b949350505050565b60603031831115613cce5760405160e560020a62461bcd02815260206004820152602660248201527f416464726573733a20696e73756666696369656e742062616c616e636520666f60448201527f722063616c6c0000000000000000000000000000000000000000000000000000606482015260840161056d565b60008086600160a060020a03168587604051613cea9190614eb1565b60006040518083038185875af1925050503d8060008114613d27576040519150601f19603f3d011682016040523d82523d6000602084013e613d2c565b606091505b5091509150613d3d87838387613d48565b979650505050505050565b60608315613dba578251600003613db357600160a060020a0385163b613db35760405160e560020a62461bcd02815260206004820152601d60248201527f416464726573733a2063616c6c20746f206e6f6e2d636f6e7472616374000000604482015260640161056d565b5081613c4a565b613c4a83838151156138cf5781518083602001fd5b828054828255906000526020600020906003028101928215613e3b5760005260206000209160030282015b82811115613e3b5782548255600180840154908301805460ff191660ff90921615159190911790556002808401549083015560039283019290910190613dfa565b50613e47929150613e68565b5090565b50805460008255600302906000526020600020908101906105ee91905b5b80821115613e4757600080825560018201805460ff191690556002820155600301613e69565b600160a060020a03811681146105ee57600080fd5b60008060408385031215613eb757600080fd5b8235613ec281613e8f565b946020939093013593505050565b600160e060020a0319811681146105ee57600080fd5b600060208284031215613ef857600080fd5b8135613f0381613ed0565b9392505050565b60e060020a634e487b7102600052604160045260246000fd5b601f8201601f1916810167ffffffffffffffff81118282101715613f4957613f49613f0a565b6040525050565b600067ffffffffffffffff831115613f6a57613f6a613f0a565b604051613f81601f8501601f191660200182613f23565b809150838152848484011115613f9657600080fd5b83836020830137600060208583010152509392505050565b600060208284031215613fc057600080fd5b813567ffffffffffffffff811115613fd757600080fd5b8201601f81018413613fe857600080fd5b613c4a84823560208401613f50565b60006020828403121561400957600080fd5b5035919050565b60005b8381101561402b578181015183820152602001614013565b50506000910152565b6000815180845261404c816020860160208601614010565b601f01601f19169290920160200192915050565b602081526000613f036020830184614034565b600067ffffffffffffffff82111561408d5761408d613f0a565b5060209081020190565b600082601f8301126140a857600080fd5b813560206140b582614073565b6040516140c28282613f23565b83815292820285018201928281019150868411156140df57600080fd5b8286015b8481101561252957803583529183019183016140e3565b600082601f83011261410b57600080fd5b613f0383833560208501613f50565b600080600080600060a0868803121561413257600080fd5b853561413d81613e8f565b9450602086013561414d81613e8f565b9350604086013567ffffffffffffffff8082111561416a57600080fd5b61417689838a01614097565b9450606088013591508082111561418c57600080fd5b61419889838a01614097565b935060808801359150808211156141ae57600080fd5b506141bb888289016140fa565b9150509295509295909350565b600080604083850312156141db57600080fd5b823567ffffffffffffffff808211156141f357600080fd5b818501915085601f83011261420757600080fd5b8135602061421482614073565b6040516142218282613f23565b838152928202850182019282810191508984111561423e57600080fd5b948201945b8386101561426557853561425681613e8f565b82529482019490820190614243565b9650508601359250508082111561427b57600080fd5b5061428885828601614097565b9150509250929050565b600081518084526020808501945080840160005b838110156142c2578151875295820195908201906001016142a6565b509495945050505050565b602081526000613f036020830184614292565b600080604083850312156142f357600080fd5b50508035926020909101359150565b60008060006060848603121561431757600080fd5b833561432281613e8f565b9250602084013567ffffffffffffffff8082111561433f57600080fd5b61434b87838801614097565b9350604086013591508082111561436157600080fd5b5061436e86828701614097565b9150509250925092565b80151581146105ee57600080fd5b6000806040838503121561439957600080fd5b82356143a481613e8f565b915060208301356143b481614378565b809150509250929050565b600080600080608085870312156143d557600080fd5b84356143e081613e8f565b966020860135965060408601359560600135945092505050565b60008083601f84011261440c57600080fd5b50813567ffffffffffffffff81111561442457600080fd5b602083019150836020808302850101111561443e57600080fd5b9250929050565b60008083601f84011261445757600080fd5b50813567ffffffffffffffff81111561446f57600080fd5b60208301915083602082850101111561443e57600080fd5b60008060008060008060008060a0898b0312156144a357600080fd5b88356144ae81613e8f565b975060208901356144be81613e8f565b9650604089013567ffffffffffffffff808211156144db57600080fd5b6144e78c838d016143fa565b909850965060608b013591508082111561450057600080fd5b61450c8c838d016143fa565b909650945060808b013591508082111561452557600080fd5b506145328b828c01614445565b999c989b5096995094979396929594505050565b602080825282518282018190526000919060409081850190868401855b828110156145a65781518051600160a060020a03168552868101518786015285810151868601526060908101519085015260809093019290850190600101614563565b5091979650505050505050565b600080604083850312156145c657600080fd5b82356145d181613e8f565b915060208301356143b481613e8f565b60008060008060008060a087890312156145fa57600080fd5b863561460581613e8f565b9550602087013561461581613e8f565b94506040870135935060608701359250608087013567ffffffffffffffff81111561463f57600080fd5b61464b89828a01614445565b979a9699509497509295939492505050565b600080600080600060a0868803121561467557600080fd5b853561468081613e8f565b9450602086013561469081613e8f565b93506040860135925060608601359150608086013567ffffffffffffffff8111156146ba57600080fd5b6141bb888289016140fa565b6000602082840312156146d857600080fd5b8135613f0381613e8f565b6000806000606084860312156146f857600080fd5b833561470381613e8f565b95602085013595506040909401359392505050565b60e060020a634e487b7102600052603260045260246000fd5b60e060020a634e487b7102600052601160045260246000fd5b8181038181111561059957610599614731565b60e060020a634e487b7102600052603160045260246000fd5b60028104600182168061478a57607f821691505b6020821081036147ad5760e060020a634e487b7102600052602260045260246000fd5b50919050565b6020808252602e908201527f455243313135353a2063616c6c6572206973206e6f7420746f6b656e206f776e60408201527f6572206f7220617070726f766564000000000000000000000000000000000000606082015260800190565b60006001820161482257614822614731565b5060010190565b600060c0828403121561483b57600080fd5b60405160c0810181811067ffffffffffffffff8211171561485e5761485e613f0a565b8060405250825181526020830151602082015260408301516040820152606083015160608201526080830151608082015260a083015160a08201528091505092915050565b60208082526019908201527f6e6f74206f776e6572206f66207468697320746f6b656e496400000000000000604082015260600190565b808202811582820484141761059957610599614731565b60006020828403121561490357600080fd5b5051919050565b60006020828403121561491c57600080fd5b8151613f0381613e8f565b6000826149475760e060020a634e487b7102600052601260045260246000fd5b500490565b8082018082111561059957610599614731565b600160a060020a0394851681529290931660208301526040820152606081019190915260a06080820181905260009082015260c00190565b600160a060020a039687168152602081019590955260408501939093526060840191909152608083015290911660a082015260c00190565b601f821115611192576000818152602081206020601f860104810160208610156149f65750805b6020601f860104820191505b81811015612cb857828155600101614a02565b815167ffffffffffffffff811115614a2f57614a2f613f0a565b614a4381614a3d8454614776565b846149cf565b602080601f831160018114614a7c5760008415614a605750858301515b60028086026008870290910a6000190419821617865550612cb8565b600085815260208120601f198616915b82811015614aab57888601518255948401946001909101908401614a8c565b5085821015614acb57878501516008601f88160260020a60001904191681555b5050505050600202600101905550565b60208082526028908201527f455243313135353a2069647320616e6420616d6f756e7473206c656e6774682060408201527f6d69736d61746368000000000000000000000000000000000000000000000000606082015260800190565b60208082526025908201527f455243313135353a207472616e7366657220746f20746865207a65726f20616460408201527f6472657373000000000000000000000000000000000000000000000000000000606082015260800190565b6020808252602a908201527f455243313135353a20696e73756666696369656e742062616c616e636520666f60408201527f72207472616e7366657200000000000000000000000000000000000000000000606082015260800190565b604081526000614c056040830185614292565b8281036020840152614c178185614292565b95945050505050565b60208082526023908201527f455243313135353a206275726e2066726f6d20746865207a65726f206164647260408201527f6573730000000000000000000000000000000000000000000000000000000000606082015260800190565b60208082526024908201527f455243313135353a206275726e20616d6f756e7420657863656564732062616c60408201527f616e636500000000000000000000000000000000000000000000000000000000606082015260800190565b6000600160a060020a03808816835280871660208401525060a06040830152614d0660a0830186614292565b8281036060840152614d188186614292565b90508281036080840152614d2c8185614034565b98975050505050505050565b600060208284031215614d4a57600080fd5b8151613f0381613ed0565b600060033d1115614d725760046000803e60e060020a6000510490505b90565b600060443d1015614d835790565b6040516003193d81016004833e81513d67ffffffffffffffff8160248401118184111715614db357505050505090565b8285019150815181811115614dcb5750505050505090565b843d8701016020828501011115614de55750505050505090565b614df460208286010187613f23565b509095945050505050565b60208082526028908201527f455243313135353a204552433131353552656365697665722072656a6563746560408201527f6420746f6b656e73000000000000000000000000000000000000000000000000606082015260800190565b6000600160a060020a03808816835280871660208401525084604083015283606083015260a06080830152613d3d60a0830184614034565b600060208284031215614ea657600080fd5b8151613f0381614378565b60008251614ec3818460208701614010565b919091019291505056fea2646970667358221220698e3498660f89646accbd2d9de7e2d587eb89f391159cbc3dbb1d58891db27864736f6c63430008130033a2646970667358221220d486abe3d8b36ab6b16fc9af041dea125add3d16cedc9397b118ef8d3a7f4f0164736f6c63430008130033",
  "immutableReferences": {},
  "source": "// SPDX-License-Identifier: MIT\npragma solidity ^0.8.9;\nimport \"@openzeppelin/contracts/utils/structs/EnumerableMap.sol\";\nimport \"@openzeppelin/contracts/access/Ownable.sol\";\nimport \"./fund-cert-nft-wrap.sol\";\n\ncontract FundCertProvider is Ownable {\n    mapping(uint256 => address) contractWrap;\n    address creater;\n\n    modifier onlyCreater(address _creater) {\n        require(creater == _creater, \"this feature just for creater\");\n        _;\n    }\n\n    function createContract(\n        address _owner,\n        uint256 _tokenId, \n        address _contractFC, \n        address _publisher, \n        uint256 _amount) \n        public \n        onlyCreater(msg.sender)\n    {\n        FundCertificateWrapped fundCertificateWrapped = new FundCertificateWrapped(_tokenId, _contractFC, _publisher, _amount);\n        fundCertificateWrapped.transferOwnership(_owner);\n        contractWrap[_tokenId] = address(fundCertificateWrapped);\n    }\n\n    function getContractAddress(uint256 _tokenId) public view returns(address){\n        return contractWrap[_tokenId];\n    } \n\n    function setCreater(address _newCreater) public onlyOwner{\n        creater = _newCreater;\n    }\n\n    function getCreater() public view returns(address){\n        return creater;\n    }\n}",
  "sourcePath": "/Users/tannguyen/Documents/GitHub/ccq-nft/contracts/fund-cert-provider.sol",
  "compiler": {
    "name": "solc",
    "version": "0.8.19+commit.7dd6d404.Emscripten.clang"
  },
  "schemaVersion": "3.4.13",
  "updatedAt": "2023-04-04T01:53:33.418Z",
  "devdoc": {
    "kind": "dev",
    "methods": {
      "owner()": {
        "details": "Returns the address of the current owner."
      },
      "renounceOwnership()": {
        "details": "Leaves the contract without owner. It will not be possible to call `onlyOwner` functions anymore. Can only be called by the current owner. NOTE: Renouncing ownership will leave the contract without an owner, thereby removing any functionality that is only available to the owner."
      },
      "transferOwnership(address)": {
        "details": "Transfers ownership of the contract to a new account (`newOwner`). Can only be called by the current owner."
      }
    },
    "version": 1
  },
  "userdoc": {
    "kind": "user",
    "methods": {},
    "version": 1
  }
}