{
  "contractName": "FundCertMarketplace",
  "abi": [
    {
      "inputs": [
        {
          "internalType": "address",
          "name": "_paymentToken",
          "type": "address"
        },
        {
          "internalType": "bool",
          "name": "_isOpen",
          "type": "bool"
        }
      ],
      "stateMutability": "nonpayable",
      "type": "constructor"
    },
    {
      "anonymous": false,
      "inputs": [
        {
          "indexed": true,
          "internalType": "address",
          "name": "previousOwner",
          "type": "address"
        },
        {
          "indexed": true,
          "internalType": "address",
          "name": "newOwner",
          "type": "address"
        }
      ],
      "name": "OwnershipTransferred",
      "type": "event"
    },
    {
      "anonymous": false,
      "inputs": [
        {
          "indexed": false,
          "internalType": "uint256",
          "name": "id",
          "type": "uint256"
        },
        {
          "indexed": false,
          "internalType": "uint256",
          "name": "nftId",
          "type": "uint256"
        },
        {
          "indexed": false,
          "internalType": "uint256",
          "name": "amount",
          "type": "uint256"
        },
        {
          "indexed": false,
          "internalType": "address",
          "name": "seller",
          "type": "address"
        },
        {
          "indexed": false,
          "internalType": "address",
          "name": "buyer",
          "type": "address"
        }
      ],
      "name": "buyItemToMarket",
      "type": "event"
    },
    {
      "anonymous": false,
      "inputs": [
        {
          "indexed": false,
          "internalType": "uint256",
          "name": "id",
          "type": "uint256"
        },
        {
          "indexed": false,
          "internalType": "uint256",
          "name": "nftId",
          "type": "uint256"
        },
        {
          "indexed": false,
          "internalType": "uint256",
          "name": "amount",
          "type": "uint256"
        },
        {
          "indexed": false,
          "internalType": "address",
          "name": "seller",
          "type": "address"
        }
      ],
      "name": "listNewItemToMarket",
      "type": "event"
    },
    {
      "inputs": [],
      "name": "isOpen",
      "outputs": [
        {
          "internalType": "bool",
          "name": "",
          "type": "bool"
        }
      ],
      "stateMutability": "view",
      "type": "function"
    },
    {
      "inputs": [
        {
          "internalType": "uint256",
          "name": "",
          "type": "uint256"
        }
      ],
      "name": "items",
      "outputs": [
        {
          "internalType": "uint256",
          "name": "id",
          "type": "uint256"
        },
        {
          "internalType": "uint256",
          "name": "nftId",
          "type": "uint256"
        },
        {
          "internalType": "uint256",
          "name": "rootId",
          "type": "uint256"
        },
        {
          "internalType": "address",
          "name": "nftAddress",
          "type": "address"
        },
        {
          "internalType": "uint256",
          "name": "amount",
          "type": "uint256"
        },
        {
          "internalType": "address",
          "name": "seller",
          "type": "address"
        },
        {
          "internalType": "contract IERC1155",
          "name": "nftContract",
          "type": "address"
        }
      ],
      "stateMutability": "view",
      "type": "function"
    },
    {
      "inputs": [],
      "name": "owner",
      "outputs": [
        {
          "internalType": "address",
          "name": "",
          "type": "address"
        }
      ],
      "stateMutability": "view",
      "type": "function"
    },
    {
      "inputs": [],
      "name": "paymentToken",
      "outputs": [
        {
          "internalType": "address",
          "name": "",
          "type": "address"
        }
      ],
      "stateMutability": "view",
      "type": "function"
    },
    {
      "inputs": [
        {
          "internalType": "address",
          "name": "",
          "type": "address"
        }
      ],
      "name": "publishers",
      "outputs": [
        {
          "internalType": "bool",
          "name": "",
          "type": "bool"
        }
      ],
      "stateMutability": "view",
      "type": "function"
    },
    {
      "inputs": [],
      "name": "renounceOwnership",
      "outputs": [],
      "stateMutability": "nonpayable",
      "type": "function"
    },
    {
      "inputs": [
        {
          "internalType": "bytes4",
          "name": "interfaceId",
          "type": "bytes4"
        }
      ],
      "name": "supportsInterface",
      "outputs": [
        {
          "internalType": "bool",
          "name": "",
          "type": "bool"
        }
      ],
      "stateMutability": "view",
      "type": "function"
    },
    {
      "inputs": [
        {
          "internalType": "address",
          "name": "newOwner",
          "type": "address"
        }
      ],
      "name": "transferOwnership",
      "outputs": [],
      "stateMutability": "nonpayable",
      "type": "function"
    },
    {
      "inputs": [
        {
          "internalType": "address",
          "name": "_nftAddress",
          "type": "address"
        },
        {
          "internalType": "uint256",
          "name": "_nftId",
          "type": "uint256"
        },
        {
          "internalType": "uint256",
          "name": "_amount",
          "type": "uint256"
        }
      ],
      "name": "sellItem",
      "outputs": [],
      "stateMutability": "nonpayable",
      "type": "function"
    },
    {
      "inputs": [
        {
          "internalType": "uint256",
          "name": "_index",
          "type": "uint256"
        },
        {
          "internalType": "uint256",
          "name": "_amount",
          "type": "uint256"
        }
      ],
      "name": "buyItem",
      "outputs": [],
      "stateMutability": "nonpayable",
      "type": "function"
    },
    {
      "inputs": [
        {
          "internalType": "address",
          "name": "_nftAddress",
          "type": "address"
        },
        {
          "internalType": "uint256",
          "name": "_nftId",
          "type": "uint256"
        }
      ],
      "name": "delistItem",
      "outputs": [],
      "stateMutability": "nonpayable",
      "type": "function"
    },
    {
      "inputs": [],
      "name": "cleanMarket",
      "outputs": [],
      "stateMutability": "nonpayable",
      "type": "function"
    },
    {
      "inputs": [
        {
          "internalType": "address",
          "name": "_publisher",
          "type": "address"
        }
      ],
      "name": "addPublisher",
      "outputs": [],
      "stateMutability": "nonpayable",
      "type": "function"
    },
    {
      "inputs": [
        {
          "internalType": "address",
          "name": "_publisher",
          "type": "address"
        }
      ],
      "name": "removePublisher",
      "outputs": [],
      "stateMutability": "nonpayable",
      "type": "function"
    },
    {
      "inputs": [
        {
          "internalType": "address",
          "name": "_paymentToken",
          "type": "address"
        }
      ],
      "name": "setPaymentToken",
      "outputs": [],
      "stateMutability": "nonpayable",
      "type": "function"
    },
    {
      "inputs": [
        {
          "internalType": "bool",
          "name": "_status",
          "type": "bool"
        }
      ],
      "name": "setMartketStatus",
      "outputs": [],
      "stateMutability": "nonpayable",
      "type": "function"
    },
    {
      "inputs": [],
      "name": "getTotalItems",
      "outputs": [
        {
          "internalType": "uint256",
          "name": "",
          "type": "uint256"
        }
      ],
      "stateMutability": "view",
      "type": "function"
    },
    {
      "inputs": [
        {
          "internalType": "address",
          "name": "operator",
          "type": "address"
        },
        {
          "internalType": "address",
          "name": "from",
          "type": "address"
        },
        {
          "internalType": "uint256",
          "name": "id",
          "type": "uint256"
        },
        {
          "internalType": "uint256",
          "name": "value",
          "type": "uint256"
        },
        {
          "internalType": "bytes",
          "name": "data",
          "type": "bytes"
        }
      ],
      "name": "onERC1155Received",
      "outputs": [
        {
          "internalType": "bytes4",
          "name": "",
          "type": "bytes4"
        }
      ],
      "stateMutability": "nonpayable",
      "type": "function"
    },
    {
      "inputs": [
        {
          "internalType": "address",
          "name": "operator",
          "type": "address"
        },
        {
          "internalType": "address",
          "name": "from",
          "type": "address"
        },
        {
          "internalType": "uint256[]",
          "name": "ids",
          "type": "uint256[]"
        },
        {
          "internalType": "uint256[]",
          "name": "values",
          "type": "uint256[]"
        },
        {
          "internalType": "bytes",
          "name": "data",
          "type": "bytes"
        }
      ],
      "name": "onERC1155BatchReceived",
      "outputs": [
        {
          "internalType": "bytes4",
          "name": "",
          "type": "bytes4"
        }
      ],
      "stateMutability": "nonpayable",
      "type": "function"
    }
  ],
  "bytecode": "0x60806040523480156200001157600080fd5b50604051620019bb380380620019bb8339810160408190526200003491620000f4565b6200005a6200004b640100000000620000a0810204565b640100000000620000a4810204565b60018055600580549115157401000000000000000000000000000000000000000002600160a860020a0319909216600160a060020a039093169290921717905562000142565b3390565b60008054600160a060020a03838116600160a060020a0319831681178455604051919092169283917f8be0079c531659141344cd1fd0a4f28419497f9722a3daafe3b4186f6b6457e09190a35050565b600080604083850312156200010857600080fd5b8251600160a060020a03811681146200012057600080fd5b602084015190925080151581146200013757600080fd5b809150509250929050565b61186980620001526000396000f3fe608060405234801561001057600080fd5b50600436106101255760003560e060020a900480638da5cb5b116100b1578063bc197c8111610075578063bc197c811461026b578063bfb231d214610297578063eb93dd60146102eb578063f23a6e61146102fe578063f2fde38b1461033757600080fd5b80638da5cb5b146102195780639979c0091461022a578063a90701511461023d578063ad9a036914610245578063ae61c5ae1461025857600080fd5b806347535d7b116100f857806347535d7b146101b157806368915327146101d65780636a326ab1146101eb578063715018a6146101fe578063763f323d1461020657600080fd5b806301ffc9a71461012a5780630a4d85cd146101525780633013ce2914610175578063310aac69146101a0575b600080fd5b61013d61013836600461140a565b61034a565b60405190151581526020015b60405180910390f35b61013d610160366004611457565b60036020526000908152604090205460ff1681565b60055461018890600160a060020a031681565b604051600160a060020a039091168152602001610149565b600654604051908152602001610149565b60055461013d9074010000000000000000000000000000000000000000900460ff1681565b6101e96101e4366004611472565b6103b3565b005b6101e96101f9366004611457565b6107eb565b6101e9610815565b6101e9610214366004611457565b610829565b600054600160a060020a0316610188565b6101e96102383660046114a5565b610855565b6101e9610c72565b6101e96102533660046114c7565b610de0565b6101e9610266366004611457565b611023565b61027e61027936600461157e565b61104c565b604051600160e060020a03199091168152602001610149565b6102aa6102a5366004611639565b61109a565b60408051978852602088019690965294860193909352600160a060020a039182166060860152608085015290811660a08401521660c082015260e001610149565b6101e96102f9366004611660565b6110f6565b61027e61030c36600461167d565b7ff23a6e61000000000000000000000000000000000000000000000000000000009695505050505050565b6101e9610345366004611457565b61113e565b6000600160e060020a031982167f4e2312e00000000000000000000000000000000000000000000000000000000014806103ad57507f01ffc9a700000000000000000000000000000000000000000000000000000000600160e060020a03198316145b92915050565b60055474010000000000000000000000000000000000000000900460ff166104255760405160e560020a62461bcd02815260206004820152601060248201527f6d61726b657420697320636c6f7365640000000000000000000000000000000060448201526064015b60405180910390fd5b3360008181526003602052604090205460ff166104ad5760405160e560020a62461bcd02815260206004820152602a60248201527f6f6e6c79207075626c69736865722063616e2073656c6c206e667420696e207460448201527f686973206d61726b657400000000000000000000000000000000000000000000606482015260840161041c565b6040517ff242432a000000000000000000000000000000000000000000000000000000008152600160a060020a0385169063f242432a906104f89033903090889088906004016116f5565b600060405180830381600087803b15801561051257600080fd5b505af1158015610526573d6000803e3d6000fd5b505060048054600160a060020a031916600160a060020a03881690811782556040805160e081018252600060208083018290528284018290526060830182905260a0830182905260c083019190915260025482526080820189905282517f2947ef380000000000000000000000000000000000000000000000000000000081529251919650929450632947ef389382810193928290030181865afa1580156105d2573d6000803e3d6000fd5b505050506040513d601f19601f820116820180604052508101906105f6919061172d565b6040820190815260208201858152600160a060020a03808816606085018181523360a0870190815260c0870192835260068054600181018255600091909152875160079091027ff652222313e28459528d920b65115c16c04f3efc82aaedc97be59f3f377c0d3f81019190915594517ff652222313e28459528d920b65115c16c04f3efc82aaedc97be59f3f377c0d4086015594517ff652222313e28459528d920b65115c16c04f3efc82aaedc97be59f3f377c0d41850155517ff652222313e28459528d920b65115c16c04f3efc82aaedc97be59f3f377c0d4284018054918416600160a060020a031992831617905560808601517ff652222313e28459528d920b65115c16c04f3efc82aaedc97be59f3f377c0d4385015593517ff652222313e28459528d920b65115c16c04f3efc82aaedc97be59f3f377c0d4484018054918416918616919091179055517ff652222313e28459528d920b65115c16c04f3efc82aaedc97be59f3f377c0d4590920180549290911691909216179055610783600280546001019055565b805160208083015160808085015160a0860151604080519687529486019390935292840192909252600160a060020a031660608301527feca7a71a1bdfa23ea1dfa4232309993dccfb78e0b434aead3de1bd15583aacbb910160405180910390a15050505050565b6107f36111ce565b60058054600160a060020a031916600160a060020a0392909216919091179055565b61081d6111ce565b610827600061122b565b565b6108316111ce565b600160a060020a03166000908152600360205260409020805460ff19166001179055565b61085d61127b565b60055474010000000000000000000000000000000000000000900460ff166108ca5760405160e560020a62461bcd02815260206004820152601060248201527f6d61726b657420697320636c6f73656400000000000000000000000000000000604482015260640161041c565b6000600683815481106108df576108df611746565b60009182526020918290206040805160e0810182526007909302909101805483526001810154938301939093526002830154908201526003820154600160a060020a0390811660608301526004830154608083018190526005840154821660a08401526006909301541660c082015291508211156109ee5760405160e560020a62461bcd02815260206004820152604360248201527f616d6f756e74206974656d2073656c6563746564206d757374206265206c657360448201527f73207468616e206f7220657175616c20616d6f756e74206974656d2073656c6c60648201527f696e670000000000000000000000000000000000000000000000000000000000608482015260a40161041c565b606081015160048054600160a060020a031916600160a060020a039092169182178155604080517feb91d37e00000000000000000000000000000000000000000000000000000000815290516000939263eb91d37e928082019260209290918290030181865afa158015610a66573d6000803e3d6000fd5b505050506040513d601f19601f82011682018060405250810190610a8a919061172d565b6005546060840151919250600160a060020a0316906323b872dd903390610ab187866117a4565b60405160e060020a63ffffffff8616028152600160a060020a03938416600482015292909116602483015260448201526064016020604051808303816000875af1158015610b03573d6000803e3d6000fd5b505050506040513d601f19601f82011682018060405250810190610b2791906117bb565b5060c082015160208301516040517ff242432a000000000000000000000000000000000000000000000000000000008152600160a060020a039092169163f242432a91610b7c913091339189906004016116f5565b600060405180830381600087803b158015610b9657600080fd5b505af1158015610baa573d6000803e3d6000fd5b505050508160800151831015610bf9578260068581548110610bce57610bce611746565b90600052602060002090600702016004016000828254610bee91906117d8565b90915550610c029050565b610c02846112d7565b815160208084015160a0808601516040805195865293850192909252918301869052600160a060020a031660608301523360808301527f032829841c0c8a8fa0551ed430901d631508f3d3524e7b38659a738ebbdad9d1910160405180910390a15050610c6e60018055565b5050565b610c7a6111ce565b6005805474ff00000000000000000000000000000000000000001916905560005b600654811015610ddd5760068181548110610cb857610cb8611746565b906000526020600020906007020160060160009054906101000a9004600160a060020a0316600160a060020a031663f242432a3060068481548110610cff57610cff611746565b906000526020600020906007020160050160009054906101000a9004600160a060020a031660068581548110610d3757610d37611746565b90600052602060002090600702016001015460068681548110610d5c57610d5c611746565b9060005260206000209060070201600401546040518563ffffffff1660e060020a028152600401610d9094939291906116f5565b600060405180830381600087803b158015610daa57600080fd5b505af1158015610dbe573d6000803e3d6000fd5b50505050610dcb816112d7565b80610dd5816117eb565b915050610c9b565b50565b60005b60065481101561101e5782600160a060020a031660068281548110610e0a57610e0a611746565b6000918252602090912060036007909202010154600160a060020a0316148015610e5757508160068281548110610e4357610e43611746565b906000526020600020906007020160010154145b1561100c5733600160a060020a031660068281548110610e7957610e79611746565b6000918252602090912060056007909202010154600160a060020a031614610ee65760405160e560020a62461bcd02815260206004820152601660248201527f75736572206d757374206265206e6674206f776e657200000000000000000000604482015260640161041c565b60068181548110610ef957610ef9611746565b906000526020600020906007020160060160009054906101000a9004600160a060020a0316600160a060020a031663f242432a3060068481548110610f4057610f40611746565b906000526020600020906007020160050160009054906101000a9004600160a060020a031660068581548110610f7857610f78611746565b90600052602060002090600702016001015460068681548110610f9d57610f9d611746565b9060005260206000209060070201600401546040518563ffffffff1660e060020a028152600401610fd194939291906116f5565b600060405180830381600087803b158015610feb57600080fd5b505af1158015610fff573d6000803e3d6000fd5b5050505061100c816112d7565b80611016816117eb565b915050610de3565b505050565b61102b6111ce565b600160a060020a03166000908152600360205260409020805460ff19169055565b60405160e560020a62461bcd02815260206004820152601d60248201527f6261746368207472616e7366657273206e6f7420737570706f72746564000000604482015260009060640161041c565b600681815481106110aa57600080fd5b6000918252602090912060079091020180546001820154600283015460038401546004850154600586015460069096015494965092949193600160a060020a0391821693928216911687565b6110fe6111ce565b60058054911515740100000000000000000000000000000000000000000274ff000000000000000000000000000000000000000019909216919091179055565b6111466111ce565b600160a060020a0381166111c55760405160e560020a62461bcd02815260206004820152602660248201527f4f776e61626c653a206e6577206f776e657220697320746865207a65726f206160448201527f6464726573730000000000000000000000000000000000000000000000000000606482015260840161041c565b610ddd8161122b565b600054600160a060020a031633146108275760405160e560020a62461bcd02815260206004820181905260248201527f4f776e61626c653a2063616c6c6572206973206e6f7420746865206f776e6572604482015260640161041c565b60008054600160a060020a03838116600160a060020a0319831681178455604051919092169283917f8be0079c531659141344cd1fd0a4f28419497f9722a3daafe3b4186f6b6457e09190a35050565b6002600154036112d05760405160e560020a62461bcd02815260206004820152601f60248201527f5265656e7472616e637947756172643a207265656e7472616e742063616c6c00604482015260640161041c565b6002600155565b600680546112e7906001906117d8565b815481106112f7576112f7611746565b90600052602060002090600702016006828154811061131857611318611746565b60009182526020909120825460079092020190815560018083015490820155600280830154908201556003808301549082018054600160a060020a0319908116600160a060020a039384161790915560048085015490840155600580850154908401805483169184169190911790556006938401549284018054909116929091169190911790558054806113ae576113ae611804565b6000828152602081206007600019909301928302018181556001810182905560028101829055600381018054600160a060020a031990811690915560048201929092556005810180548316905560060180549091169055905550565b60006020828403121561141c57600080fd5b8135600160e060020a03198116811461143457600080fd5b9392505050565b8035600160a060020a038116811461145257600080fd5b919050565b60006020828403121561146957600080fd5b6114348261143b565b60008060006060848603121561148757600080fd5b6114908461143b565b95602085013595506040909401359392505050565b600080604083850312156114b857600080fd5b50508035926020909101359150565b600080604083850312156114da57600080fd5b6114e38361143b565b946020939093013593505050565b60008083601f84011261150357600080fd5b50813567ffffffffffffffff81111561151b57600080fd5b602083019150836020808302850101111561153557600080fd5b9250929050565b60008083601f84011261154e57600080fd5b50813567ffffffffffffffff81111561156657600080fd5b60208301915083602082850101111561153557600080fd5b60008060008060008060008060a0898b03121561159a57600080fd5b6115a38961143b565b97506115b160208a0161143b565b9650604089013567ffffffffffffffff808211156115ce57600080fd5b6115da8c838d016114f1565b909850965060608b01359150808211156115f357600080fd5b6115ff8c838d016114f1565b909650945060808b013591508082111561161857600080fd5b506116258b828c0161153c565b999c989b5096995094979396929594505050565b60006020828403121561164b57600080fd5b5035919050565b8015158114610ddd57600080fd5b60006020828403121561167257600080fd5b813561143481611652565b60008060008060008060a0878903121561169657600080fd5b61169f8761143b565b95506116ad6020880161143b565b94506040870135935060608701359250608087013567ffffffffffffffff8111156116d757600080fd5b6116e389828a0161153c565b979a9699509497509295939492505050565b600160a060020a0394851681529290931660208301526040820152606081019190915260a06080820181905260009082015260c00190565b60006020828403121561173f57600080fd5b5051919050565b7f4e487b7100000000000000000000000000000000000000000000000000000000600052603260045260246000fd5b7f4e487b7100000000000000000000000000000000000000000000000000000000600052601160045260246000fd5b80820281158282048414176103ad576103ad611775565b6000602082840312156117cd57600080fd5b815161143481611652565b818103818111156103ad576103ad611775565b6000600182016117fd576117fd611775565b5060010190565b7f4e487b7100000000000000000000000000000000000000000000000000000000600052603160045260246000fdfea2646970667358221220c2de0dd102725d0355c37bd76ba7aa773a6fa6f4aeb0c2fa961d4bd38739407964736f6c63430008130033",
  "immutableReferences": {},
  "source": "// SPDX-License-Identifier: MIT\npragma solidity ^0.8.9;\n\nimport \"@openzeppelin/contracts/token/ERC1155/utils/ERC1155Receiver.sol\";\nimport \"@openzeppelin/contracts/token/ERC20/IERC20.sol\";\nimport \"@openzeppelin/contracts/token/ERC1155/IERC1155.sol\";\nimport \"@openzeppelin/contracts/access/Ownable.sol\";\nimport \"@openzeppelin/contracts/utils/Counters.sol\";\nimport \"@openzeppelin/contracts/security/ReentrancyGuard.sol\";\nimport \"@openzeppelin/contracts/token/ERC20/utils/SafeERC20.sol\";\n\ninterface FundCertWrap {\n    function getCurrentPrice() external view returns(uint256);\n    function getRootId() external view returns(uint256);\n}\n\ncontract FundCertMarketplace is Ownable, ERC1155Receiver, ReentrancyGuard{\n    using SafeERC20 for IERC20;\n    using Counters for Counters.Counter;\n    Counters.Counter private id;\n    mapping(address => bool) public publishers;\n    FundCertWrap fundCertWrap;\n    address public paymentToken;\n    bool public isOpen;\n   \n    struct Item {\n        uint256 id;\n        uint256 nftId;\n        uint256 rootId;\n        address nftAddress;\n        uint256 amount;\n        address seller;\n        IERC1155 nftContract;\n    }\n\n    Item[] public items;\n\n    constructor(address _paymentToken, bool _isOpen) {\n        paymentToken = _paymentToken;\n        isOpen = _isOpen;\n    }\n\n    modifier onlyPublisher(address _publisher) {\n        require(publishers[_publisher], \"only publisher can sell nft in this market\");\n        _;\n    }\n\n    modifier whenMarketOpen() {\n        require(isOpen, \"market is closed\");\n        _;\n    }\n\n    event listNewItemToMarket(uint256 id, uint256 nftId, uint256 amount, address seller);\n    event buyItemToMarket(uint256 id, uint256 nftId, uint256 amount, address seller, address buyer);\n\n    function sellItem(\n        address _nftAddress,\n        uint256 _nftId,\n        uint256 _amount\n    ) whenMarketOpen onlyPublisher(msg.sender) public {\n        IERC1155(_nftAddress).safeTransferFrom(msg.sender, address(this), _nftId, _amount, \"\");\n        fundCertWrap = FundCertWrap(_nftAddress);\n        Item memory item;\n        item.id = id.current();\n        item.amount = _amount;\n        item.rootId = fundCertWrap.getRootId();\n        item.nftId = _nftId;\n        item.nftAddress = _nftAddress;\n        item.seller = msg.sender;\n        item.nftContract = IERC1155(_nftAddress);\n        items.push(item);\n        id.increment();\n\n        emit listNewItemToMarket(item.id, item.nftId, item.amount, item.seller);\n    }\n\n    function buyItem(\n        uint256 _index,\n        uint256 _amount\n    ) external nonReentrant whenMarketOpen {\n        Item memory itemSelected = items[_index];\n        require(_amount <= itemSelected.amount, \"amount item selected must be less than or equal amount item selling\");\n        // get current Price\n        fundCertWrap = FundCertWrap(itemSelected.nftAddress);\n        uint256 nftPrice = fundCertWrap.getCurrentPrice();\n        // payment by amount item\n        IERC20(paymentToken).transferFrom(msg.sender, itemSelected.nftAddress, nftPrice * _amount);\n        // transfer NFT to buyer\n        itemSelected.nftContract.safeTransferFrom(address(this), msg.sender, itemSelected.nftId, _amount, \"\");\n\n        if(_amount < itemSelected.amount){\n            items[_index].amount -= _amount;\n        } else {\n            removeItemByIndex(_index);\n        }\n        // emit event buy\n        emit buyItemToMarket(itemSelected.id, itemSelected.nftId, _amount, itemSelected.seller, msg.sender);\n    }\n\n    function delistItem(\n        address _nftAddress,\n        uint256 _nftId\n    ) public {\n        for (uint256 index = 0; index < items.length; index++) {\n            if(items[index].nftAddress == _nftAddress && items[index].nftId == _nftId){\n                require(items[index].seller == msg.sender, \"user must be nft owner\");\n                items[index].nftContract.safeTransferFrom(address(this), items[index].seller, items[index].nftId, items[index].amount, \"\");\n                removeItemByIndex(index);\n            }\n        }\n    }\n\n    function cleanMarket() public onlyOwner{\n        isOpen = false;\n        for (uint256 index = 0; index < items.length; index++) {\n            items[index].nftContract.safeTransferFrom(address(this), items[index].seller, items[index].nftId, items[index].amount, \"\");\n            removeItemByIndex(index);\n        }\n    }\n\n    function removeItemByIndex(uint256 _index) internal {\n        items[_index] = items[items.length - 1];\n        items.pop();\n    }\n\n    function addPublisher(address _publisher) public onlyOwner{\n        publishers[_publisher] = true;\n    }\n\n    function removePublisher(address _publisher) public onlyOwner{\n        publishers[_publisher] = false;\n    }\n\n    function setPaymentToken(address _paymentToken) public onlyOwner{\n        paymentToken = _paymentToken;\n    }\n\n    function setMartketStatus(bool _status) public onlyOwner{\n        isOpen = _status;\n    }\n\n    function getTotalItems() public view returns(uint256) {\n        return items.length;\n    }\n\n    // this function to contract can receive token ERC1155\n    function onERC1155Received(\n        address operator,\n        address from,\n        uint256 id,\n        uint256 value,\n        bytes calldata data\n    ) public override returns (bytes4) {\n        return this.onERC1155Received.selector;\n    }\n\n    function onERC1155BatchReceived(\n        address operator,\n        address from,\n        uint256[] calldata ids,\n        uint256[] calldata values,\n        bytes calldata data\n    ) public override returns (bytes4) {\n        revert(\"batch transfers not supported\");\n    }\n}",
  "sourcePath": "/Users/tannguyen/Documents/GitHub/ccq-nft/contracts/fund-cert-marketplace.sol",
  "compiler": {
    "name": "solc",
    "version": "0.8.19+commit.7dd6d404.Emscripten.clang"
  },
  "schemaVersion": "3.4.13",
  "updatedAt": "2023-04-04T01:53:33.378Z",
  "devdoc": {
    "kind": "dev",
    "methods": {
      "onERC1155BatchReceived(address,address,uint256[],uint256[],bytes)": {
        "details": "Handles the receipt of a multiple ERC1155 token types. This function is called at the end of a `safeBatchTransferFrom` after the balances have been updated. NOTE: To accept the transfer(s), this must return `bytes4(keccak256(\"onERC1155BatchReceived(address,address,uint256[],uint256[],bytes)\"))` (i.e. 0xbc197c81, or its own function selector).",
        "params": {
          "data": "Additional data with no specified format",
          "from": "The address which previously owned the token",
          "ids": "An array containing ids of each token being transferred (order and length must match values array)",
          "operator": "The address which initiated the batch transfer (i.e. msg.sender)",
          "values": "An array containing amounts of each token being transferred (order and length must match ids array)"
        },
        "returns": {
          "_0": "`bytes4(keccak256(\"onERC1155BatchReceived(address,address,uint256[],uint256[],bytes)\"))` if transfer is allowed"
        }
      },
      "onERC1155Received(address,address,uint256,uint256,bytes)": {
        "details": "Handles the receipt of a single ERC1155 token type. This function is called at the end of a `safeTransferFrom` after the balance has been updated. NOTE: To accept the transfer, this must return `bytes4(keccak256(\"onERC1155Received(address,address,uint256,uint256,bytes)\"))` (i.e. 0xf23a6e61, or its own function selector).",
        "params": {
          "data": "Additional data with no specified format",
          "from": "The address which previously owned the token",
          "id": "The ID of the token being transferred",
          "operator": "The address which initiated the transfer (i.e. msg.sender)",
          "value": "The amount of tokens being transferred"
        },
        "returns": {
          "_0": "`bytes4(keccak256(\"onERC1155Received(address,address,uint256,uint256,bytes)\"))` if transfer is allowed"
        }
      },
      "owner()": {
        "details": "Returns the address of the current owner."
      },
      "renounceOwnership()": {
        "details": "Leaves the contract without owner. It will not be possible to call `onlyOwner` functions anymore. Can only be called by the current owner. NOTE: Renouncing ownership will leave the contract without an owner, thereby removing any functionality that is only available to the owner."
      },
      "supportsInterface(bytes4)": {
        "details": "See {IERC165-supportsInterface}."
      },
      "transferOwnership(address)": {
        "details": "Transfers ownership of the contract to a new account (`newOwner`). Can only be called by the current owner."
      }
    },
    "version": 1
  },
  "userdoc": {
    "kind": "user",
    "methods": {},
    "version": 1
  }
}